{
  "contractName": "Prescription",
  "abi": [
    {
      "inputs": [
        {
          "internalType": "address",
          "name": "registrationSCAddress",
          "type": "address"
        }
      ],
      "stateMutability": "nonpayable",
      "type": "constructor"
    },
    {
      "anonymous": false,
      "inputs": [
        {
          "indexed": true,
          "internalType": "string",
          "name": "prescriptionID",
          "type": "string"
        },
        {
          "indexed": false,
          "internalType": "address",
          "name": "patient",
          "type": "address"
        }
      ],
      "name": "MedicationIsCollected",
      "type": "event"
    },
    {
      "anonymous": false,
      "inputs": [
        {
          "indexed": true,
          "internalType": "string",
          "name": "prescriptionID",
          "type": "string"
        },
        {
          "indexed": false,
          "internalType": "address",
          "name": "_pharmacy",
          "type": "address"
        },
        {
          "indexed": false,
          "internalType": "address",
          "name": "patient",
          "type": "address"
        }
      ],
      "name": "MedicationIsPrepared",
      "type": "event"
    },
    {
      "anonymous": false,
      "inputs": [
        {
          "indexed": true,
          "internalType": "address",
          "name": "_pharmacy",
          "type": "address"
        }
      ],
      "name": "PharmacySelected",
      "type": "event"
    },
    {
      "anonymous": false,
      "inputs": [
        {
          "indexed": true,
          "internalType": "string",
          "name": "prescriptionID",
          "type": "string"
        },
        {
          "indexed": false,
          "internalType": "address",
          "name": "_pharmacy",
          "type": "address"
        }
      ],
      "name": "PrescriptionAccepted",
      "type": "event"
    },
    {
      "anonymous": false,
      "inputs": [
        {
          "indexed": true,
          "internalType": "string",
          "name": "prescriptionID",
          "type": "string"
        },
        {
          "indexed": false,
          "internalType": "address",
          "name": "patient",
          "type": "address"
        }
      ],
      "name": "PrescriptionCancelled",
      "type": "event"
    },
    {
      "anonymous": false,
      "inputs": [
        {
          "indexed": true,
          "internalType": "string",
          "name": "prescriptionID",
          "type": "string"
        },
        {
          "indexed": true,
          "internalType": "address",
          "name": "physician",
          "type": "address"
        },
        {
          "indexed": true,
          "internalType": "address",
          "name": "patient",
          "type": "address"
        },
        {
          "indexed": false,
          "internalType": "string",
          "name": "IPFShash",
          "type": "string"
        }
      ],
      "name": "PrescriptionCreated",
      "type": "event"
    },
    {
      "anonymous": false,
      "inputs": [
        {
          "indexed": true,
          "internalType": "string",
          "name": "prescriptionID",
          "type": "string"
        },
        {
          "indexed": false,
          "internalType": "address",
          "name": "_pharmacy",
          "type": "address"
        }
      ],
      "name": "PrescriptionRejected",
      "type": "event"
    },
    {
      "anonymous": false,
      "inputs": [
        {
          "indexed": true,
          "internalType": "string",
          "name": "prescriptionID",
          "type": "string"
        },
        {
          "indexed": false,
          "internalType": "enum Prescription.PrescriptionStatus",
          "name": "newStatus",
          "type": "uint8"
        }
      ],
      "name": "PrescriptionStatusUpdated",
      "type": "event"
    },
    {
      "inputs": [
        {
          "internalType": "string",
          "name": "",
          "type": "string"
        },
        {
          "internalType": "address",
          "name": "",
          "type": "address"
        }
      ],
      "name": "hasPharmacySelected",
      "outputs": [
        {
          "internalType": "bool",
          "name": "",
          "type": "bool"
        }
      ],
      "stateMutability": "view",
      "type": "function",
      "constant": true
    },
    {
      "inputs": [
        {
          "internalType": "string",
          "name": "",
          "type": "string"
        }
      ],
      "name": "prescriptionToPharmacy",
      "outputs": [
        {
          "internalType": "address",
          "name": "",
          "type": "address"
        }
      ],
      "stateMutability": "view",
      "type": "function",
      "constant": true
    },
    {
      "inputs": [
        {
          "internalType": "string",
          "name": "",
          "type": "string"
        }
      ],
      "name": "prescriptions",
      "outputs": [
        {
          "internalType": "string",
          "name": "prescriptionID",
          "type": "string"
        },
        {
          "internalType": "address",
          "name": "patient",
          "type": "address"
        },
        {
          "internalType": "string",
          "name": "IPFShash",
          "type": "string"
        },
        {
          "internalType": "enum Prescription.PrescriptionStatus",
          "name": "status",
          "type": "uint8"
        },
        {
          "internalType": "address",
          "name": "physician",
          "type": "address"
        }
      ],
      "stateMutability": "view",
      "type": "function",
      "constant": true
    },
    {
      "inputs": [],
      "name": "reg_contract",
      "outputs": [
        {
          "internalType": "contract Registration",
          "name": "",
          "type": "address"
        }
      ],
      "stateMutability": "view",
      "type": "function",
      "constant": true
    },
    {
      "inputs": [
        {
          "internalType": "string",
          "name": "_prescriptionID",
          "type": "string"
        },
        {
          "internalType": "address",
          "name": "_patient",
          "type": "address"
        },
        {
          "internalType": "string",
          "name": "_IPFShash",
          "type": "string"
        }
      ],
      "name": "prescriptionCreation",
      "outputs": [],
      "stateMutability": "nonpayable",
      "type": "function"
    },
    {
      "inputs": [
        {
          "internalType": "string",
          "name": "_prescriptionID",
          "type": "string"
        }
      ],
      "name": "accessPrescription",
      "outputs": [
        {
          "internalType": "address",
          "name": "",
          "type": "address"
        },
        {
          "internalType": "string",
          "name": "",
          "type": "string"
        },
        {
          "internalType": "enum Prescription.PrescriptionStatus",
          "name": "",
          "type": "uint8"
        }
      ],
      "stateMutability": "view",
      "type": "function",
      "constant": true
    },
    {
      "inputs": [
        {
          "internalType": "string",
          "name": "_prescriptionID",
          "type": "string"
        },
        {
          "internalType": "address",
          "name": "_pharmacyAddress",
          "type": "address"
        }
      ],
      "name": "selectPharmacy",
      "outputs": [],
      "stateMutability": "nonpayable",
      "type": "function"
    },
    {
      "inputs": [
        {
          "internalType": "string",
          "name": "_prescriptionID",
          "type": "string"
        }
      ],
      "name": "acceptPrescription",
      "outputs": [],
      "stateMutability": "nonpayable",
      "type": "function"
    },
    {
      "inputs": [
        {
          "internalType": "string",
          "name": "_prescriptionID",
          "type": "string"
        }
      ],
      "name": "rejectPrescription",
      "outputs": [],
      "stateMutability": "nonpayable",
      "type": "function"
    },
    {
      "inputs": [
        {
          "internalType": "string",
          "name": "_prescriptionID",
          "type": "string"
        }
      ],
      "name": "medicationPreparation",
      "outputs": [],
      "stateMutability": "nonpayable",
      "type": "function"
    },
    {
      "inputs": [
        {
          "internalType": "string",
          "name": "_prescriptionID",
          "type": "string"
        }
      ],
      "name": "medicationCollection",
      "outputs": [],
      "stateMutability": "nonpayable",
      "type": "function"
    },
    {
      "inputs": [
        {
          "internalType": "string",
          "name": "_prescriptionID",
          "type": "string"
        }
      ],
      "name": "cancelPrescription",
      "outputs": [],
      "stateMutability": "nonpayable",
      "type": "function"
    },
    {
      "inputs": [
        {
          "internalType": "string",
          "name": "_prescriptionID",
          "type": "string"
        }
      ],
      "name": "getAssignedPharmacy",
      "outputs": [
        {
          "internalType": "address",
          "name": "",
          "type": "address"
        }
      ],
      "stateMutability": "view",
      "type": "function",
      "constant": true
    }
  ],
  "bytecode": "0x60806040523480156200001157600080fd5b50604051620042d9380380620042d9833981810160405281019062000037919062000095565b806000806101000a81548173ffffffffffffffffffffffffffffffffffffffff021916908373ffffffffffffffffffffffffffffffffffffffff160217905550506200010f565b6000815190506200008f81620000f5565b92915050565b600060208284031215620000a857600080fd5b6000620000b8848285016200007e565b91505092915050565b6000620000ce82620000d5565b9050919050565b600073ffffffffffffffffffffffffffffffffffffffff82169050919050565b6200010081620000c1565b81146200010c57600080fd5b50565b6141ba806200011f6000396000f3fe608060405234801561001057600080fd5b50600436106100ce5760003560e01c80639276483d1161008c578063b9e7d08111610066578063b9e7d08114610223578063c4a578ab1461023f578063cf8c8e471461025b578063d85dc61d14610277576100ce565b80639276483d146101a757806394e1c9f3146101d75780639e012a5714610207576100ce565b80627a248f146100d3578063173b0e10146101035780631b710299146101215780633b1dfae51461013d57806356813d7e1461016f57806373731ed11461018b575b600080fd5b6100ed60048036038101906100e89190613202565b6102ab565b6040516100fa9190613649565b60405180910390f35b61010b61069c565b60405161011891906136e6565b60405180910390f35b61013b60048036038101906101369190613297565b6106c0565b005b61015760048036038101906101529190613202565b610aa9565b6040516101669392919061368d565b60405180910390f35b61018960048036038101906101849190613202565b61116d565b005b6101a560048036038101906101a09190613202565b611792565b005b6101c160048036038101906101bc9190613202565b611ba2565b6040516101ce9190613649565b60405180910390f35b6101f160048036038101906101ec9190613243565b611beb565b6040516101fe91906136cb565b60405180910390f35b610221600480360381019061021c9190613243565b611c30565b005b61023d60048036038101906102389190613202565b6121f0565b005b61025960048036038101906102549190613202565b612626565b005b61027560048036038101906102709190613202565b612aeb565b005b610291600480360381019061028c9190613202565b612efb565b6040516102a295949392919061373e565b60405180910390f35b60008160006002826040516102c09190613632565b90815260200160405180910390206040518060a00160405290816000820180546102e990613b25565b80601f016020809104026020016040519081016040528092919081815260200182805461031590613b25565b80156103625780601f1061033757610100808354040283529160200191610362565b820191906000526020600020905b81548152906001019060200180831161034557829003601f168201915b505050505081526020016001820160009054906101000a900473ffffffffffffffffffffffffffffffffffffffff1673ffffffffffffffffffffffffffffffffffffffff1673ffffffffffffffffffffffffffffffffffffffff1681526020016002820180546103d190613b25565b80601f01602080910402602001604051908101604052809291908181526020018280546103fd90613b25565b801561044a5780601f1061041f5761010080835404028352916020019161044a565b820191906000526020600020905b81548152906001019060200180831161042d57829003601f168201915b505050505081526020016003820160009054906101000a900460ff16600581111561049e577f4e487b7100000000000000000000000000000000000000000000000000000000600052602160045260246000fd5b60058111156104d6577f4e487b7100000000000000000000000000000000000000000000000000000000600052602160045260246000fd5b81526020016003820160019054906101000a900473ffffffffffffffffffffffffffffffffffffffff1673ffffffffffffffffffffffffffffffffffffffff1673ffffffffffffffffffffffffffffffffffffffff1681525050905060006001836040516105449190613632565b908152602001604051809103902060003373ffffffffffffffffffffffffffffffffffffffff1673ffffffffffffffffffffffffffffffffffffffff16815260200190815260200160002060009054906101000a900460ff169050816080015173ffffffffffffffffffffffffffffffffffffffff163373ffffffffffffffffffffffffffffffffffffffff16148061060c5750816020015173ffffffffffffffffffffffffffffffffffffffff163373ffffffffffffffffffffffffffffffffffffffff16145b806106145750805b610653576040517f08c379a000000000000000000000000000000000000000000000000000000000815260040161064a906138bf565b60405180910390fd5b6003856040516106639190613632565b908152602001604051809103902060009054906101000a900473ffffffffffffffffffffffffffffffffffffffff169350505050919050565b60008054906101000a900473ffffffffffffffffffffffffffffffffffffffff1681565b60008054906101000a900473ffffffffffffffffffffffffffffffffffffffff1673ffffffffffffffffffffffffffffffffffffffff166372c8e330336040518263ffffffff1660e01b81526004016107199190613649565b60206040518083038186803b15801561073157600080fd5b505afa158015610745573d6000803e3d6000fd5b505050506040513d601f19601f8201168201806040525081019061076991906131d9565b6107a8576040517f08c379a000000000000000000000000000000000000000000000000000000000815260040161079f9061389f565b60405180910390fd5b600073ffffffffffffffffffffffffffffffffffffffff166002846040516107d09190613632565b908152602001604051809103902060010160009054906101000a900473ffffffffffffffffffffffffffffffffffffffff1673ffffffffffffffffffffffffffffffffffffffff1614610858576040517f08c379a000000000000000000000000000000000000000000000000000000000815260040161084f9061387f565b60405180910390fd5b60006040518060a001604052808581526020018473ffffffffffffffffffffffffffffffffffffffff168152602001838152602001600060058111156108c7577f4e487b7100000000000000000000000000000000000000000000000000000000600052602160045260246000fd5b81526020013373ffffffffffffffffffffffffffffffffffffffff168152509050806002856040516108f99190613632565b908152602001604051809103902060008201518160000190805190602001906109239291906130a4565b5060208201518160010160006101000a81548173ffffffffffffffffffffffffffffffffffffffff021916908373ffffffffffffffffffffffffffffffffffffffff16021790555060408201518160020190805190602001906109879291906130a4565b5060608201518160030160006101000a81548160ff021916908360058111156109d9577f4e487b7100000000000000000000000000000000000000000000000000000000600052602160045260246000fd5b021790555060808201518160030160016101000a81548173ffffffffffffffffffffffffffffffffffffffff021916908373ffffffffffffffffffffffffffffffffffffffff1602179055509050508273ffffffffffffffffffffffffffffffffffffffff163373ffffffffffffffffffffffffffffffffffffffff1685604051610a649190613632565b60405180910390207f13a3620159e2b2e1792b2b9eec71292a542a7d354064ecc767e5eb700a877bbd85604051610a9b919061371c565b60405180910390a450505050565b600060606000836000600282604051610ac29190613632565b90815260200160405180910390206040518060a0016040529081600082018054610aeb90613b25565b80601f0160208091040260200160405190810160405280929190818152602001828054610b1790613b25565b8015610b645780601f10610b3957610100808354040283529160200191610b64565b820191906000526020600020905b815481529060010190602001808311610b4757829003601f168201915b505050505081526020016001820160009054906101000a900473ffffffffffffffffffffffffffffffffffffffff1673ffffffffffffffffffffffffffffffffffffffff1673ffffffffffffffffffffffffffffffffffffffff168152602001600282018054610bd390613b25565b80601f0160208091040260200160405190810160405280929190818152602001828054610bff90613b25565b8015610c4c5780601f10610c2157610100808354040283529160200191610c4c565b820191906000526020600020905b815481529060010190602001808311610c2f57829003601f168201915b505050505081526020016003820160009054906101000a900460ff166005811115610ca0577f4e487b7100000000000000000000000000000000000000000000000000000000600052602160045260246000fd5b6005811115610cd8577f4e487b7100000000000000000000000000000000000000000000000000000000600052602160045260246000fd5b81526020016003820160019054906101000a900473ffffffffffffffffffffffffffffffffffffffff1673ffffffffffffffffffffffffffffffffffffffff1673ffffffffffffffffffffffffffffffffffffffff168152505090506000600183604051610d469190613632565b908152602001604051809103902060003373ffffffffffffffffffffffffffffffffffffffff1673ffffffffffffffffffffffffffffffffffffffff16815260200190815260200160002060009054906101000a900460ff169050816080015173ffffffffffffffffffffffffffffffffffffffff163373ffffffffffffffffffffffffffffffffffffffff161480610e0e5750816020015173ffffffffffffffffffffffffffffffffffffffff163373ffffffffffffffffffffffffffffffffffffffff16145b80610e165750805b610e55576040517f08c379a0000000000000000000000000000000000000000000000000000000008152600401610e4c906138bf565b60405180910390fd5b6000600288604051610e679190613632565b90815260200160405180910390206040518060a0016040529081600082018054610e9090613b25565b80601f0160208091040260200160405190810160405280929190818152602001828054610ebc90613b25565b8015610f095780601f10610ede57610100808354040283529160200191610f09565b820191906000526020600020905b815481529060010190602001808311610eec57829003601f168201915b505050505081526020016001820160009054906101000a900473ffffffffffffffffffffffffffffffffffffffff1673ffffffffffffffffffffffffffffffffffffffff1673ffffffffffffffffffffffffffffffffffffffff168152602001600282018054610f7890613b25565b80601f0160208091040260200160405190810160405280929190818152602001828054610fa490613b25565b8015610ff15780601f10610fc657610100808354040283529160200191610ff1565b820191906000526020600020905b815481529060010190602001808311610fd457829003601f168201915b505050505081526020016003820160009054906101000a900460ff166005811115611045577f4e487b7100000000000000000000000000000000000000000000000000000000600052602160045260246000fd5b600581111561107d577f4e487b7100000000000000000000000000000000000000000000000000000000600052602160045260246000fd5b81526020016003820160019054906101000a900473ffffffffffffffffffffffffffffffffffffffff1673ffffffffffffffffffffffffffffffffffffffff1673ffffffffffffffffffffffffffffffffffffffff16815250509050600073ffffffffffffffffffffffffffffffffffffffff16816020015173ffffffffffffffffffffffffffffffffffffffff16141561114d576040517f08c379a00000000000000000000000000000000000000000000000000000000081526004016111449061395f565b60405180910390fd5b806020015181604001518260600151965096509650505050509193909250565b8060006002826040516111809190613632565b90815260200160405180910390206040518060a00160405290816000820180546111a990613b25565b80601f01602080910402602001604051908101604052809291908181526020018280546111d590613b25565b80156112225780601f106111f757610100808354040283529160200191611222565b820191906000526020600020905b81548152906001019060200180831161120557829003601f168201915b505050505081526020016001820160009054906101000a900473ffffffffffffffffffffffffffffffffffffffff1673ffffffffffffffffffffffffffffffffffffffff1673ffffffffffffffffffffffffffffffffffffffff16815260200160028201805461129190613b25565b80601f01602080910402602001604051908101604052809291908181526020018280546112bd90613b25565b801561130a5780601f106112df5761010080835404028352916020019161130a565b820191906000526020600020905b8154815290600101906020018083116112ed57829003601f168201915b505050505081526020016003820160009054906101000a900460ff16600581111561135e577f4e487b7100000000000000000000000000000000000000000000000000000000600052602160045260246000fd5b6005811115611396577f4e487b7100000000000000000000000000000000000000000000000000000000600052602160045260246000fd5b81526020016003820160019054906101000a900473ffffffffffffffffffffffffffffffffffffffff1673ffffffffffffffffffffffffffffffffffffffff1673ffffffffffffffffffffffffffffffffffffffff16815250509050806080015173ffffffffffffffffffffffffffffffffffffffff163373ffffffffffffffffffffffffffffffffffffffff1614611464576040517f08c379a000000000000000000000000000000000000000000000000000000000815260040161145b906137df565b60405180910390fd5b60006002846040516114769190613632565b90815260200160405180910390209050600073ffffffffffffffffffffffffffffffffffffffff168160010160009054906101000a900473ffffffffffffffffffffffffffffffffffffffff1673ffffffffffffffffffffffffffffffffffffffff16141561151a576040517f08c379a00000000000000000000000000000000000000000000000000000000081526004016115119061395f565b60405180910390fd5b60006005811115611554577f4e487b7100000000000000000000000000000000000000000000000000000000600052602160045260246000fd5b8160030160009054906101000a900460ff16600581111561159e577f4e487b7100000000000000000000000000000000000000000000000000000000600052602160045260246000fd5b148061162b5750600160058111156115df577f4e487b7100000000000000000000000000000000000000000000000000000000600052602160045260246000fd5b8160030160009054906101000a900460ff166005811115611629577f4e487b7100000000000000000000000000000000000000000000000000000000600052602160045260246000fd5b145b61166a576040517f08c379a00000000000000000000000000000000000000000000000000000000081526004016116619061381f565b60405180910390fd5b60058160030160006101000a81548160ff021916908360058111156116b8577f4e487b7100000000000000000000000000000000000000000000000000000000600052602160045260246000fd5b0217905550836040516116cb9190613632565b60405180910390207f981ec723f631e46e9c41b79378c7663d36dcb1a5e4f630a5c92e9f9fd946b5db8260010160009054906101000a900473ffffffffffffffffffffffffffffffffffffffff166040516117269190613649565b60405180910390a28360405161173c9190613632565b60405180910390207f7754a3e22c2454559df515d7510ab2e75e9df6aa00067f3d5c56846e4932155d8260030160009054906101000a900460ff166040516117849190613701565b60405180910390a250505050565b60008054906101000a900473ffffffffffffffffffffffffffffffffffffffff1673ffffffffffffffffffffffffffffffffffffffff1663b58d520a336040518263ffffffff1660e01b81526004016117eb9190613649565b60206040518083038186803b15801561180357600080fd5b505afa158015611817573d6000803e3d6000fd5b505050506040513d601f19601f8201168201806040525081019061183b91906131d9565b61187a576040517f08c379a00000000000000000000000000000000000000000000000000000000081526004016118719061399f565b60405180910390fd5b600060028260405161188c9190613632565b90815260200160405180910390209050600073ffffffffffffffffffffffffffffffffffffffff168160010160009054906101000a900473ffffffffffffffffffffffffffffffffffffffff1673ffffffffffffffffffffffffffffffffffffffff161415611930576040517f08c379a00000000000000000000000000000000000000000000000000000000081526004016119279061395f565b60405180910390fd5b6003600581111561196a577f4e487b7100000000000000000000000000000000000000000000000000000000600052602160045260246000fd5b8160030160009054906101000a900460ff1660058111156119b4577f4e487b7100000000000000000000000000000000000000000000000000000000600052602160045260246000fd5b146119f4576040517f08c379a00000000000000000000000000000000000000000000000000000000081526004016119eb9061379f565b60405180910390fd5b600382604051611a049190613632565b908152602001604051809103902060009054906101000a900473ffffffffffffffffffffffffffffffffffffffff1673ffffffffffffffffffffffffffffffffffffffff163373ffffffffffffffffffffffffffffffffffffffff1614611aa0576040517f08c379a0000000000000000000000000000000000000000000000000000000008152600401611a979061383f565b60405180910390fd5b60048160030160006101000a81548160ff02191690836005811115611aee577f4e487b7100000000000000000000000000000000000000000000000000000000600052602160045260246000fd5b021790555081604051611b019190613632565b60405180910390207fc771e981b2170f8ba2dd6410421a4d0a2d2dc06bbc5bdc9dbba7747da180a92033604051611b389190613649565b60405180910390a281604051611b4e9190613632565b60405180910390207f7754a3e22c2454559df515d7510ab2e75e9df6aa00067f3d5c56846e4932155d8260030160009054906101000a900460ff16604051611b969190613701565b60405180910390a25050565b6003818051602081018201805184825260208301602085012081835280955050505050506000915054906101000a900473ffffffffffffffffffffffffffffffffffffffff1681565b6001828051602081018201805184825260208301602085012081835280955050505050506020528060005260406000206000915091509054906101000a900460ff1681565b60008054906101000a900473ffffffffffffffffffffffffffffffffffffffff1673ffffffffffffffffffffffffffffffffffffffff1663b58d520a826040518263ffffffff1660e01b8152600401611c899190613649565b60206040518083038186803b158015611ca157600080fd5b505afa158015611cb5573d6000803e3d6000fd5b505050506040513d601f19601f82011682018060405250810190611cd991906131d9565b611d18576040517f08c379a0000000000000000000000000000000000000000000000000000000008152600401611d0f9061391f565b60405180910390fd5b6000600283604051611d2a9190613632565b90815260200160405180910390209050600073ffffffffffffffffffffffffffffffffffffffff168160010160009054906101000a900473ffffffffffffffffffffffffffffffffffffffff1673ffffffffffffffffffffffffffffffffffffffff161415611dce576040517f08c379a0000000000000000000000000000000000000000000000000000000008152600401611dc59061395f565b60405180910390fd5b60006005811115611e08577f4e487b7100000000000000000000000000000000000000000000000000000000600052602160045260246000fd5b8160030160009054906101000a900460ff166005811115611e52577f4e487b7100000000000000000000000000000000000000000000000000000000600052602160045260246000fd5b14611e92576040517f08c379a0000000000000000000000000000000000000000000000000000000008152600401611e89906139bf565b60405180910390fd5b8060010160009054906101000a900473ffffffffffffffffffffffffffffffffffffffff1673ffffffffffffffffffffffffffffffffffffffff163373ffffffffffffffffffffffffffffffffffffffff161480611f3f57508060030160019054906101000a900473ffffffffffffffffffffffffffffffffffffffff1673ffffffffffffffffffffffffffffffffffffffff163373ffffffffffffffffffffffffffffffffffffffff16145b611f7e576040517f08c379a0000000000000000000000000000000000000000000000000000000008152600401611f759061397f565b60405180910390fd5b600183604051611f8e9190613632565b908152602001604051809103902060008373ffffffffffffffffffffffffffffffffffffffff1673ffffffffffffffffffffffffffffffffffffffff16815260200190815260200160002060009054906101000a900460ff1615612027576040517f08c379a000000000000000000000000000000000000000000000000000000000815260040161201e9061385f565b60405180910390fd5b600180846040516120389190613632565b908152602001604051809103902060008473ffffffffffffffffffffffffffffffffffffffff1673ffffffffffffffffffffffffffffffffffffffff16815260200190815260200160002060006101000a81548160ff021916908315150217905550816003846040516120ab9190613632565b908152602001604051809103902060006101000a81548173ffffffffffffffffffffffffffffffffffffffff021916908373ffffffffffffffffffffffffffffffffffffffff16021790555060018160030160006101000a81548160ff02191690836005811115612145577f4e487b7100000000000000000000000000000000000000000000000000000000600052602160045260246000fd5b02179055508173ffffffffffffffffffffffffffffffffffffffff167f98aea3a5d98dfc35b93239c319c83a1dfd6515686e1318d1c9e45bab8a471a3d60405160405180910390a28260405161219b9190613632565b60405180910390207f7754a3e22c2454559df515d7510ab2e75e9df6aa00067f3d5c56846e4932155d8260030160009054906101000a900460ff166040516121e39190613701565b60405180910390a2505050565b60008054906101000a900473ffffffffffffffffffffffffffffffffffffffff1673ffffffffffffffffffffffffffffffffffffffff1663b58d520a336040518263ffffffff1660e01b81526004016122499190613649565b60206040518083038186803b15801561226157600080fd5b505afa158015612275573d6000803e3d6000fd5b505050506040513d601f19601f8201168201806040525081019061229991906131d9565b6122d8576040517f08c379a00000000000000000000000000000000000000000000000000000000081526004016122cf9061399f565b60405180910390fd5b60006002826040516122ea9190613632565b90815260200160405180910390209050600073ffffffffffffffffffffffffffffffffffffffff168160010160009054906101000a900473ffffffffffffffffffffffffffffffffffffffff1673ffffffffffffffffffffffffffffffffffffffff16141561238e576040517f08c379a00000000000000000000000000000000000000000000000000000000081526004016123859061395f565b60405180910390fd5b600260058111156123c8577f4e487b7100000000000000000000000000000000000000000000000000000000600052602160045260246000fd5b8160030160009054906101000a900460ff166005811115612412577f4e487b7100000000000000000000000000000000000000000000000000000000600052602160045260246000fd5b14612452576040517f08c379a0000000000000000000000000000000000000000000000000000000008152600401612449906138ff565b60405180910390fd5b6003826040516124629190613632565b908152602001604051809103902060009054906101000a900473ffffffffffffffffffffffffffffffffffffffff1673ffffffffffffffffffffffffffffffffffffffff163373ffffffffffffffffffffffffffffffffffffffff16146124fe576040517f08c379a00000000000000000000000000000000000000000000000000000000081526004016124f5906137bf565b60405180910390fd5b60038160030160006101000a81548160ff0219169083600581111561254c577f4e487b7100000000000000000000000000000000000000000000000000000000600052602160045260246000fd5b02179055508160405161255f9190613632565b60405180910390207fdcb3e7e142b6b0ec21e0aa464eb1e1a79fdedc97fbde1bfc144206924f730b7c338360010160009054906101000a900473ffffffffffffffffffffffffffffffffffffffff166040516125bc929190613664565b60405180910390a2816040516125d29190613632565b60405180910390207f7754a3e22c2454559df515d7510ab2e75e9df6aa00067f3d5c56846e4932155d8260030160009054906101000a900460ff1660405161261a9190613701565b60405180910390a25050565b60008054906101000a900473ffffffffffffffffffffffffffffffffffffffff1673ffffffffffffffffffffffffffffffffffffffff1663b58d520a336040518263ffffffff1660e01b815260040161267f9190613649565b60206040518083038186803b15801561269757600080fd5b505afa1580156126ab573d6000803e3d6000fd5b505050506040513d601f19601f820116820180604052508101906126cf91906131d9565b61270e576040517f08c379a00000000000000000000000000000000000000000000000000000000081526004016127059061399f565b60405180910390fd5b60006002826040516127209190613632565b90815260200160405180910390209050600073ffffffffffffffffffffffffffffffffffffffff168160010160009054906101000a900473ffffffffffffffffffffffffffffffffffffffff1673ffffffffffffffffffffffffffffffffffffffff1614156127c4576040517f08c379a00000000000000000000000000000000000000000000000000000000081526004016127bb9061395f565b60405180910390fd5b600160058111156127fe577f4e487b7100000000000000000000000000000000000000000000000000000000600052602160045260246000fd5b8160030160009054906101000a900460ff166005811115612848577f4e487b7100000000000000000000000000000000000000000000000000000000600052602160045260246000fd5b14612888576040517f08c379a000000000000000000000000000000000000000000000000000000000815260040161287f906137ff565b60405180910390fd5b6003826040516128989190613632565b908152602001604051809103902060009054906101000a900473ffffffffffffffffffffffffffffffffffffffff1673ffffffffffffffffffffffffffffffffffffffff163373ffffffffffffffffffffffffffffffffffffffff1614612934576040517f08c379a000000000000000000000000000000000000000000000000000000000815260040161292b9061393f565b60405180910390fd5b60008160030160006101000a81548160ff02191690836005811115612982577f4e487b7100000000000000000000000000000000000000000000000000000000600052602160045260246000fd5b02179055506003826040516129979190613632565b908152602001604051809103902060006101000a81549073ffffffffffffffffffffffffffffffffffffffff021916905560006001836040516129da9190613632565b908152602001604051809103902060003373ffffffffffffffffffffffffffffffffffffffff1673ffffffffffffffffffffffffffffffffffffffff16815260200190815260200160002060006101000a81548160ff02191690831515021790555081604051612a4a9190613632565b60405180910390207f99621f5f22a507863ad904ce90b315e4c6feab6fef5dff8ffacdfaef010309c933604051612a819190613649565b60405180910390a281604051612a979190613632565b60405180910390207f7754a3e22c2454559df515d7510ab2e75e9df6aa00067f3d5c56846e4932155d8260030160009054906101000a900460ff16604051612adf9190613701565b60405180910390a25050565b60008054906101000a900473ffffffffffffffffffffffffffffffffffffffff1673ffffffffffffffffffffffffffffffffffffffff1663b58d520a336040518263ffffffff1660e01b8152600401612b449190613649565b60206040518083038186803b158015612b5c57600080fd5b505afa158015612b70573d6000803e3d6000fd5b505050506040513d601f19601f82011682018060405250810190612b9491906131d9565b612bd3576040517f08c379a0000000000000000000000000000000000000000000000000000000008152600401612bca9061399f565b60405180910390fd5b6000600282604051612be59190613632565b90815260200160405180910390209050600073ffffffffffffffffffffffffffffffffffffffff168160010160009054906101000a900473ffffffffffffffffffffffffffffffffffffffff1673ffffffffffffffffffffffffffffffffffffffff161415612c89576040517f08c379a0000000000000000000000000000000000000000000000000000000008152600401612c809061395f565b60405180910390fd5b60016005811115612cc3577f4e487b7100000000000000000000000000000000000000000000000000000000600052602160045260246000fd5b8160030160009054906101000a900460ff166005811115612d0d577f4e487b7100000000000000000000000000000000000000000000000000000000600052602160045260246000fd5b14612d4d576040517f08c379a0000000000000000000000000000000000000000000000000000000008152600401612d44906137ff565b60405180910390fd5b600382604051612d5d9190613632565b908152602001604051809103902060009054906101000a900473ffffffffffffffffffffffffffffffffffffffff1673ffffffffffffffffffffffffffffffffffffffff163373ffffffffffffffffffffffffffffffffffffffff1614612df9576040517f08c379a0000000000000000000000000000000000000000000000000000000008152600401612df0906138df565b60405180910390fd5b60028160030160006101000a81548160ff02191690836005811115612e47577f4e487b7100000000000000000000000000000000000000000000000000000000600052602160045260246000fd5b021790555081604051612e5a9190613632565b60405180910390207feedccd0e0694530c32c875bae5b120352e89ad3a16e27b67096128806a6efddd33604051612e919190613649565b60405180910390a281604051612ea79190613632565b60405180910390207f7754a3e22c2454559df515d7510ab2e75e9df6aa00067f3d5c56846e4932155d8260030160009054906101000a900460ff16604051612eef9190613701565b60405180910390a25050565b600281805160208101820180518482526020830160208501208183528095505050505050600091509050806000018054612f3490613b25565b80601f0160208091040260200160405190810160405280929190818152602001828054612f6090613b25565b8015612fad5780601f10612f8257610100808354040283529160200191612fad565b820191906000526020600020905b815481529060010190602001808311612f9057829003601f168201915b5050505050908060010160009054906101000a900473ffffffffffffffffffffffffffffffffffffffff1690806002018054612fe890613b25565b80601f016020809104026020016040519081016040528092919081815260200182805461301490613b25565b80156130615780601f1061303657610100808354040283529160200191613061565b820191906000526020600020905b81548152906001019060200180831161304457829003601f168201915b5050505050908060030160009054906101000a900460ff16908060030160019054906101000a900473ffffffffffffffffffffffffffffffffffffffff16905085565b8280546130b090613b25565b90600052602060002090601f0160209004810192826130d25760008555613119565b82601f106130eb57805160ff1916838001178555613119565b82800160010185558215613119579182015b828111156131185782518255916020019190600101906130fd565b5b509050613126919061312a565b5090565b5b8082111561314357600081600090555060010161312b565b5090565b600061315a61315584613a04565b6139df565b90508281526020810184848401111561317257600080fd5b61317d848285613ae3565b509392505050565b60008135905061319481614156565b92915050565b6000815190506131a98161416d565b92915050565b600082601f8301126131c057600080fd5b81356131d0848260208601613147565b91505092915050565b6000602082840312156131eb57600080fd5b60006131f98482850161319a565b91505092915050565b60006020828403121561321457600080fd5b600082013567ffffffffffffffff81111561322e57600080fd5b61323a848285016131af565b91505092915050565b6000806040838503121561325657600080fd5b600083013567ffffffffffffffff81111561327057600080fd5b61327c858286016131af565b925050602061328d85828601613185565b9150509250929050565b6000806000606084860312156132ac57600080fd5b600084013567ffffffffffffffff8111156132c657600080fd5b6132d2868287016131af565b93505060206132e386828701613185565b925050604084013567ffffffffffffffff81111561330057600080fd5b61330c868287016131af565b9150509250925092565b61331f81613a5c565b82525050565b61332e81613a6e565b82525050565b61333d81613aad565b82525050565b61334c81613ad1565b82525050565b600061335d82613a35565b6133678185613a40565b9350613377818560208601613af2565b61338081613c15565b840191505092915050565b600061339682613a35565b6133a08185613a51565b93506133b0818560208601613af2565b80840191505092915050565b60006133c9602683613a40565b91506133d482613c26565b604082019050919050565b60006133ec603183613a40565b91506133f782613c75565b604082019050919050565b600061340f603e83613a40565b915061341a82613cc4565b604082019050919050565b6000613432603583613a40565b915061343d82613d13565b604082019050919050565b6000613455602083613a40565b915061346082613d62565b602082019050919050565b6000613478604083613a40565b915061348382613d8b565b604082019050919050565b600061349b603d83613a40565b91506134a682613dda565b604082019050919050565b60006134be601e83613a40565b91506134c982613e29565b602082019050919050565b60006134e1603683613a40565b91506134ec82613e52565b604082019050919050565b6000613504601383613a40565b915061350f82613ea1565b602082019050919050565b6000613527603783613a40565b915061353282613eca565b604082019050919050565b600061354a602783613a40565b915061355582613f19565b604082019050919050565b600061356d602a83613a40565b915061357882613f68565b604082019050919050565b6000613590603783613a40565b915061359b82613fb7565b604082019050919050565b60006135b3601b83613a40565b91506135be82614006565b602082019050919050565b60006135d6604383613a40565b91506135e18261402f565b606082019050919050565b60006135f9603083613a40565b9150613604826140a4565b604082019050919050565b600061361c603d83613a40565b9150613627826140f3565b604082019050919050565b600061363e828461338b565b915081905092915050565b600060208201905061365e6000830184613316565b92915050565b60006040820190506136796000830185613316565b6136866020830184613316565b9392505050565b60006060820190506136a26000830186613316565b81810360208301526136b48185613352565b90506136c36040830184613343565b949350505050565b60006020820190506136e06000830184613325565b92915050565b60006020820190506136fb6000830184613334565b92915050565b60006020820190506137166000830184613343565b92915050565b600060208201905081810360008301526137368184613352565b905092915050565b600060a08201905081810360008301526137588188613352565b90506137676020830187613316565b81810360408301526137798186613352565b90506137886060830185613343565b6137956080830184613316565b9695505050505050565b600060208201905081810360008301526137b8816133bc565b9050919050565b600060208201905081810360008301526137d8816133df565b9050919050565b600060208201905081810360008301526137f881613402565b9050919050565b6000602082019050818103600083015261381881613425565b9050919050565b6000602082019050818103600083015261383881613448565b9050919050565b600060208201905081810360008301526138588161346b565b9050919050565b600060208201905081810360008301526138788161348e565b9050919050565b60006020820190508181036000830152613898816134b1565b9050919050565b600060208201905081810360008301526138b8816134d4565b9050919050565b600060208201905081810360008301526138d8816134f7565b9050919050565b600060208201905081810360008301526138f88161351a565b9050919050565b600060208201905081810360008301526139188161353d565b9050919050565b6000602082019050818103600083015261393881613560565b9050919050565b6000602082019050818103600083015261395881613583565b9050919050565b60006020820190508181036000830152613978816135a6565b9050919050565b60006020820190508181036000830152613998816135c9565b9050919050565b600060208201905081810360008301526139b8816135ec565b9050919050565b600060208201905081810360008301526139d88161360f565b9050919050565b60006139e96139fa565b90506139f58282613b57565b919050565b6000604051905090565b600067ffffffffffffffff821115613a1f57613a1e613be6565b5b613a2882613c15565b9050602081019050919050565b600081519050919050565b600082825260208201905092915050565b600081905092915050565b6000613a6782613a8d565b9050919050565b60008115159050919050565b6000819050613a8882614142565b919050565b600073ffffffffffffffffffffffffffffffffffffffff82169050919050565b6000613ab882613abf565b9050919050565b6000613aca82613a8d565b9050919050565b6000613adc82613a7a565b9050919050565b82818337600083830152505050565b60005b83811015613b10578082015181840152602081019050613af5565b83811115613b1f576000848401525b50505050565b60006002820490506001821680613b3d57607f821691505b60208210811415613b5157613b50613bb7565b5b50919050565b613b6082613c15565b810181811067ffffffffffffffff82111715613b7f57613b7e613be6565b5b80604052505050565b7f4e487b7100000000000000000000000000000000000000000000000000000000600052602160045260246000fd5b7f4e487b7100000000000000000000000000000000000000000000000000000000600052602260045260246000fd5b7f4e487b7100000000000000000000000000000000000000000000000000000000600052604160045260246000fd5b6000601f19601f8301169050919050565b7f4d656469636174696f6e206973206e6f7420726561647920666f7220636f6c6c60008201527f656374696f6e0000000000000000000000000000000000000000000000000000602082015250565b7f4f6e6c79207468652061737369676e656420706861726d6163792063616e207060008201527f726570617265206d656469636174696f6e000000000000000000000000000000602082015250565b7f4f6e6c79207468652070687973696369616e2077686f2063726561746564207460008201527f68697320707265736372697074696f6e2063616e206163636573732069740000602082015250565b7f507265736372697074696f6e206973206e6f7420696e204177616974696e674660008201527f6f72436f6e6669726d6174696f6e207374617475730000000000000000000000602082015250565b7f507265736372697074696f6e2063616e6e6f742062652063616e63656c6c6564600082015250565b7f5468697320706861726d616379206973206e6f74207468652073656c6563746560008201527f6420706861726d61637920666f72207468697320707265736372697074696f6e602082015250565b7f5468697320706861726d6163792068617320616c7265616479206265656e207360008201527f656c656374656420666f72207468697320707265736372697074696f6e000000602082015250565b7f507265736372697074696f6e20494420616c7265616479206578697374730000600082015250565b7f4f6e6c79207468652050687973696369616e20697320616c6c6f77656420746f60008201527f206578656375746520746869732066756e6374696f6e00000000000000000000602082015250565b7f556e617574686f72697a65642061636365737300000000000000000000000000600082015250565b7f4f6e6c79207468652061737369676e656420706861726d6163792063616e206160008201527f6363657074207468697320707265736372697074696f6e000000000000000000602082015250565b7f507265736372697074696f6e206973206e6f7420696e20507265706172696e6760008201527f2073746174757300000000000000000000000000000000000000000000000000602082015250565b7f4f6e6c79207265676973746572656420706861726d61636965732063616e206260008201527f652073656c656374656400000000000000000000000000000000000000000000602082015250565b7f4f6e6c79207468652061737369676e656420706861726d6163792063616e207260008201527f656a656374207468697320707265736372697074696f6e000000000000000000602082015250565b7f507265736372697074696f6e20646f6573206e6f742065786973740000000000600082015250565b7f4f6e6c79207468652070617469656e74206f722074686520707265736372696260008201527f696e672070687973696369616e2063616e2073656c656374206120706861726d60208201527f6163790000000000000000000000000000000000000000000000000000000000604082015250565b7f4f6e6c792061207265676973746572656420506861726d6163792063616e207260008201527f756e20746869732066756e6374696f6e00000000000000000000000000000000602082015250565b7f507265736372697074696f6e206973206e6f7420696e2061207374617465207460008201527f68617420616c6c6f777320706861726d6163792073656c656374696f6e000000602082015250565b6006811061415357614152613b88565b5b50565b61415f81613a5c565b811461416a57600080fd5b50565b61417681613a6e565b811461418157600080fd5b5056fea2646970667358221220549c28e60599fbfb308c2cf692e6f56bd9c011991b44e4960c7441e9d3a7630964736f6c63430008040033",
  "immutableReferences": {},
  "source": "// SPDX-License-Identifier: MIT\npragma solidity ^0.8.4;\n\nimport \"./Registration.sol\";\n\ncontract Prescription {\n\n    // State Variables\n    Registration public reg_contract;\n\n    // Structs\n    struct PrescriptionDetail {\n        string prescriptionID; // Changed from bytes16 to string\n        address patient;\n        string IPFShash;\n        PrescriptionStatus status;\n        address physician;\n    }\n\n    // Mappings\n    mapping(string => mapping(address => bool)) public hasPharmacySelected; \n    mapping(string => PrescriptionDetail) public prescriptions;\n    mapping(string => address) public prescriptionToPharmacy;\n\n    // Enums\n    enum PrescriptionStatus { AwaitingPharmacyAssignment, AwaitingForConfirmation, Preparing, ReadyForCollection, Collected, Cancelled }\n\n    // Events\n    event PharmacySelected(address indexed _pharmacy);\n    event PrescriptionCreated(\n        string indexed prescriptionID, // Changed from bytes16 to string\n        address indexed physician,\n        address indexed patient,\n        string IPFShash\n    );\n    event PrescriptionAccepted(string indexed prescriptionID, address _pharmacy); // Changed from bytes16 to string\n    event PrescriptionRejected(string indexed prescriptionID, address _pharmacy); // Changed from bytes16 to string\n    event MedicationIsPrepared(string indexed prescriptionID, address _pharmacy, address patient); // Changed from bytes16 to string\n    event MedicationIsCollected(string indexed prescriptionID, address patient); // Changed from bytes16 to string\n    event PrescriptionCancelled(string indexed prescriptionID, address patient); // Changed from bytes16 to string\n    event PrescriptionStatusUpdated(string indexed prescriptionID, PrescriptionStatus newStatus); // Changed from bytes16 to string\n\n    // Modifiers\n    modifier onlyPhysician() {\n        require(reg_contract.Physician(msg.sender), \"Only the Physician is allowed to execute this function\");\n        _;\n    }\n\n    modifier onlyPatients() {\n        require(reg_contract.Patient(msg.sender), \"Only the patient is allowed to execute this function\");\n        _;\n    }\n\n    modifier onlyRegisteredPharmacies() {\n        require(reg_contract.Pharmacy(msg.sender), \"Only a registered Pharmacy can run this function\");\n        _;\n    }\n\n    modifier onlyAuthorized(string memory _prescriptionID) {\n        PrescriptionDetail memory detail = prescriptions[_prescriptionID];\n        bool isPharmacy = hasPharmacySelected[_prescriptionID][msg.sender];\n        \n        require(\n            msg.sender == detail.physician || \n            msg.sender == detail.patient || \n            isPharmacy,\n            \"Unauthorized access\"\n        );\n        _;\n    }\n\n    modifier onlyCreator(string memory _prescriptionID) {\n        PrescriptionDetail memory detail = prescriptions[_prescriptionID];\n        require(msg.sender == detail.physician, \"Only the physician who created this prescription can access it\");\n        _;\n    }\n\n    // Constructor\n    constructor(address registrationSCAddress) {\n        reg_contract = Registration(registrationSCAddress);\n    }\n\n    // Functions\n    function prescriptionCreation(\n        string memory _prescriptionID, // Changed from bytes16 to string\n        address _patient,\n        string memory _IPFShash\n    ) public onlyPhysician {\n        require(prescriptions[_prescriptionID].patient == address(0), \"Prescription ID already exists\"); // Ensure ID is unique\n\n        PrescriptionDetail memory detail = PrescriptionDetail({\n            prescriptionID: _prescriptionID,\n            patient: _patient,\n            IPFShash: _IPFShash,\n            status: PrescriptionStatus.AwaitingPharmacyAssignment,\n            physician: msg.sender\n        });\n\n        prescriptions[_prescriptionID] = detail;\n\n        emit PrescriptionCreated(\n            _prescriptionID,\n            msg.sender,\n            _patient,\n            _IPFShash\n        );\n    }\n\n    function accessPrescription(string memory _prescriptionID) public view onlyAuthorized(_prescriptionID) returns (address, string memory, PrescriptionStatus) {\n        PrescriptionDetail memory detail = prescriptions[_prescriptionID];\n        require(detail.patient != address(0), \"Prescription does not exist\");\n\n        return (detail.patient, detail.IPFShash, detail.status);\n    }\n\n    function selectPharmacy(string memory _prescriptionID, address _pharmacyAddress) public {\n        require(reg_contract.Pharmacy(_pharmacyAddress), \"Only registered pharmacies can be selected\");\n\n        PrescriptionDetail storage detail = prescriptions[_prescriptionID];\n        require(detail.patient != address(0), \"Prescription does not exist\");\n        require(detail.status == PrescriptionStatus.AwaitingPharmacyAssignment, \"Prescription is not in a state that allows pharmacy selection\");\n\n        require(msg.sender == detail.patient || msg.sender == detail.physician, \"Only the patient or the prescribing physician can select a pharmacy\");\n\n        require(!hasPharmacySelected[_prescriptionID][_pharmacyAddress], \"This pharmacy has already been selected for this prescription\");\n\n        hasPharmacySelected[_prescriptionID][_pharmacyAddress] = true;\n        prescriptionToPharmacy[_prescriptionID] = _pharmacyAddress;\n\n        detail.status = PrescriptionStatus.AwaitingForConfirmation;\n\n        emit PharmacySelected(_pharmacyAddress);\n        emit PrescriptionStatusUpdated(_prescriptionID, detail.status);\n    }\n\n    function acceptPrescription(string memory _prescriptionID) public onlyRegisteredPharmacies {\n        PrescriptionDetail storage detail = prescriptions[_prescriptionID];\n        require(detail.patient != address(0), \"Prescription does not exist\");\n        require(detail.status == PrescriptionStatus.AwaitingForConfirmation, \"Prescription is not in AwaitingForConfirmation status\");\n        require(msg.sender == prescriptionToPharmacy[_prescriptionID], \"Only the assigned pharmacy can accept this prescription\");\n\n        detail.status = PrescriptionStatus.Preparing;\n\n        emit PrescriptionAccepted(_prescriptionID, msg.sender);\n        emit PrescriptionStatusUpdated(_prescriptionID, detail.status);\n    }\n\n    function rejectPrescription(string memory _prescriptionID) public onlyRegisteredPharmacies {\n        PrescriptionDetail storage detail = prescriptions[_prescriptionID];\n        require(detail.patient != address(0), \"Prescription does not exist\");\n        require(detail.status == PrescriptionStatus.AwaitingForConfirmation, \"Prescription is not in AwaitingForConfirmation status\");\n        require(msg.sender == prescriptionToPharmacy[_prescriptionID], \"Only the assigned pharmacy can reject this prescription\");\n\n        detail.status = PrescriptionStatus.AwaitingPharmacyAssignment;\n        delete prescriptionToPharmacy[_prescriptionID];\n        hasPharmacySelected[_prescriptionID][msg.sender] = false;\n\n        emit PrescriptionRejected(_prescriptionID, msg.sender);\n        emit PrescriptionStatusUpdated(_prescriptionID, detail.status);\n    }\n\n    function medicationPreparation(string memory _prescriptionID) public onlyRegisteredPharmacies {\n        PrescriptionDetail storage detail = prescriptions[_prescriptionID];\n        require(detail.patient != address(0), \"Prescription does not exist\");\n        require(detail.status == PrescriptionStatus.Preparing, \"Prescription is not in Preparing status\");\n        require(msg.sender == prescriptionToPharmacy[_prescriptionID], \"Only the assigned pharmacy can prepare medication\");\n\n        detail.status = PrescriptionStatus.ReadyForCollection;\n\n        emit MedicationIsPrepared(_prescriptionID, msg.sender, detail.patient);\n        emit PrescriptionStatusUpdated(_prescriptionID, detail.status);\n    }\n\n    function medicationCollection(string memory _prescriptionID) public onlyRegisteredPharmacies {\n        PrescriptionDetail storage detail = prescriptions[_prescriptionID];\n        require(detail.patient != address(0), \"Prescription does not exist\");\n        require(detail.status == PrescriptionStatus.ReadyForCollection, \"Medication is not ready for collection\");\n        require(msg.sender == prescriptionToPharmacy[_prescriptionID], \"This pharmacy is not the selected pharmacy for this prescription\");\n\n        detail.status = PrescriptionStatus.Collected;\n\n        emit MedicationIsCollected(_prescriptionID, msg.sender);\n        emit PrescriptionStatusUpdated(_prescriptionID, detail.status);\n    }\n\n    function cancelPrescription(string memory _prescriptionID) public onlyCreator(_prescriptionID) {\n        PrescriptionDetail storage detail = prescriptions[_prescriptionID];\n        require(detail.patient != address(0), \"Prescription does not exist\");\n        require(detail.status == PrescriptionStatus.AwaitingPharmacyAssignment || detail.status == PrescriptionStatus.AwaitingForConfirmation, \"Prescription cannot be cancelled\");\n\n        detail.status = PrescriptionStatus.Cancelled;\n        emit PrescriptionCancelled(_prescriptionID, detail.patient);\n        emit PrescriptionStatusUpdated(_prescriptionID, detail.status);\n    }\n\n    function getAssignedPharmacy(string memory _prescriptionID) public view onlyAuthorized(_prescriptionID) returns (address) {\n        return prescriptionToPharmacy[_prescriptionID];\n    }\n}\n",
  "sourcePath": "/Users/butch/MSE/Capstone/ePrescription/truffle/contracts/Prescription.sol",
  "compiler": {
    "name": "solc",
    "version": "0.8.4+commit.c7e474f2.Emscripten.clang"
  },
  "schemaVersion": "3.4.16",
  "updatedAt": "2024-09-12T19:10:12.238Z",
  "networkType": "ethereum",
  "devdoc": {
    "kind": "dev",
    "methods": {},
    "version": 1
  },
  "userdoc": {
    "kind": "user",
    "methods": {},
    "version": 1
  }
}