{
  "contractName": "Prescription",
  "abi": [
    {
      "inputs": [
        {
          "internalType": "address",
          "name": "registrationSCAddress",
          "type": "address"
        }
      ],
      "stateMutability": "nonpayable",
      "type": "constructor"
    },
    {
      "anonymous": false,
      "inputs": [
        {
          "indexed": true,
          "internalType": "uint256",
          "name": "prescriptionID",
          "type": "uint256"
        },
        {
          "indexed": false,
          "internalType": "address",
          "name": "patient",
          "type": "address"
        }
      ],
      "name": "MedicationIsCollected",
      "type": "event"
    },
    {
      "anonymous": false,
      "inputs": [
        {
          "indexed": true,
          "internalType": "uint256",
          "name": "prescriptionID",
          "type": "uint256"
        },
        {
          "indexed": false,
          "internalType": "address",
          "name": "_pharmacy",
          "type": "address"
        },
        {
          "indexed": false,
          "internalType": "address",
          "name": "patient",
          "type": "address"
        }
      ],
      "name": "MedicationIsPrepared",
      "type": "event"
    },
    {
      "anonymous": false,
      "inputs": [
        {
          "indexed": true,
          "internalType": "address",
          "name": "_pharmacy",
          "type": "address"
        }
      ],
      "name": "PharmacySelected",
      "type": "event"
    },
    {
      "anonymous": false,
      "inputs": [
        {
          "indexed": true,
          "internalType": "uint256",
          "name": "prescriptionID",
          "type": "uint256"
        },
        {
          "indexed": false,
          "internalType": "address",
          "name": "_pharmacy",
          "type": "address"
        }
      ],
      "name": "PrescriptionAccepted",
      "type": "event"
    },
    {
      "anonymous": false,
      "inputs": [
        {
          "indexed": true,
          "internalType": "uint256",
          "name": "prescriptionID",
          "type": "uint256"
        },
        {
          "indexed": false,
          "internalType": "address",
          "name": "patient",
          "type": "address"
        }
      ],
      "name": "PrescriptionCancelled",
      "type": "event"
    },
    {
      "anonymous": false,
      "inputs": [
        {
          "indexed": true,
          "internalType": "uint256",
          "name": "prescriptionID",
          "type": "uint256"
        },
        {
          "indexed": true,
          "internalType": "address",
          "name": "physician",
          "type": "address"
        },
        {
          "indexed": true,
          "internalType": "address",
          "name": "patient",
          "type": "address"
        },
        {
          "indexed": false,
          "internalType": "string",
          "name": "IPFShash",
          "type": "string"
        }
      ],
      "name": "PrescriptionCreated",
      "type": "event"
    },
    {
      "anonymous": false,
      "inputs": [
        {
          "indexed": true,
          "internalType": "uint256",
          "name": "prescriptionID",
          "type": "uint256"
        },
        {
          "indexed": false,
          "internalType": "address",
          "name": "_pharmacy",
          "type": "address"
        }
      ],
      "name": "PrescriptionRejected",
      "type": "event"
    },
    {
      "anonymous": false,
      "inputs": [
        {
          "indexed": true,
          "internalType": "uint256",
          "name": "prescriptionID",
          "type": "uint256"
        },
        {
          "indexed": false,
          "internalType": "enum Prescription.PrescriptionStatus",
          "name": "newStatus",
          "type": "uint8"
        }
      ],
      "name": "PrescriptionStatusUpdated",
      "type": "event"
    },
    {
      "inputs": [
        {
          "internalType": "uint256",
          "name": "",
          "type": "uint256"
        },
        {
          "internalType": "address",
          "name": "",
          "type": "address"
        }
      ],
      "name": "hasPharmacySelected",
      "outputs": [
        {
          "internalType": "bool",
          "name": "",
          "type": "bool"
        }
      ],
      "stateMutability": "view",
      "type": "function",
      "constant": true
    },
    {
      "inputs": [
        {
          "internalType": "uint256",
          "name": "",
          "type": "uint256"
        }
      ],
      "name": "prescriptionToPharmacy",
      "outputs": [
        {
          "internalType": "address",
          "name": "",
          "type": "address"
        }
      ],
      "stateMutability": "view",
      "type": "function",
      "constant": true
    },
    {
      "inputs": [
        {
          "internalType": "uint256",
          "name": "",
          "type": "uint256"
        }
      ],
      "name": "prescriptions",
      "outputs": [
        {
          "internalType": "uint256",
          "name": "prescriptionID",
          "type": "uint256"
        },
        {
          "internalType": "address",
          "name": "patient",
          "type": "address"
        },
        {
          "internalType": "string",
          "name": "IPFShash",
          "type": "string"
        },
        {
          "internalType": "enum Prescription.PrescriptionStatus",
          "name": "status",
          "type": "uint8"
        },
        {
          "internalType": "address",
          "name": "physician",
          "type": "address"
        }
      ],
      "stateMutability": "view",
      "type": "function",
      "constant": true
    },
    {
      "inputs": [],
      "name": "reg_contract",
      "outputs": [
        {
          "internalType": "contract Registration",
          "name": "",
          "type": "address"
        }
      ],
      "stateMutability": "view",
      "type": "function",
      "constant": true
    },
    {
      "inputs": [
        {
          "internalType": "address",
          "name": "_patient",
          "type": "address"
        },
        {
          "internalType": "string",
          "name": "_IPFShash",
          "type": "string"
        }
      ],
      "name": "prescriptionCreation",
      "outputs": [
        {
          "internalType": "uint256",
          "name": "",
          "type": "uint256"
        }
      ],
      "stateMutability": "nonpayable",
      "type": "function"
    },
    {
      "inputs": [
        {
          "internalType": "uint256",
          "name": "_prescriptionID",
          "type": "uint256"
        }
      ],
      "name": "accessPrescription",
      "outputs": [
        {
          "internalType": "address",
          "name": "",
          "type": "address"
        },
        {
          "internalType": "string",
          "name": "",
          "type": "string"
        },
        {
          "internalType": "enum Prescription.PrescriptionStatus",
          "name": "",
          "type": "uint8"
        }
      ],
      "stateMutability": "view",
      "type": "function",
      "constant": true
    },
    {
      "inputs": [
        {
          "internalType": "uint256",
          "name": "_prescriptionID",
          "type": "uint256"
        },
        {
          "internalType": "address",
          "name": "_pharmacyAddress",
          "type": "address"
        }
      ],
      "name": "selectPharmacy",
      "outputs": [],
      "stateMutability": "nonpayable",
      "type": "function"
    },
    {
      "inputs": [
        {
          "internalType": "uint256",
          "name": "_prescriptionID",
          "type": "uint256"
        }
      ],
      "name": "acceptPrescription",
      "outputs": [],
      "stateMutability": "nonpayable",
      "type": "function"
    },
    {
      "inputs": [
        {
          "internalType": "uint256",
          "name": "_prescriptionID",
          "type": "uint256"
        }
      ],
      "name": "rejectPrescription",
      "outputs": [],
      "stateMutability": "nonpayable",
      "type": "function"
    },
    {
      "inputs": [
        {
          "internalType": "uint256",
          "name": "_prescriptionID",
          "type": "uint256"
        }
      ],
      "name": "medicationPreparation",
      "outputs": [],
      "stateMutability": "nonpayable",
      "type": "function"
    },
    {
      "inputs": [
        {
          "internalType": "uint256",
          "name": "_prescriptionID",
          "type": "uint256"
        }
      ],
      "name": "medicationCollection",
      "outputs": [],
      "stateMutability": "nonpayable",
      "type": "function"
    },
    {
      "inputs": [
        {
          "internalType": "uint256",
          "name": "_prescriptionID",
          "type": "uint256"
        }
      ],
      "name": "cancelPrescription",
      "outputs": [],
      "stateMutability": "nonpayable",
      "type": "function"
    },
    {
      "inputs": [
        {
          "internalType": "uint256",
          "name": "_prescriptionID",
          "type": "uint256"
        }
      ],
      "name": "getAssignedPharmacy",
      "outputs": [
        {
          "internalType": "address",
          "name": "",
          "type": "address"
        }
      ],
      "stateMutability": "view",
      "type": "function",
      "constant": true
    }
  ],
  "bytecode": "0x60806040523480156200001157600080fd5b5060405162003d2a38038062003d2a83398181016040528101906200003791906200009c565b806000806101000a81548173ffffffffffffffffffffffffffffffffffffffff021916908373ffffffffffffffffffffffffffffffffffffffff160217905550600180819055505062000116565b6000815190506200009681620000fc565b92915050565b600060208284031215620000af57600080fd5b6000620000bf8482850162000085565b91505092915050565b6000620000d582620000dc565b9050919050565b600073ffffffffffffffffffffffffffffffffffffffff82169050919050565b6200010781620000c8565b81146200011357600080fd5b50565b613c0480620001266000396000f3fe608060405234801561001057600080fd5b50600436106100cf5760003560e01c8063585d089e1161008c578063a4fd673e11610066578063a4fd673e14610228578063bc9d2f8b14610244578063c21bcb9d14610260578063e442e68a14610290576100cf565b8063585d089e146101ac57806373162d5b146101c85780639591f45b146101f8576100cf565b8063093d0602146100d4578063173b0e10146100f057806331dfc91b1461010e5780634de7b41414610142578063530c62fe1461015e57806357a48c5a14610190575b600080fd5b6100ee60048036038101906100e99190612cfe565b6102c0565b005b6100f86106b6565b60405161010591906130d7565b60405180910390f35b61012860048036038101906101239190612cfe565b6106da565b60405161013995949392919061336a565b60405180910390f35b61015c60048036038101906101579190612cfe565b6107e5565b005b61017860048036038101906101739190612cfe565b610d42565b6040516101879392919061307e565b60405180910390f35b6101aa60048036038101906101a59190612cfe565b6112d5565b005b6101c660048036038101906101c19190612cfe565b611744565b005b6101e260048036038101906101dd9190612c81565b611b14565b6040516101ef919061334f565b60405180910390f35b610212600480360381019061020d9190612cfe565b611e3d565b60405161021f919061303a565b60405180910390f35b610242600480360381019061023d9190612cfe565b612185565b005b61025e60048036038101906102599190612d27565b612555565b005b61027a60048036038101906102759190612d27565b612ad5565b60405161028791906130bc565b60405180910390f35b6102aa60048036038101906102a59190612cfe565b612b04565b6040516102b7919061303a565b60405180910390f35b60008054906101000a900473ffffffffffffffffffffffffffffffffffffffff1673ffffffffffffffffffffffffffffffffffffffff1663b58d520a336040518263ffffffff1660e01b8152600401610319919061303a565b60206040518083038186803b15801561033157600080fd5b505afa158015610345573d6000803e3d6000fd5b505050506040513d601f19601f820116820180604052508101906103699190612cd5565b6103a8576040517f08c379a000000000000000000000000000000000000000000000000000000000815260040161039f9061330f565b60405180910390fd5b6000600360008381526020019081526020016000209050600073ffffffffffffffffffffffffffffffffffffffff168160010160009054906101000a900473ffffffffffffffffffffffffffffffffffffffff1673ffffffffffffffffffffffffffffffffffffffff161415610453576040517f08c379a000000000000000000000000000000000000000000000000000000000815260040161044a906132cf565b60405180910390fd5b6002600581111561048d577f4e487b7100000000000000000000000000000000000000000000000000000000600052602160045260246000fd5b8160030160009054906101000a900460ff1660058111156104d7577f4e487b7100000000000000000000000000000000000000000000000000000000600052602160045260246000fd5b14610517576040517f08c379a000000000000000000000000000000000000000000000000000000000815260040161050e9061326f565b60405180910390fd5b6004600083815260200190815260200160002060009054906101000a900473ffffffffffffffffffffffffffffffffffffffff1673ffffffffffffffffffffffffffffffffffffffff163373ffffffffffffffffffffffffffffffffffffffff16146105b8576040517f08c379a00000000000000000000000000000000000000000000000000000000081526004016105af9061314f565b60405180910390fd5b60038160030160006101000a81548160ff02191690836005811115610606577f4e487b7100000000000000000000000000000000000000000000000000000000600052602160045260246000fd5b0217905550817f5d3180d33faa9b9d24cabb97d1a072d0a981e14811bfb4450f9dab27278a3890338360010160009054906101000a900473ffffffffffffffffffffffffffffffffffffffff16604051610661929190613055565b60405180910390a2817fd48b77015fb03969c3185a01dab29f6df2c4a95942f3a0620358464589e357b98260030160009054906101000a900460ff166040516106aa91906130f2565b60405180910390a25050565b60008054906101000a900473ffffffffffffffffffffffffffffffffffffffff1681565b60036020528060005260406000206000915090508060000154908060010160009054906101000a900473ffffffffffffffffffffffffffffffffffffffff169080600201805461072990613509565b80601f016020809104026020016040519081016040528092919081815260200182805461075590613509565b80156107a25780601f10610777576101008083540402835291602001916107a2565b820191906000526020600020905b81548152906001019060200180831161078557829003601f168201915b5050505050908060030160009054906101000a900460ff16908060030160019054906101000a900473ffffffffffffffffffffffffffffffffffffffff16905085565b806000600360008381526020019081526020016000206040518060a0016040529081600082015481526020016001820160009054906101000a900473ffffffffffffffffffffffffffffffffffffffff1673ffffffffffffffffffffffffffffffffffffffff1673ffffffffffffffffffffffffffffffffffffffff16815260200160028201805461087690613509565b80601f01602080910402602001604051908101604052809291908181526020018280546108a290613509565b80156108ef5780601f106108c4576101008083540402835291602001916108ef565b820191906000526020600020905b8154815290600101906020018083116108d257829003601f168201915b505050505081526020016003820160009054906101000a900460ff166005811115610943577f4e487b7100000000000000000000000000000000000000000000000000000000600052602160045260246000fd5b600581111561097b577f4e487b7100000000000000000000000000000000000000000000000000000000600052602160045260246000fd5b81526020016003820160019054906101000a900473ffffffffffffffffffffffffffffffffffffffff1673ffffffffffffffffffffffffffffffffffffffff1673ffffffffffffffffffffffffffffffffffffffff16815250509050806080015173ffffffffffffffffffffffffffffffffffffffff163373ffffffffffffffffffffffffffffffffffffffff1614610a49576040517f08c379a0000000000000000000000000000000000000000000000000000000008152600401610a409061316f565b60405180910390fd5b6000600360008581526020019081526020016000209050600073ffffffffffffffffffffffffffffffffffffffff168160010160009054906101000a900473ffffffffffffffffffffffffffffffffffffffff1673ffffffffffffffffffffffffffffffffffffffff161415610af4576040517f08c379a0000000000000000000000000000000000000000000000000000000008152600401610aeb906132cf565b60405180910390fd5b60006005811115610b2e577f4e487b7100000000000000000000000000000000000000000000000000000000600052602160045260246000fd5b8160030160009054906101000a900460ff166005811115610b78577f4e487b7100000000000000000000000000000000000000000000000000000000600052602160045260246000fd5b1480610c05575060016005811115610bb9577f4e487b7100000000000000000000000000000000000000000000000000000000600052602160045260246000fd5b8160030160009054906101000a900460ff166005811115610c03577f4e487b7100000000000000000000000000000000000000000000000000000000600052602160045260246000fd5b145b610c44576040517f08c379a0000000000000000000000000000000000000000000000000000000008152600401610c3b906131af565b60405180910390fd5b60058160030160006101000a81548160ff02191690836005811115610c92577f4e487b7100000000000000000000000000000000000000000000000000000000600052602160045260246000fd5b0217905550837f17abc66cc2306acecee0dfe95895d2f7dca801ee3d89c6cbf0caf27ba34788a58260010160009054906101000a900473ffffffffffffffffffffffffffffffffffffffff16604051610ceb919061303a565b60405180910390a2837fd48b77015fb03969c3185a01dab29f6df2c4a95942f3a0620358464589e357b98260030160009054906101000a900460ff16604051610d3491906130f2565b60405180910390a250505050565b600060606000836000600360008381526020019081526020016000206040518060a0016040529081600082015481526020016001820160009054906101000a900473ffffffffffffffffffffffffffffffffffffffff1673ffffffffffffffffffffffffffffffffffffffff1673ffffffffffffffffffffffffffffffffffffffff168152602001600282018054610dd990613509565b80601f0160208091040260200160405190810160405280929190818152602001828054610e0590613509565b8015610e525780601f10610e2757610100808354040283529160200191610e52565b820191906000526020600020905b815481529060010190602001808311610e3557829003601f168201915b505050505081526020016003820160009054906101000a900460ff166005811115610ea6577f4e487b7100000000000000000000000000000000000000000000000000000000600052602160045260246000fd5b6005811115610ede577f4e487b7100000000000000000000000000000000000000000000000000000000600052602160045260246000fd5b81526020016003820160019054906101000a900473ffffffffffffffffffffffffffffffffffffffff1673ffffffffffffffffffffffffffffffffffffffff1673ffffffffffffffffffffffffffffffffffffffff1681525050905060006002600084815260200190815260200160002060003373ffffffffffffffffffffffffffffffffffffffff1673ffffffffffffffffffffffffffffffffffffffff16815260200190815260200160002060009054906101000a900460ff169050816080015173ffffffffffffffffffffffffffffffffffffffff163373ffffffffffffffffffffffffffffffffffffffff1614806110095750816020015173ffffffffffffffffffffffffffffffffffffffff163373ffffffffffffffffffffffffffffffffffffffff16145b806110115750805b611050576040517f08c379a00000000000000000000000000000000000000000000000000000000081526004016110479061322f565b60405180910390fd5b6000600360008981526020019081526020016000206040518060a0016040529081600082015481526020016001820160009054906101000a900473ffffffffffffffffffffffffffffffffffffffff1673ffffffffffffffffffffffffffffffffffffffff1673ffffffffffffffffffffffffffffffffffffffff1681526020016002820180546110e090613509565b80601f016020809104026020016040519081016040528092919081815260200182805461110c90613509565b80156111595780601f1061112e57610100808354040283529160200191611159565b820191906000526020600020905b81548152906001019060200180831161113c57829003601f168201915b505050505081526020016003820160009054906101000a900460ff1660058111156111ad577f4e487b7100000000000000000000000000000000000000000000000000000000600052602160045260246000fd5b60058111156111e5577f4e487b7100000000000000000000000000000000000000000000000000000000600052602160045260246000fd5b81526020016003820160019054906101000a900473ffffffffffffffffffffffffffffffffffffffff1673ffffffffffffffffffffffffffffffffffffffff1673ffffffffffffffffffffffffffffffffffffffff16815250509050600073ffffffffffffffffffffffffffffffffffffffff16816020015173ffffffffffffffffffffffffffffffffffffffff1614156112b5576040517f08c379a00000000000000000000000000000000000000000000000000000000081526004016112ac906132cf565b60405180910390fd5b806020015181604001518260600151965096509650505050509193909250565b60008054906101000a900473ffffffffffffffffffffffffffffffffffffffff1673ffffffffffffffffffffffffffffffffffffffff1663b58d520a336040518263ffffffff1660e01b815260040161132e919061303a565b60206040518083038186803b15801561134657600080fd5b505afa15801561135a573d6000803e3d6000fd5b505050506040513d601f19601f8201168201806040525081019061137e9190612cd5565b6113bd576040517f08c379a00000000000000000000000000000000000000000000000000000000081526004016113b49061330f565b60405180910390fd5b6000600360008381526020019081526020016000209050600073ffffffffffffffffffffffffffffffffffffffff168160010160009054906101000a900473ffffffffffffffffffffffffffffffffffffffff1673ffffffffffffffffffffffffffffffffffffffff161415611468576040517f08c379a000000000000000000000000000000000000000000000000000000000815260040161145f906132cf565b60405180910390fd5b600160058111156114a2577f4e487b7100000000000000000000000000000000000000000000000000000000600052602160045260246000fd5b8160030160009054906101000a900460ff1660058111156114ec577f4e487b7100000000000000000000000000000000000000000000000000000000600052602160045260246000fd5b1461152c576040517f08c379a00000000000000000000000000000000000000000000000000000000081526004016115239061318f565b60405180910390fd5b6004600083815260200190815260200160002060009054906101000a900473ffffffffffffffffffffffffffffffffffffffff1673ffffffffffffffffffffffffffffffffffffffff163373ffffffffffffffffffffffffffffffffffffffff16146115cd576040517f08c379a00000000000000000000000000000000000000000000000000000000081526004016115c4906132af565b60405180910390fd5b60008160030160006101000a81548160ff0219169083600581111561161b577f4e487b7100000000000000000000000000000000000000000000000000000000600052602160045260246000fd5b02179055506004600083815260200190815260200160002060006101000a81549073ffffffffffffffffffffffffffffffffffffffff021916905560006002600084815260200190815260200160002060003373ffffffffffffffffffffffffffffffffffffffff1673ffffffffffffffffffffffffffffffffffffffff16815260200190815260200160002060006101000a81548160ff021916908315150217905550817f545c41bb7daa059a9838aa9632876baf65f4202922a3db4a0b3644704031dc12336040516116ef919061303a565b60405180910390a2817fd48b77015fb03969c3185a01dab29f6df2c4a95942f3a0620358464589e357b98260030160009054906101000a900460ff1660405161173891906130f2565b60405180910390a25050565b60008054906101000a900473ffffffffffffffffffffffffffffffffffffffff1673ffffffffffffffffffffffffffffffffffffffff1663b58d520a336040518263ffffffff1660e01b815260040161179d919061303a565b60206040518083038186803b1580156117b557600080fd5b505afa1580156117c9573d6000803e3d6000fd5b505050506040513d601f19601f820116820180604052508101906117ed9190612cd5565b61182c576040517f08c379a00000000000000000000000000000000000000000000000000000000081526004016118239061330f565b60405180910390fd5b6000600360008381526020019081526020016000209050600073ffffffffffffffffffffffffffffffffffffffff168160010160009054906101000a900473ffffffffffffffffffffffffffffffffffffffff1673ffffffffffffffffffffffffffffffffffffffff1614156118d7576040517f08c379a00000000000000000000000000000000000000000000000000000000081526004016118ce906132cf565b60405180910390fd5b60036005811115611911577f4e487b7100000000000000000000000000000000000000000000000000000000600052602160045260246000fd5b8160030160009054906101000a900460ff16600581111561195b577f4e487b7100000000000000000000000000000000000000000000000000000000600052602160045260246000fd5b1461199b576040517f08c379a00000000000000000000000000000000000000000000000000000000081526004016119929061312f565b60405180910390fd5b6004600083815260200190815260200160002060009054906101000a900473ffffffffffffffffffffffffffffffffffffffff1673ffffffffffffffffffffffffffffffffffffffff163373ffffffffffffffffffffffffffffffffffffffff1614611a3c576040517f08c379a0000000000000000000000000000000000000000000000000000000008152600401611a33906131cf565b60405180910390fd5b60048160030160006101000a81548160ff02191690836005811115611a8a577f4e487b7100000000000000000000000000000000000000000000000000000000600052602160045260246000fd5b0217905550817f21e79ec9d652764dedc8425dfe9208cc3f2e2cc9b98df2b3f6ff201c2af1d59333604051611abf919061303a565b60405180910390a2817fd48b77015fb03969c3185a01dab29f6df2c4a95942f3a0620358464589e357b98260030160009054906101000a900460ff16604051611b0891906130f2565b60405180910390a25050565b60008060009054906101000a900473ffffffffffffffffffffffffffffffffffffffff1673ffffffffffffffffffffffffffffffffffffffff166372c8e330336040518263ffffffff1660e01b8152600401611b70919061303a565b60206040518083038186803b158015611b8857600080fd5b505afa158015611b9c573d6000803e3d6000fd5b505050506040513d601f19601f82011682018060405250810190611bc09190612cd5565b611bff576040517f08c379a0000000000000000000000000000000000000000000000000000000008152600401611bf69061320f565b60405180910390fd5b600060016000815480929190611c149061356c565b91905055905060006040518060a001604052808381526020018673ffffffffffffffffffffffffffffffffffffffff16815260200185815260200160006005811115611c89577f4e487b7100000000000000000000000000000000000000000000000000000000600052602160045260246000fd5b81526020013373ffffffffffffffffffffffffffffffffffffffff16815250905080600360008481526020019081526020016000206000820151816000015560208201518160010160006101000a81548173ffffffffffffffffffffffffffffffffffffffff021916908373ffffffffffffffffffffffffffffffffffffffff1602179055506040820151816002019080519060200190611d2b929190612b37565b5060608201518160030160006101000a81548160ff02191690836005811115611d7d577f4e487b7100000000000000000000000000000000000000000000000000000000600052602160045260246000fd5b021790555060808201518160030160016101000a81548173ffffffffffffffffffffffffffffffffffffffff021916908373ffffffffffffffffffffffffffffffffffffffff1602179055509050508473ffffffffffffffffffffffffffffffffffffffff163373ffffffffffffffffffffffffffffffffffffffff16837f435273682f19c830bb3fd3d1ed1aefb672214b65429f7d507afa24c6f9f18ad587604051611e2a919061310d565b60405180910390a4819250505092915050565b6000816000600360008381526020019081526020016000206040518060a0016040529081600082015481526020016001820160009054906101000a900473ffffffffffffffffffffffffffffffffffffffff1673ffffffffffffffffffffffffffffffffffffffff1673ffffffffffffffffffffffffffffffffffffffff168152602001600282018054611ed090613509565b80601f0160208091040260200160405190810160405280929190818152602001828054611efc90613509565b8015611f495780601f10611f1e57610100808354040283529160200191611f49565b820191906000526020600020905b815481529060010190602001808311611f2c57829003601f168201915b505050505081526020016003820160009054906101000a900460ff166005811115611f9d577f4e487b7100000000000000000000000000000000000000000000000000000000600052602160045260246000fd5b6005811115611fd5577f4e487b7100000000000000000000000000000000000000000000000000000000600052602160045260246000fd5b81526020016003820160019054906101000a900473ffffffffffffffffffffffffffffffffffffffff1673ffffffffffffffffffffffffffffffffffffffff1673ffffffffffffffffffffffffffffffffffffffff1681525050905060006002600084815260200190815260200160002060003373ffffffffffffffffffffffffffffffffffffffff1673ffffffffffffffffffffffffffffffffffffffff16815260200190815260200160002060009054906101000a900460ff169050816080015173ffffffffffffffffffffffffffffffffffffffff163373ffffffffffffffffffffffffffffffffffffffff1614806121005750816020015173ffffffffffffffffffffffffffffffffffffffff163373ffffffffffffffffffffffffffffffffffffffff16145b806121085750805b612147576040517f08c379a000000000000000000000000000000000000000000000000000000000815260040161213e9061322f565b60405180910390fd5b6004600086815260200190815260200160002060009054906101000a900473ffffffffffffffffffffffffffffffffffffffff169350505050919050565b60008054906101000a900473ffffffffffffffffffffffffffffffffffffffff1673ffffffffffffffffffffffffffffffffffffffff1663b58d520a336040518263ffffffff1660e01b81526004016121de919061303a565b60206040518083038186803b1580156121f657600080fd5b505afa15801561220a573d6000803e3d6000fd5b505050506040513d601f19601f8201168201806040525081019061222e9190612cd5565b61226d576040517f08c379a00000000000000000000000000000000000000000000000000000000081526004016122649061330f565b60405180910390fd5b6000600360008381526020019081526020016000209050600073ffffffffffffffffffffffffffffffffffffffff168160010160009054906101000a900473ffffffffffffffffffffffffffffffffffffffff1673ffffffffffffffffffffffffffffffffffffffff161415612318576040517f08c379a000000000000000000000000000000000000000000000000000000000815260040161230f906132cf565b60405180910390fd5b60016005811115612352577f4e487b7100000000000000000000000000000000000000000000000000000000600052602160045260246000fd5b8160030160009054906101000a900460ff16600581111561239c577f4e487b7100000000000000000000000000000000000000000000000000000000600052602160045260246000fd5b146123dc576040517f08c379a00000000000000000000000000000000000000000000000000000000081526004016123d39061318f565b60405180910390fd5b6004600083815260200190815260200160002060009054906101000a900473ffffffffffffffffffffffffffffffffffffffff1673ffffffffffffffffffffffffffffffffffffffff163373ffffffffffffffffffffffffffffffffffffffff161461247d576040517f08c379a00000000000000000000000000000000000000000000000000000000081526004016124749061324f565b60405180910390fd5b60028160030160006101000a81548160ff021916908360058111156124cb577f4e487b7100000000000000000000000000000000000000000000000000000000600052602160045260246000fd5b0217905550817fde00084ab0cfbed100269c33cd062c3e925f6d8867dd7c9bd62b795c2ebbd67033604051612500919061303a565b60405180910390a2817fd48b77015fb03969c3185a01dab29f6df2c4a95942f3a0620358464589e357b98260030160009054906101000a900460ff1660405161254991906130f2565b60405180910390a25050565b60008054906101000a900473ffffffffffffffffffffffffffffffffffffffff1673ffffffffffffffffffffffffffffffffffffffff1663b58d520a826040518263ffffffff1660e01b81526004016125ae919061303a565b60206040518083038186803b1580156125c657600080fd5b505afa1580156125da573d6000803e3d6000fd5b505050506040513d601f19601f820116820180604052508101906125fe9190612cd5565b61263d576040517f08c379a00000000000000000000000000000000000000000000000000000000081526004016126349061328f565b60405180910390fd5b6000600360008481526020019081526020016000209050600073ffffffffffffffffffffffffffffffffffffffff168160010160009054906101000a900473ffffffffffffffffffffffffffffffffffffffff1673ffffffffffffffffffffffffffffffffffffffff1614156126e8576040517f08c379a00000000000000000000000000000000000000000000000000000000081526004016126df906132cf565b60405180910390fd5b60006005811115612722577f4e487b7100000000000000000000000000000000000000000000000000000000600052602160045260246000fd5b8160030160009054906101000a900460ff16600581111561276c577f4e487b7100000000000000000000000000000000000000000000000000000000600052602160045260246000fd5b146127ac576040517f08c379a00000000000000000000000000000000000000000000000000000000081526004016127a39061332f565b60405180910390fd5b8060010160009054906101000a900473ffffffffffffffffffffffffffffffffffffffff1673ffffffffffffffffffffffffffffffffffffffff163373ffffffffffffffffffffffffffffffffffffffff16148061285957508060030160019054906101000a900473ffffffffffffffffffffffffffffffffffffffff1673ffffffffffffffffffffffffffffffffffffffff163373ffffffffffffffffffffffffffffffffffffffff16145b612898576040517f08c379a000000000000000000000000000000000000000000000000000000000815260040161288f906132ef565b60405180910390fd5b6002600084815260200190815260200160002060008373ffffffffffffffffffffffffffffffffffffffff1673ffffffffffffffffffffffffffffffffffffffff16815260200190815260200160002060009054906101000a900460ff1615612936576040517f08c379a000000000000000000000000000000000000000000000000000000000815260040161292d906131ef565b60405180910390fd5b60016002600085815260200190815260200160002060008473ffffffffffffffffffffffffffffffffffffffff1673ffffffffffffffffffffffffffffffffffffffff16815260200190815260200160002060006101000a81548160ff021916908315150217905550816004600085815260200190815260200160002060006101000a81548173ffffffffffffffffffffffffffffffffffffffff021916908373ffffffffffffffffffffffffffffffffffffffff16021790555060018160030160006101000a81548160ff02191690836005811115612a3f577f4e487b7100000000000000000000000000000000000000000000000000000000600052602160045260246000fd5b02179055508173ffffffffffffffffffffffffffffffffffffffff167f98aea3a5d98dfc35b93239c319c83a1dfd6515686e1318d1c9e45bab8a471a3d60405160405180910390a2827fd48b77015fb03969c3185a01dab29f6df2c4a95942f3a0620358464589e357b98260030160009054906101000a900460ff16604051612ac891906130f2565b60405180910390a2505050565b60026020528160005260406000206020528060005260406000206000915091509054906101000a900460ff1681565b60046020528060005260406000206000915054906101000a900473ffffffffffffffffffffffffffffffffffffffff1681565b828054612b4390613509565b90600052602060002090601f016020900481019282612b655760008555612bac565b82601f10612b7e57805160ff1916838001178555612bac565b82800160010185558215612bac579182015b82811115612bab578251825591602001919060010190612b90565b5b509050612bb99190612bbd565b5090565b5b80821115612bd6576000816000905550600101612bbe565b5090565b6000612bed612be8846133e9565b6133c4565b905082815260208101848484011115612c0557600080fd5b612c108482856134c7565b509392505050565b600081359050612c2781613b89565b92915050565b600081519050612c3c81613ba0565b92915050565b600082601f830112612c5357600080fd5b8135612c63848260208601612bda565b91505092915050565b600081359050612c7b81613bb7565b92915050565b60008060408385031215612c9457600080fd5b6000612ca285828601612c18565b925050602083013567ffffffffffffffff811115612cbf57600080fd5b612ccb85828601612c42565b9150509250929050565b600060208284031215612ce757600080fd5b6000612cf584828501612c2d565b91505092915050565b600060208284031215612d1057600080fd5b6000612d1e84828501612c6c565b91505092915050565b60008060408385031215612d3a57600080fd5b6000612d4885828601612c6c565b9250506020612d5985828601612c18565b9150509250929050565b612d6c81613436565b82525050565b612d7b81613448565b82525050565b612d8a81613491565b82525050565b612d99816134b5565b82525050565b6000612daa8261341a565b612db48185613425565b9350612dc48185602086016134d6565b612dcd81613671565b840191505092915050565b6000612de5602683613425565b9150612df082613682565b604082019050919050565b6000612e08603183613425565b9150612e13826136d1565b604082019050919050565b6000612e2b603e83613425565b9150612e3682613720565b604082019050919050565b6000612e4e603583613425565b9150612e598261376f565b604082019050919050565b6000612e71602083613425565b9150612e7c826137be565b602082019050919050565b6000612e94604083613425565b9150612e9f826137e7565b604082019050919050565b6000612eb7603d83613425565b9150612ec282613836565b604082019050919050565b6000612eda603683613425565b9150612ee582613885565b604082019050919050565b6000612efd601383613425565b9150612f08826138d4565b602082019050919050565b6000612f20603783613425565b9150612f2b826138fd565b604082019050919050565b6000612f43602783613425565b9150612f4e8261394c565b604082019050919050565b6000612f66602a83613425565b9150612f718261399b565b604082019050919050565b6000612f89603783613425565b9150612f94826139ea565b604082019050919050565b6000612fac601b83613425565b9150612fb782613a39565b602082019050919050565b6000612fcf604383613425565b9150612fda82613a62565b606082019050919050565b6000612ff2603083613425565b9150612ffd82613ad7565b604082019050919050565b6000613015603d83613425565b915061302082613b26565b604082019050919050565b61303481613487565b82525050565b600060208201905061304f6000830184612d63565b92915050565b600060408201905061306a6000830185612d63565b6130776020830184612d63565b9392505050565b60006060820190506130936000830186612d63565b81810360208301526130a58185612d9f565b90506130b46040830184612d90565b949350505050565b60006020820190506130d16000830184612d72565b92915050565b60006020820190506130ec6000830184612d81565b92915050565b60006020820190506131076000830184612d90565b92915050565b600060208201905081810360008301526131278184612d9f565b905092915050565b6000602082019050818103600083015261314881612dd8565b9050919050565b6000602082019050818103600083015261316881612dfb565b9050919050565b6000602082019050818103600083015261318881612e1e565b9050919050565b600060208201905081810360008301526131a881612e41565b9050919050565b600060208201905081810360008301526131c881612e64565b9050919050565b600060208201905081810360008301526131e881612e87565b9050919050565b6000602082019050818103600083015261320881612eaa565b9050919050565b6000602082019050818103600083015261322881612ecd565b9050919050565b6000602082019050818103600083015261324881612ef0565b9050919050565b6000602082019050818103600083015261326881612f13565b9050919050565b6000602082019050818103600083015261328881612f36565b9050919050565b600060208201905081810360008301526132a881612f59565b9050919050565b600060208201905081810360008301526132c881612f7c565b9050919050565b600060208201905081810360008301526132e881612f9f565b9050919050565b6000602082019050818103600083015261330881612fc2565b9050919050565b6000602082019050818103600083015261332881612fe5565b9050919050565b6000602082019050818103600083015261334881613008565b9050919050565b6000602082019050613364600083018461302b565b92915050565b600060a08201905061337f600083018861302b565b61338c6020830187612d63565b818103604083015261339e8186612d9f565b90506133ad6060830185612d90565b6133ba6080830184612d63565b9695505050505050565b60006133ce6133df565b90506133da828261353b565b919050565b6000604051905090565b600067ffffffffffffffff82111561340457613403613642565b5b61340d82613671565b9050602081019050919050565b600081519050919050565b600082825260208201905092915050565b600061344182613467565b9050919050565b60008115159050919050565b600081905061346282613b75565b919050565b600073ffffffffffffffffffffffffffffffffffffffff82169050919050565b6000819050919050565b600061349c826134a3565b9050919050565b60006134ae82613467565b9050919050565b60006134c082613454565b9050919050565b82818337600083830152505050565b60005b838110156134f45780820151818401526020810190506134d9565b83811115613503576000848401525b50505050565b6000600282049050600182168061352157607f821691505b6020821081141561353557613534613613565b5b50919050565b61354482613671565b810181811067ffffffffffffffff8211171561356357613562613642565b5b80604052505050565b600061357782613487565b91507fffffffffffffffffffffffffffffffffffffffffffffffffffffffffffffffff8214156135aa576135a96135b5565b5b600182019050919050565b7f4e487b7100000000000000000000000000000000000000000000000000000000600052601160045260246000fd5b7f4e487b7100000000000000000000000000000000000000000000000000000000600052602160045260246000fd5b7f4e487b7100000000000000000000000000000000000000000000000000000000600052602260045260246000fd5b7f4e487b7100000000000000000000000000000000000000000000000000000000600052604160045260246000fd5b6000601f19601f8301169050919050565b7f4d656469636174696f6e206973206e6f7420726561647920666f7220636f6c6c60008201527f656374696f6e0000000000000000000000000000000000000000000000000000602082015250565b7f4f6e6c79207468652061737369676e656420706861726d6163792063616e207060008201527f726570617265206d656469636174696f6e000000000000000000000000000000602082015250565b7f4f6e6c79207468652070687973696369616e2077686f2063726561746564207460008201527f68697320707265736372697074696f6e2063616e206163636573732069740000602082015250565b7f507265736372697074696f6e206973206e6f7420696e204177616974696e674660008201527f6f72436f6e6669726d6174696f6e207374617475730000000000000000000000602082015250565b7f507265736372697074696f6e2063616e6e6f742062652063616e63656c6c6564600082015250565b7f5468697320706861726d616379206973206e6f74207468652073656c6563746560008201527f6420706861726d61637920666f72207468697320707265736372697074696f6e602082015250565b7f5468697320706861726d6163792068617320616c7265616479206265656e207360008201527f656c656374656420666f72207468697320707265736372697074696f6e000000602082015250565b7f4f6e6c79207468652050687973696369616e20697320616c6c6f77656420746f60008201527f206578656375746520746869732066756e6374696f6e00000000000000000000602082015250565b7f556e617574686f72697a65642061636365737300000000000000000000000000600082015250565b7f4f6e6c79207468652061737369676e656420706861726d6163792063616e206160008201527f6363657074207468697320707265736372697074696f6e000000000000000000602082015250565b7f507265736372697074696f6e206973206e6f7420696e20507265706172696e6760008201527f2073746174757300000000000000000000000000000000000000000000000000602082015250565b7f4f6e6c79207265676973746572656420706861726d61636965732063616e206260008201527f652073656c656374656400000000000000000000000000000000000000000000602082015250565b7f4f6e6c79207468652061737369676e656420706861726d6163792063616e207260008201527f656a656374207468697320707265736372697074696f6e000000000000000000602082015250565b7f507265736372697074696f6e20646f6573206e6f742065786973740000000000600082015250565b7f4f6e6c79207468652070617469656e74206f722074686520707265736372696260008201527f696e672070687973696369616e2063616e2073656c656374206120706861726d60208201527f6163790000000000000000000000000000000000000000000000000000000000604082015250565b7f4f6e6c792061207265676973746572656420506861726d6163792063616e207260008201527f756e20746869732066756e6374696f6e00000000000000000000000000000000602082015250565b7f507265736372697074696f6e206973206e6f7420696e2061207374617465207460008201527f68617420616c6c6f777320706861726d6163792073656c656374696f6e000000602082015250565b60068110613b8657613b856135e4565b5b50565b613b9281613436565b8114613b9d57600080fd5b50565b613ba981613448565b8114613bb457600080fd5b50565b613bc081613487565b8114613bcb57600080fd5b5056fea264697066735822122022278e89b8065aaefb20d0bf5f1cc7d62a4ac5d18b97a2cc3c6c2a7e15fc337764736f6c63430008040033",
  "immutableReferences": {},
  "source": "// SPDX-License-Identifier: MIT\npragma solidity ^0.8.4;\n\nimport \"./Registration.sol\";\n\ncontract Prescription {\n\n    // State Variables\n    Registration public reg_contract;\n    uint256 private prescriptionCounter;\n\n    // Structs\n    struct PrescriptionDetail {\n        uint256 prescriptionID;\n        address patient;\n        string IPFShash;\n        PrescriptionStatus status;\n        address physician;\n    }\n\n    // Mappings\n    mapping(uint256 => mapping(address => bool)) public hasPharmacySelected; \n    mapping(uint256 => PrescriptionDetail) public prescriptions;\n    mapping(uint256 => address) public prescriptionToPharmacy;\n\n    // Enums\n    enum PrescriptionStatus { AwaitingPharmacyAssignment, AwaitingForConfirmation, Preparing, ReadyForCollection, Collected, Cancelled }\n\n    // Events\n    event PharmacySelected(address indexed _pharmacy);\n    event PrescriptionCreated(\n        uint256 indexed prescriptionID,\n        address indexed physician,\n        address indexed patient,\n        string IPFShash\n    );\n    event PrescriptionAccepted(uint256 indexed prescriptionID, address _pharmacy);\n    event PrescriptionRejected(uint256 indexed prescriptionID, address _pharmacy);\n    event MedicationIsPrepared(uint256 indexed prescriptionID, address _pharmacy, address patient);\n    event MedicationIsCollected(uint256 indexed prescriptionID, address patient);\n    event PrescriptionCancelled(uint256 indexed prescriptionID, address patient);\n    event PrescriptionStatusUpdated(uint256 indexed prescriptionID, PrescriptionStatus newStatus);\n\n    // Modifiers\n    modifier onlyPhysician() {\n        require(reg_contract.Physician(msg.sender), \"Only the Physician is allowed to execute this function\");\n        _;\n    }\n\n    modifier onlyPatients() {\n        require(reg_contract.Patient(msg.sender), \"Only the patient is allowed to execute this function\");\n        _;\n    }\n\n    modifier onlyRegisteredPharmacies() {\n        require(reg_contract.Pharmacy(msg.sender), \"Only a registered Pharmacy can run this function\");\n        _;\n    }\n\n    modifier onlyAuthorized(uint256 _prescriptionID) {\n        PrescriptionDetail memory detail = prescriptions[_prescriptionID];\n        bool isPharmacy = hasPharmacySelected[_prescriptionID][msg.sender];\n        \n        require(\n            msg.sender == detail.physician || \n            msg.sender == detail.patient || \n            isPharmacy,\n            \"Unauthorized access\"\n        );\n        _;\n    }\n\n    modifier onlyCreator(uint256 _prescriptionID) {\n        PrescriptionDetail memory detail = prescriptions[_prescriptionID];\n        require(msg.sender == detail.physician, \"Only the physician who created this prescription can access it\");\n        _;\n    }\n\n    // Constructor\n    constructor(address registrationSCAddress) {\n        reg_contract = Registration(registrationSCAddress);\n        prescriptionCounter = 1;\n    }\n\n    // Functions\n    function prescriptionCreation(\n        address _patient,\n        string memory _IPFShash\n    ) public onlyPhysician returns (uint256) {\n        uint256 prescriptionID = prescriptionCounter++;\n        PrescriptionDetail memory detail = PrescriptionDetail({\n            prescriptionID: prescriptionID,\n            patient: _patient,\n            IPFShash: _IPFShash,\n            status: PrescriptionStatus.AwaitingPharmacyAssignment,\n            physician: msg.sender\n        });\n\n        prescriptions[prescriptionID] = detail;\n\n        emit PrescriptionCreated(\n            prescriptionID,\n            msg.sender,\n            _patient,\n            _IPFShash\n        );\n\n        return prescriptionID;\n    }\n\n    function accessPrescription(uint256 _prescriptionID) public view onlyAuthorized(_prescriptionID) returns (address, string memory, PrescriptionStatus) {\n        PrescriptionDetail memory detail = prescriptions[_prescriptionID];\n        require(detail.patient != address(0), \"Prescription does not exist\");\n\n        return (detail.patient, detail.IPFShash, detail.status);\n    }\n\n    function selectPharmacy(uint256 _prescriptionID, address _pharmacyAddress) public {\n        require(reg_contract.Pharmacy(_pharmacyAddress), \"Only registered pharmacies can be selected\");\n\n        PrescriptionDetail storage detail = prescriptions[_prescriptionID];\n        require(detail.patient != address(0), \"Prescription does not exist\");\n        require(detail.status == PrescriptionStatus.AwaitingPharmacyAssignment, \"Prescription is not in a state that allows pharmacy selection\");\n\n        require(msg.sender == detail.patient || msg.sender == detail.physician, \"Only the patient or the prescribing physician can select a pharmacy\");\n\n        require(!hasPharmacySelected[_prescriptionID][_pharmacyAddress], \"This pharmacy has already been selected for this prescription\");\n\n        hasPharmacySelected[_prescriptionID][_pharmacyAddress] = true;\n        prescriptionToPharmacy[_prescriptionID] = _pharmacyAddress;\n\n        detail.status = PrescriptionStatus.AwaitingForConfirmation;\n\n        emit PharmacySelected(_pharmacyAddress);\n        emit PrescriptionStatusUpdated(_prescriptionID, detail.status);\n    }\n\n    function acceptPrescription(uint256 _prescriptionID) public onlyRegisteredPharmacies {\n        PrescriptionDetail storage detail = prescriptions[_prescriptionID];\n        require(detail.patient != address(0), \"Prescription does not exist\");\n        require(detail.status == PrescriptionStatus.AwaitingForConfirmation, \"Prescription is not in AwaitingForConfirmation status\");\n        require(msg.sender == prescriptionToPharmacy[_prescriptionID], \"Only the assigned pharmacy can accept this prescription\");\n\n        detail.status = PrescriptionStatus.Preparing;\n\n        emit PrescriptionAccepted(_prescriptionID, msg.sender);\n        emit PrescriptionStatusUpdated(_prescriptionID, detail.status);\n    }\n\n    function rejectPrescription(uint256 _prescriptionID) public onlyRegisteredPharmacies {\n        PrescriptionDetail storage detail = prescriptions[_prescriptionID];\n        require(detail.patient != address(0), \"Prescription does not exist\");\n        require(detail.status == PrescriptionStatus.AwaitingForConfirmation, \"Prescription is not in AwaitingForConfirmation status\");\n        require(msg.sender == prescriptionToPharmacy[_prescriptionID], \"Only the assigned pharmacy can reject this prescription\");\n\n        detail.status = PrescriptionStatus.AwaitingPharmacyAssignment;\n        delete prescriptionToPharmacy[_prescriptionID];\n        hasPharmacySelected[_prescriptionID][msg.sender] = false;\n\n        emit PrescriptionRejected(_prescriptionID, msg.sender);\n        emit PrescriptionStatusUpdated(_prescriptionID, detail.status);\n    }\n\n    function medicationPreparation(uint256 _prescriptionID) public onlyRegisteredPharmacies {\n        PrescriptionDetail storage detail = prescriptions[_prescriptionID];\n        require(detail.patient != address(0), \"Prescription does not exist\");\n        require(detail.status == PrescriptionStatus.Preparing, \"Prescription is not in Preparing status\");\n        require(msg.sender == prescriptionToPharmacy[_prescriptionID], \"Only the assigned pharmacy can prepare medication\");\n\n        detail.status = PrescriptionStatus.ReadyForCollection;\n\n        emit MedicationIsPrepared(_prescriptionID, msg.sender, detail.patient);\n        emit PrescriptionStatusUpdated(_prescriptionID, detail.status);\n    }\n\n    function medicationCollection(uint256 _prescriptionID) public onlyRegisteredPharmacies {\n        PrescriptionDetail storage detail = prescriptions[_prescriptionID];\n        require(detail.patient != address(0), \"Prescription does not exist\");\n        require(detail.status == PrescriptionStatus.ReadyForCollection, \"Medication is not ready for collection\");\n        require(msg.sender == prescriptionToPharmacy[_prescriptionID], \"This pharmacy is not the selected pharmacy for this prescription\");\n\n        detail.status = PrescriptionStatus.Collected;\n\n        emit MedicationIsCollected(_prescriptionID, msg.sender);\n        emit PrescriptionStatusUpdated(_prescriptionID, detail.status);\n    }\n\n\n    function cancelPrescription(uint256 _prescriptionID) public onlyCreator(_prescriptionID) {\n        PrescriptionDetail storage detail = prescriptions[_prescriptionID];\n        require(detail.patient != address(0), \"Prescription does not exist\");\n        require(detail.status == PrescriptionStatus.AwaitingPharmacyAssignment || detail.status == PrescriptionStatus.AwaitingForConfirmation, \"Prescription cannot be cancelled\");\n\n        detail.status = PrescriptionStatus.Cancelled;\n        emit PrescriptionCancelled(_prescriptionID, detail.patient);\n        emit PrescriptionStatusUpdated(_prescriptionID, detail.status);\n    }\n\n    function getAssignedPharmacy(uint256 _prescriptionID) public view onlyAuthorized(_prescriptionID) returns (address) {\n        return prescriptionToPharmacy[_prescriptionID];\n    }\n}\n",
  "sourcePath": "/Users/butch/MSE/Capstone/ePrescription/truffle/contracts/Prescription.sol",
  "compiler": {
    "name": "solc",
    "version": "0.8.4+commit.c7e474f2.Emscripten.clang"
  },
  "schemaVersion": "3.4.16",
  "updatedAt": "2024-09-12T08:44:00.129Z",
  "networkType": "ethereum",
  "devdoc": {
    "kind": "dev",
    "methods": {},
    "version": 1
  },
  "userdoc": {
    "kind": "user",
    "methods": {},
    "version": 1
  }
}