{
  "contractName": "Prescription",
  "abi": [
    {
      "inputs": [
        {
          "internalType": "address",
          "name": "registrationSCAddress",
          "type": "address"
        }
      ],
      "stateMutability": "nonpayable",
      "type": "constructor"
    },
    {
      "anonymous": false,
      "inputs": [
        {
          "indexed": false,
          "internalType": "address",
          "name": "_pharmacy",
          "type": "address"
        },
        {
          "indexed": false,
          "internalType": "uint256",
          "name": "patientID",
          "type": "uint256"
        },
        {
          "indexed": false,
          "internalType": "uint256",
          "name": "drug1CRN",
          "type": "uint256"
        },
        {
          "indexed": false,
          "internalType": "uint256",
          "name": "drug2CRN",
          "type": "uint256"
        },
        {
          "indexed": false,
          "internalType": "uint256",
          "name": "drug3CRN",
          "type": "uint256"
        }
      ],
      "name": "ApprovalIsRequested",
      "type": "event"
    },
    {
      "anonymous": false,
      "inputs": [
        {
          "indexed": false,
          "internalType": "address",
          "name": "_pharmacy",
          "type": "address"
        }
      ],
      "name": "Approved",
      "type": "event"
    },
    {
      "anonymous": false,
      "inputs": [
        {
          "indexed": false,
          "internalType": "address",
          "name": "patient",
          "type": "address"
        },
        {
          "indexed": false,
          "internalType": "uint256",
          "name": "patientID",
          "type": "uint256"
        },
        {
          "indexed": false,
          "internalType": "bytes32",
          "name": "IPFShash",
          "type": "bytes32"
        }
      ],
      "name": "MedicationIsCollected",
      "type": "event"
    },
    {
      "anonymous": false,
      "inputs": [
        {
          "indexed": false,
          "internalType": "address",
          "name": "_pharmacy",
          "type": "address"
        },
        {
          "indexed": false,
          "internalType": "uint256",
          "name": "patientID",
          "type": "uint256"
        }
      ],
      "name": "MedicationIsPrepared",
      "type": "event"
    },
    {
      "anonymous": false,
      "inputs": [
        {
          "indexed": false,
          "internalType": "address",
          "name": "_pharmacy",
          "type": "address"
        }
      ],
      "name": "PharmacyEligible",
      "type": "event"
    },
    {
      "anonymous": false,
      "inputs": [
        {
          "indexed": false,
          "internalType": "address",
          "name": "_pharmacy",
          "type": "address"
        }
      ],
      "name": "PharmacyIneligible",
      "type": "event"
    },
    {
      "anonymous": false,
      "inputs": [
        {
          "indexed": false,
          "internalType": "address",
          "name": "physician",
          "type": "address"
        },
        {
          "indexed": false,
          "internalType": "uint256",
          "name": "patientID",
          "type": "uint256"
        },
        {
          "indexed": false,
          "internalType": "uint256",
          "name": "drug1CRN",
          "type": "uint256"
        },
        {
          "indexed": false,
          "internalType": "uint256",
          "name": "drug2CRN",
          "type": "uint256"
        },
        {
          "indexed": false,
          "internalType": "uint256",
          "name": "drug3CRN",
          "type": "uint256"
        },
        {
          "indexed": false,
          "internalType": "bytes32",
          "name": "IPFShash",
          "type": "bytes32"
        }
      ],
      "name": "PrescriptionCreated",
      "type": "event"
    },
    {
      "inputs": [
        {
          "internalType": "address",
          "name": "",
          "type": "address"
        },
        {
          "internalType": "uint256",
          "name": "",
          "type": "uint256"
        }
      ],
      "name": "PharmaciesSelection",
      "outputs": [
        {
          "internalType": "address",
          "name": "registeredPharmacy",
          "type": "address"
        },
        {
          "internalType": "bool",
          "name": "isSelected",
          "type": "bool"
        }
      ],
      "stateMutability": "view",
      "type": "function",
      "constant": true
    },
    {
      "inputs": [],
      "name": "approvalState",
      "outputs": [
        {
          "internalType": "enum Prescription.ApprovalRequestState",
          "name": "",
          "type": "uint8"
        }
      ],
      "stateMutability": "view",
      "type": "function",
      "constant": true
    },
    {
      "inputs": [],
      "name": "drug1CRN",
      "outputs": [
        {
          "internalType": "uint256",
          "name": "",
          "type": "uint256"
        }
      ],
      "stateMutability": "view",
      "type": "function",
      "constant": true
    },
    {
      "inputs": [],
      "name": "drug2CRN",
      "outputs": [
        {
          "internalType": "uint256",
          "name": "",
          "type": "uint256"
        }
      ],
      "stateMutability": "view",
      "type": "function",
      "constant": true
    },
    {
      "inputs": [],
      "name": "drug3CRN",
      "outputs": [
        {
          "internalType": "uint256",
          "name": "",
          "type": "uint256"
        }
      ],
      "stateMutability": "view",
      "type": "function",
      "constant": true
    },
    {
      "inputs": [],
      "name": "medicineCollectionState",
      "outputs": [
        {
          "internalType": "enum Prescription.MedicineCollectionState",
          "name": "",
          "type": "uint8"
        }
      ],
      "stateMutability": "view",
      "type": "function",
      "constant": true
    },
    {
      "inputs": [],
      "name": "patientID",
      "outputs": [
        {
          "internalType": "uint256",
          "name": "",
          "type": "uint256"
        }
      ],
      "stateMutability": "view",
      "type": "function",
      "constant": true
    },
    {
      "inputs": [],
      "name": "reg_contract",
      "outputs": [
        {
          "internalType": "contract Registration",
          "name": "",
          "type": "address"
        }
      ],
      "stateMutability": "view",
      "type": "function",
      "constant": true
    },
    {
      "inputs": [
        {
          "internalType": "address",
          "name": "",
          "type": "address"
        }
      ],
      "name": "selectionCounter",
      "outputs": [
        {
          "internalType": "uint256",
          "name": "",
          "type": "uint256"
        }
      ],
      "stateMutability": "view",
      "type": "function",
      "constant": true
    },
    {
      "inputs": [
        {
          "internalType": "uint256",
          "name": "_patientID",
          "type": "uint256"
        },
        {
          "internalType": "uint256",
          "name": "_drug1CRN",
          "type": "uint256"
        },
        {
          "internalType": "uint256",
          "name": "_drug2CRN",
          "type": "uint256"
        },
        {
          "internalType": "uint256",
          "name": "_drug3CRN",
          "type": "uint256"
        },
        {
          "internalType": "string",
          "name": "_IPFShash",
          "type": "string"
        }
      ],
      "name": "prescriptionCreation",
      "outputs": [],
      "stateMutability": "nonpayable",
      "type": "function"
    },
    {
      "inputs": [
        {
          "internalType": "address",
          "name": "_pharmacyAddress",
          "type": "address"
        }
      ],
      "name": "selectPharmacy",
      "outputs": [],
      "stateMutability": "nonpayable",
      "type": "function"
    },
    {
      "inputs": [
        {
          "internalType": "address",
          "name": "_patient",
          "type": "address"
        }
      ],
      "name": "pharmacyApproval",
      "outputs": [],
      "stateMutability": "nonpayable",
      "type": "function"
    },
    {
      "inputs": [
        {
          "internalType": "uint256",
          "name": "_patientID",
          "type": "uint256"
        }
      ],
      "name": "medicationPreparation",
      "outputs": [],
      "stateMutability": "nonpayable",
      "type": "function"
    },
    {
      "inputs": [
        {
          "internalType": "uint256",
          "name": "_patientID",
          "type": "uint256"
        },
        {
          "internalType": "string",
          "name": "_IPFShash",
          "type": "string"
        }
      ],
      "name": "medicationCollection",
      "outputs": [],
      "stateMutability": "nonpayable",
      "type": "function"
    }
  ],
  "bytecode": "0x60806040523480156200001157600080fd5b5060405162001e6c38038062001e6c833981810160405281019062000037919062000095565b806000806101000a81548173ffffffffffffffffffffffffffffffffffffffff021916908373ffffffffffffffffffffffffffffffffffffffff160217905550506200010f565b6000815190506200008f81620000f5565b92915050565b600060208284031215620000a857600080fd5b6000620000b8848285016200007e565b91505092915050565b6000620000ce82620000d5565b9050919050565b600073ffffffffffffffffffffffffffffffffffffffff82169050919050565b6200010081620000c1565b81146200010c57600080fd5b50565b611d4d806200011f6000396000f3fe608060405234801561001057600080fd5b50600436106100ea5760003560e01c80635309ea1a1161008c5780637ce4c60c116100665780637ce4c60c146102385780637f69acd214610256578063eb7bc00d14610272578063f680a7bd14610290576100ea565b80635309ea1a146101e25780635d9c2609146101fe5780637ad3337f1461021a576100ea565b80631afcf159116100c85780631afcf1591461014557806330f9d91d146101635780634e3502ea14610181578063506a203b146101b2576100ea565b8063093d0602146100ef578063161e6fb91461010b578063173b0e1014610127575b600080fd5b610109600480360381019061010491906112b6565b6102ae565b005b61012560048036038101906101209190611228565b61042c565b005b61012f6108a6565b60405161013c9190611648565b60405180910390f35b61014d6108ca565b60405161015a9190611663565b60405180910390f35b61016b6108dd565b6040516101789190611799565b60405180910390f35b61019b60048036038101906101969190611251565b6108e3565b6040516101a992919061155e565b60405180910390f35b6101cc60048036038101906101c79190611228565b61094d565b6040516101d99190611799565b60405180910390f35b6101fc60048036038101906101f791906112df565b610965565b005b61021860048036038101906102139190611228565b610bb0565b005b610222610fa8565b60405161022f919061167e565b60405180910390f35b610240610fbb565b60405161024d9190611799565b60405180910390f35b610270600480360381019061026b9190611333565b610fc1565b005b61027a61111d565b6040516102879190611799565b60405180910390f35b610298611123565b6040516102a59190611799565b60405180910390f35b60008054906101000a900473ffffffffffffffffffffffffffffffffffffffff1673ffffffffffffffffffffffffffffffffffffffff1663b58d520a336040518263ffffffff1660e01b81526004016103079190611543565b60206040518083038186803b15801561031f57600080fd5b505afa158015610333573d6000803e3d6000fd5b505050506040513d601f19601f82011682018060405250810190610357919061128d565b610396576040517f08c379a000000000000000000000000000000000000000000000000000000000815260040161038d90611779565b60405180910390fd5b806004819055507f0db3ab42cb85bab43288b33bc309bda5d9b5819115f15f32ce1772ed5b6c0253336004546040516103d0929190611587565b60405180910390a16000600360016101000a81548160ff02191690836001811115610424577f4e487b7100000000000000000000000000000000000000000000000000000000600052602160045260246000fd5b021790555050565b60008054906101000a900473ffffffffffffffffffffffffffffffffffffffff1673ffffffffffffffffffffffffffffffffffffffff1663b58d520a336040518263ffffffff1660e01b81526004016104859190611543565b60206040518083038186803b15801561049d57600080fd5b505afa1580156104b1573d6000803e3d6000fd5b505050506040513d601f19601f820116820180604052508101906104d5919061128d565b610514576040517f08c379a000000000000000000000000000000000000000000000000000000000815260040161050b90611779565b60405180910390fd5b6000600181111561054e577f4e487b7100000000000000000000000000000000000000000000000000000000600052602160045260246000fd5b600360009054906101000a900460ff166001811115610596577f4e487b7100000000000000000000000000000000000000000000000000000000600052602160045260246000fd5b146105d6576040517f08c379a00000000000000000000000000000000000000000000000000000000081526004016105cd90611739565b60405180910390fd5b60005b600260008373ffffffffffffffffffffffffffffffffffffffff1673ffffffffffffffffffffffffffffffffffffffff1681526020019081526020016000205481101561086a573373ffffffffffffffffffffffffffffffffffffffff16600160008473ffffffffffffffffffffffffffffffffffffffff1673ffffffffffffffffffffffffffffffffffffffff16815260200190815260200160002082815481106106ae577f4e487b7100000000000000000000000000000000000000000000000000000000600052603260045260246000fd5b9060005260206000200160000160009054906101000a900473ffffffffffffffffffffffffffffffffffffffff1673ffffffffffffffffffffffffffffffffffffffff1614801561078d5750600160008373ffffffffffffffffffffffffffffffffffffffff1673ffffffffffffffffffffffffffffffffffffffff1681526020019081526020016000208181548110610771577f4e487b7100000000000000000000000000000000000000000000000000000000600052603260045260246000fd5b9060005260206000200160000160149054906101000a900460ff165b15610857576001600360006101000a81548160ff021916908360018111156107de577f4e487b7100000000000000000000000000000000000000000000000000000000600052602160045260246000fd5b02179055507fa154add6bec843a6c8fdb7ea8f7c4e08c019a8072d48d003eb6b704beeb19332336040516108129190611543565b60405180910390a17f5d91bd0cecc45fef102af61de92c5462fadc884a5ce9d21c15e8a85198f2349e336040516108499190611543565b60405180910390a1506108a3565b808061086290611971565b9150506105d9565b507ff9a61810fe7ca3399cb14b55505ad810cec254919b812d1dc2dbdfee9cad1af93360405161089a9190611543565b60405180910390a15b50565b60008054906101000a900473ffffffffffffffffffffffffffffffffffffffff1681565b600360009054906101000a900460ff1681565b60065481565b600160205281600052604060002081815481106108ff57600080fd5b90600052602060002001600091509150508060000160009054906101000a900473ffffffffffffffffffffffffffffffffffffffff16908060000160149054906101000a900460ff16905082565b60026020528060005260406000206000915090505481565b60008054906101000a900473ffffffffffffffffffffffffffffffffffffffff1673ffffffffffffffffffffffffffffffffffffffff1663dd8bd8cb336040518263ffffffff1660e01b81526004016109be9190611543565b60206040518083038186803b1580156109d657600080fd5b505afa1580156109ea573d6000803e3d6000fd5b505050506040513d601f19601f82011682018060405250810190610a0e919061128d565b610a4d576040517f08c379a0000000000000000000000000000000000000000000000000000000008152600401610a44906116d9565b60405180910390fd5b60006001811115610a87577f4e487b7100000000000000000000000000000000000000000000000000000000600052602160045260246000fd5b600360019054906101000a900460ff166001811115610acf577f4e487b7100000000000000000000000000000000000000000000000000000000600052602160045260246000fd5b14610b0f576040517f08c379a0000000000000000000000000000000000000000000000000000000008152600401610b06906116f9565b60405180910390fd5b816004819055506001600360016101000a81548160ff02191690836001811115610b62577f4e487b7100000000000000000000000000000000000000000000000000000000600052602160045260246000fd5b02179055507fa5f70e1d2f9f77590bd99896c794f083eaf48169b417313baf17af6e623ce8dc33600454610b9584611129565b604051610ba4939291906115b0565b60405180910390a15050565b60008054906101000a900473ffffffffffffffffffffffffffffffffffffffff1673ffffffffffffffffffffffffffffffffffffffff1663dd8bd8cb336040518263ffffffff1660e01b8152600401610c099190611543565b60206040518083038186803b158015610c2157600080fd5b505afa158015610c35573d6000803e3d6000fd5b505050506040513d601f19601f82011682018060405250810190610c59919061128d565b610c98576040517f08c379a0000000000000000000000000000000000000000000000000000000008152600401610c8f906116d9565b60405180910390fd5b6005600260003373ffffffffffffffffffffffffffffffffffffffff1673ffffffffffffffffffffffffffffffffffffffff1681526020019081526020016000205410610d1a576040517f08c379a0000000000000000000000000000000000000000000000000000000008152600401610d11906116b9565b60405180910390fd5b60008054906101000a900473ffffffffffffffffffffffffffffffffffffffff1673ffffffffffffffffffffffffffffffffffffffff1663b58d520a826040518263ffffffff1660e01b8152600401610d739190611543565b60206040518083038186803b158015610d8b57600080fd5b505afa158015610d9f573d6000803e3d6000fd5b505050506040513d601f19601f82011682018060405250810190610dc3919061128d565b610e02576040517f08c379a0000000000000000000000000000000000000000000000000000000008152600401610df990611759565b60405180910390fd5b600160003373ffffffffffffffffffffffffffffffffffffffff1673ffffffffffffffffffffffffffffffffffffffff16815260200190815260200160002060405180604001604052808373ffffffffffffffffffffffffffffffffffffffff168152602001600115158152509080600181540180825580915050600190039060005260206000200160009091909190915060008201518160000160006101000a81548173ffffffffffffffffffffffffffffffffffffffff021916908373ffffffffffffffffffffffffffffffffffffffff16021790555060208201518160000160146101000a81548160ff02191690831515021790555050506001600260003373ffffffffffffffffffffffffffffffffffffffff1673ffffffffffffffffffffffffffffffffffffffff1681526020019081526020016000206000828254610f4d919061181b565b925050819055506000600360006101000a81548160ff02191690836001811115610fa0577f4e487b7100000000000000000000000000000000000000000000000000000000600052602160045260246000fd5b021790555050565b600360019054906101000a900460ff1681565b60075481565b60008054906101000a900473ffffffffffffffffffffffffffffffffffffffff1673ffffffffffffffffffffffffffffffffffffffff166372c8e330336040518263ffffffff1660e01b815260040161101a9190611543565b60206040518083038186803b15801561103257600080fd5b505afa158015611046573d6000803e3d6000fd5b505050506040513d601f19601f8201168201806040525081019061106a919061128d565b6110a9576040517f08c379a00000000000000000000000000000000000000000000000000000000081526004016110a090611719565b60405180910390fd5b846004819055508360058190555082600681905550816007819055507f3db5eeb18a99d4170ead27f28b4b00f8fe3ec049b538518b623a5306dbe11256336004546005546006546007546110fc87611129565b60405161110e969594939291906115e7565b60405180910390a15050505050565b60055481565b60045481565b600080829050602081511115611174576040517f08c379a000000000000000000000000000000000000000000000000000000000815260040161116b90611699565b60405180910390fd5b6020810151915050919050565b600061119461118f846117d9565b6117b4565b9050828152602081018484840111156111ac57600080fd5b6111b7848285611931565b509392505050565b6000813590506111ce81611cd2565b92915050565b6000815190506111e381611ce9565b92915050565b600082601f8301126111fa57600080fd5b813561120a848260208601611181565b91505092915050565b60008135905061122281611d00565b92915050565b60006020828403121561123a57600080fd5b6000611248848285016111bf565b91505092915050565b6000806040838503121561126457600080fd5b6000611272858286016111bf565b925050602061128385828601611213565b9150509250929050565b60006020828403121561129f57600080fd5b60006112ad848285016111d4565b91505092915050565b6000602082840312156112c857600080fd5b60006112d684828501611213565b91505092915050565b600080604083850312156112f257600080fd5b600061130085828601611213565b925050602083013567ffffffffffffffff81111561131d57600080fd5b611329858286016111e9565b9150509250929050565b600080600080600060a0868803121561134b57600080fd5b600061135988828901611213565b955050602061136a88828901611213565b945050604061137b88828901611213565b935050606061138c88828901611213565b925050608086013567ffffffffffffffff8111156113a957600080fd5b6113b5888289016111e9565b9150509295509295909350565b6113cb81611871565b82525050565b6113da81611883565b82525050565b6113e98161188f565b82525050565b6113f8816118e9565b82525050565b6114078161190d565b82525050565b6114168161191f565b82525050565b6000611429600f8361180a565b915061143482611a58565b602082019050919050565b600061144c602c8361180a565b915061145782611a81565b604082019050919050565b600061146f60348361180a565b915061147a82611ad0565b604082019050919050565b6000611492602e8361180a565b915061149d82611b1f565b604082019050919050565b60006114b560368361180a565b91506114c082611b6e565b604082019050919050565b60006114d8602a8361180a565b91506114e382611bbd565b604082019050919050565b60006114fb602a8361180a565b915061150682611c0c565b604082019050919050565b600061151e60308361180a565b915061152982611c5b565b604082019050919050565b61153d816118df565b82525050565b600060208201905061155860008301846113c2565b92915050565b600060408201905061157360008301856113c2565b61158060208301846113d1565b9392505050565b600060408201905061159c60008301856113c2565b6115a96020830184611534565b9392505050565b60006060820190506115c560008301866113c2565b6115d26020830185611534565b6115df60408301846113e0565b949350505050565b600060c0820190506115fc60008301896113c2565b6116096020830188611534565b6116166040830187611534565b6116236060830186611534565b6116306080830185611534565b61163d60a08301846113e0565b979650505050505050565b600060208201905061165d60008301846113ef565b92915050565b600060208201905061167860008301846113fe565b92915050565b6000602082019050611693600083018461140d565b92915050565b600060208201905081810360008301526116b28161141c565b9050919050565b600060208201905081810360008301526116d28161143f565b9050919050565b600060208201905081810360008301526116f281611462565b9050919050565b6000602082019050818103600083015261171281611485565b9050919050565b60006020820190508181036000830152611732816114a8565b9050919050565b60006020820190508181036000830152611752816114cb565b9050919050565b60006020820190508181036000830152611772816114ee565b9050919050565b6000602082019050818103600083015261179281611511565b9050919050565b60006020820190506117ae6000830184611534565b92915050565b60006117be6117cf565b90506117ca8282611940565b919050565b6000604051905090565b600067ffffffffffffffff8211156117f4576117f3611a18565b5b6117fd82611a47565b9050602081019050919050565b600082825260208201905092915050565b6000611826826118df565b9150611831836118df565b9250827fffffffffffffffffffffffffffffffffffffffffffffffffffffffffffffffff03821115611866576118656119ba565b5b828201905092915050565b600061187c826118bf565b9050919050565b60008115159050919050565b6000819050919050565b60008190506118a782611caa565b919050565b60008190506118ba82611cbe565b919050565b600073ffffffffffffffffffffffffffffffffffffffff82169050919050565b6000819050919050565b60006118f4826118fb565b9050919050565b6000611906826118bf565b9050919050565b600061191882611899565b9050919050565b600061192a826118ac565b9050919050565b82818337600083830152505050565b61194982611a47565b810181811067ffffffffffffffff8211171561196857611967611a18565b5b80604052505050565b600061197c826118df565b91507fffffffffffffffffffffffffffffffffffffffffffffffffffffffffffffffff8214156119af576119ae6119ba565b5b600182019050919050565b7f4e487b7100000000000000000000000000000000000000000000000000000000600052601160045260246000fd5b7f4e487b7100000000000000000000000000000000000000000000000000000000600052602160045260246000fd5b7f4e487b7100000000000000000000000000000000000000000000000000000000600052604160045260246000fd5b6000601f19601f8301169050919050565b7f537472696e6720746f6f206c6f6e670000000000000000000000000000000000600082015250565b7f412070617469656e742063616e206f6e6c792073656c65637420757020746f2060008201527f3520706861726d61636965730000000000000000000000000000000000000000602082015250565b7f4f6e6c79207468652070617469656e7420697320616c6c6f77656420746f206560008201527f78656375746520746869732066756e6374696f6e000000000000000000000000602082015250565b7f43616e277420636f6c6c656374206d656469636174696f6e2073696e6365206960008201527f74206973206e6f74207265616479000000000000000000000000000000000000602082015250565b7f4f6e6c79207468652050687973696369616e20697320616c6c6f77656420746f60008201527f206578656375746520746869732066756e6374696f6e00000000000000000000602082015250565b7f43616e2774206769766520617070726f76616c2061732074686572652069732060008201527f6e6f207265717565737400000000000000000000000000000000000000000000602082015250565b7f4f6e6c79207265676973746572656420706861726d61636965732063616e206260008201527f652073656c656374656400000000000000000000000000000000000000000000602082015250565b7f4f6e6c792061207265676973746572656420506861726d6163792063616e207260008201527f756e20746869732066756e6374696f6e00000000000000000000000000000000602082015250565b60028110611cbb57611cba6119e9565b5b50565b60028110611ccf57611cce6119e9565b5b50565b611cdb81611871565b8114611ce657600080fd5b50565b611cf281611883565b8114611cfd57600080fd5b50565b611d09816118df565b8114611d1457600080fd5b5056fea2646970667358221220bfac20a0cc36b8dee634fccbd5dd260a90eea9b988a762b5a934a0e29e5c009c64736f6c63430008040033",
  "immutableReferences": {},
  "source": "// SPDX-License-Identifier: MIT\npragma solidity ^0.8.4;\n\nimport \"./Registration.sol\";\n\ncontract Prescription {\n\n    Registration public reg_contract;\n\n    struct PharmacySelect {\n        address registeredPharmacy;\n        bool isSelected;\n    }\n\n    mapping(address => PharmacySelect[]) public PharmaciesSelection;\n    mapping(address => uint) public selectionCounter;\n\n    enum ApprovalRequestState { Pending, Approved }\n    ApprovalRequestState public approvalState;\n\n    enum MedicineCollectionState { ReadyForCollection, Collected }\n    MedicineCollectionState public medicineCollectionState;\n\n    uint public patientID;\n    uint public drug1CRN; \n    uint public drug2CRN; \n    uint public drug3CRN; \n\n    event PharmacyEligible(address _pharmacy);\n    event PharmacyIneligible(address _pharmacy);\n    event Approved(address _pharmacy);\n    event PrescriptionCreated(\n        address physician,\n        uint patientID,\n        uint drug1CRN,\n        uint drug2CRN,\n        uint drug3CRN,\n        bytes32 IPFShash\n    );\n    event ApprovalIsRequested(\n        address _pharmacy,\n        uint patientID,\n        uint drug1CRN,\n        uint drug2CRN,\n        uint drug3CRN\n    );\n    event MedicationIsPrepared(address _pharmacy, uint patientID);\n    event MedicationIsCollected(address patient, uint patientID, bytes32 IPFShash);\n\n    modifier onlyPhysician() {\n        require(reg_contract.Physician(msg.sender), \"Only the Physician is allowed to execute this function\");\n        _;\n    }\n\n    modifier onlyPatients() {\n        require(reg_contract.Patient(msg.sender), \"Only the patient is allowed to execute this function\");\n        _;\n    }\n\n    modifier onlyRegisteredPharmacies() {\n        require(reg_contract.Pharmacy(msg.sender), \"Only a registered Pharmacy can run this function\");\n        _;\n    }\n\n    constructor(address registrationSCAddress) {\n        reg_contract = Registration(registrationSCAddress);\n    }\n\n    function stringToBytes32(string memory source) internal pure returns (bytes32 result) {\n        bytes memory temp = bytes(source);\n        if (temp.length > 32) {\n            revert(\"String too long\");\n        }\n        assembly {\n            result := mload(add(temp, 32))\n        }\n    }\n\n    function prescriptionCreation(\n        uint _patientID,\n        uint _drug1CRN,\n        uint _drug2CRN,\n        uint _drug3CRN,\n        string memory _IPFShash\n    ) public onlyPhysician {\n        patientID = _patientID;\n        drug1CRN = _drug1CRN;\n        drug2CRN = _drug2CRN;\n        drug3CRN = _drug3CRN;\n        emit PrescriptionCreated(\n            msg.sender,\n            patientID,\n            drug1CRN,\n            drug2CRN,\n            drug3CRN,\n            stringToBytes32(_IPFShash)\n        );\n    }\n\n    function selectPharmacy(address _pharmacyAddress) public onlyPatients {\n        require(selectionCounter[msg.sender] < 5, \"A patient can only select up to 5 pharmacies\");\n        require(reg_contract.Pharmacy(_pharmacyAddress), \"Only registered pharmacies can be selected\");\n\n        PharmaciesSelection[msg.sender].push(PharmacySelect(_pharmacyAddress, true));\n        selectionCounter[msg.sender] += 1;\n        approvalState = ApprovalRequestState.Pending;\n    }\n\n    function pharmacyApproval(address _patient) public onlyRegisteredPharmacies {\n        require(approvalState == ApprovalRequestState.Pending, \"Can't give approval as there is no request\");\n\n        for (uint i = 0; i < selectionCounter[_patient]; i++) {\n            if (PharmaciesSelection[_patient][i].registeredPharmacy == msg.sender && PharmaciesSelection[_patient][i].isSelected) {\n                approvalState = ApprovalRequestState.Approved;\n                emit PharmacyEligible(msg.sender);\n                emit Approved(msg.sender);\n                return;\n            }\n        }\n\n        emit PharmacyIneligible(msg.sender);\n    }\n\n    function medicationPreparation(uint _patientID) public onlyRegisteredPharmacies {\n        patientID = _patientID;\n        emit MedicationIsPrepared(msg.sender, patientID);\n        medicineCollectionState = MedicineCollectionState.ReadyForCollection;\n    }\n\n    function medicationCollection(uint _patientID, string memory _IPFShash) public onlyPatients {\n        require(medicineCollectionState == MedicineCollectionState.ReadyForCollection, \"Can't collect medication since it is not ready\");\n        patientID = _patientID;\n        medicineCollectionState = MedicineCollectionState.Collected;\n        emit MedicationIsCollected(msg.sender, patientID, stringToBytes32(_IPFShash));\n    }\n}\n",
  "sourcePath": "/Users/butch/MSE/Capstone/ePrescription/truffle/contracts/Prescription.sol",
  "compiler": {
    "name": "solc",
    "version": "0.8.4+commit.c7e474f2.Emscripten.clang"
  },
  "schemaVersion": "3.4.16",
  "updatedAt": "2024-08-31T07:28:22.298Z",
  "networkType": "ethereum",
  "devdoc": {
    "kind": "dev",
    "methods": {},
    "version": 1
  },
  "userdoc": {
    "kind": "user",
    "methods": {},
    "version": 1
  }
}