{
  "contractName": "Prescription",
  "abi": [
    {
      "inputs": [
        {
          "internalType": "address",
          "name": "registrationSCAddress",
          "type": "address"
        }
      ],
      "stateMutability": "nonpayable",
      "type": "constructor"
    },
    {
      "anonymous": false,
      "inputs": [
        {
          "indexed": false,
          "internalType": "uint256",
          "name": "prescriptionID",
          "type": "uint256"
        },
        {
          "indexed": false,
          "internalType": "address",
          "name": "patient",
          "type": "address"
        },
        {
          "indexed": false,
          "internalType": "string",
          "name": "IPFShash",
          "type": "string"
        }
      ],
      "name": "MedicationIsCollected",
      "type": "event"
    },
    {
      "anonymous": false,
      "inputs": [
        {
          "indexed": false,
          "internalType": "uint256",
          "name": "prescriptionID",
          "type": "uint256"
        },
        {
          "indexed": false,
          "internalType": "address",
          "name": "_pharmacy",
          "type": "address"
        },
        {
          "indexed": false,
          "internalType": "address",
          "name": "patient",
          "type": "address"
        }
      ],
      "name": "MedicationIsPrepared",
      "type": "event"
    },
    {
      "anonymous": false,
      "inputs": [
        {
          "indexed": false,
          "internalType": "address",
          "name": "_pharmacy",
          "type": "address"
        }
      ],
      "name": "PharmacySelected",
      "type": "event"
    },
    {
      "anonymous": false,
      "inputs": [
        {
          "indexed": false,
          "internalType": "uint256",
          "name": "prescriptionID",
          "type": "uint256"
        },
        {
          "indexed": false,
          "internalType": "address",
          "name": "physician",
          "type": "address"
        },
        {
          "indexed": false,
          "internalType": "address",
          "name": "patient",
          "type": "address"
        },
        {
          "indexed": false,
          "internalType": "string",
          "name": "IPFShash",
          "type": "string"
        }
      ],
      "name": "PrescriptionCreated",
      "type": "event"
    },
    {
      "inputs": [
        {
          "internalType": "address",
          "name": "",
          "type": "address"
        }
      ],
      "name": "PharmaciesSelection",
      "outputs": [
        {
          "internalType": "address",
          "name": "registeredPharmacy",
          "type": "address"
        },
        {
          "internalType": "bool",
          "name": "isSelected",
          "type": "bool"
        }
      ],
      "stateMutability": "view",
      "type": "function",
      "constant": true
    },
    {
      "inputs": [
        {
          "internalType": "address",
          "name": "",
          "type": "address"
        }
      ],
      "name": "hasPharmacySelected",
      "outputs": [
        {
          "internalType": "bool",
          "name": "",
          "type": "bool"
        }
      ],
      "stateMutability": "view",
      "type": "function",
      "constant": true
    },
    {
      "inputs": [
        {
          "internalType": "uint256",
          "name": "",
          "type": "uint256"
        }
      ],
      "name": "prescriptions",
      "outputs": [
        {
          "internalType": "uint256",
          "name": "prescriptionID",
          "type": "uint256"
        },
        {
          "internalType": "address",
          "name": "patient",
          "type": "address"
        },
        {
          "internalType": "string",
          "name": "IPFShash",
          "type": "string"
        },
        {
          "internalType": "enum Prescription.MedicineCollectionState",
          "name": "medicineCollectionState",
          "type": "uint8"
        },
        {
          "internalType": "address",
          "name": "physician",
          "type": "address"
        }
      ],
      "stateMutability": "view",
      "type": "function",
      "constant": true
    },
    {
      "inputs": [],
      "name": "reg_contract",
      "outputs": [
        {
          "internalType": "contract Registration",
          "name": "",
          "type": "address"
        }
      ],
      "stateMutability": "view",
      "type": "function",
      "constant": true
    },
    {
      "inputs": [
        {
          "internalType": "address",
          "name": "_patient",
          "type": "address"
        },
        {
          "internalType": "string",
          "name": "_IPFShash",
          "type": "string"
        }
      ],
      "name": "prescriptionCreation",
      "outputs": [
        {
          "internalType": "uint256",
          "name": "",
          "type": "uint256"
        }
      ],
      "stateMutability": "nonpayable",
      "type": "function"
    },
    {
      "inputs": [
        {
          "internalType": "address",
          "name": "_pharmacyAddress",
          "type": "address"
        }
      ],
      "name": "selectPharmacy",
      "outputs": [],
      "stateMutability": "nonpayable",
      "type": "function"
    },
    {
      "inputs": [
        {
          "internalType": "uint256",
          "name": "_prescriptionID",
          "type": "uint256"
        }
      ],
      "name": "accessPrescription",
      "outputs": [
        {
          "internalType": "address",
          "name": "",
          "type": "address"
        },
        {
          "internalType": "string",
          "name": "",
          "type": "string"
        }
      ],
      "stateMutability": "view",
      "type": "function",
      "constant": true
    },
    {
      "inputs": [
        {
          "internalType": "uint256",
          "name": "_prescriptionID",
          "type": "uint256"
        }
      ],
      "name": "medicationPreparation",
      "outputs": [],
      "stateMutability": "nonpayable",
      "type": "function"
    },
    {
      "inputs": [
        {
          "internalType": "uint256",
          "name": "_prescriptionID",
          "type": "uint256"
        },
        {
          "internalType": "string",
          "name": "_IPFShash",
          "type": "string"
        }
      ],
      "name": "medicationCollection",
      "outputs": [],
      "stateMutability": "nonpayable",
      "type": "function"
    }
  ],
  "bytecode": "0x60806040523480156200001157600080fd5b50604051620022eb380380620022eb83398181016040528101906200003791906200009d565b806000806101000a81548173ffffffffffffffffffffffffffffffffffffffff021916908373ffffffffffffffffffffffffffffffffffffffff16021790555060006001819055505062000117565b6000815190506200009781620000fd565b92915050565b600060208284031215620000b057600080fd5b6000620000c08482850162000086565b91505092915050565b6000620000d682620000dd565b9050919050565b600073ffffffffffffffffffffffffffffffffffffffff82169050919050565b6200010881620000c9565b81146200011457600080fd5b50565b6121c480620001276000396000f3fe608060405234801561001057600080fd5b50600436106100935760003560e01c8063530c62fe11610066578063530c62fe146101225780635d9c26091461015357806373162d5b1461016f578063c1a30a581461019f578063c9ae723e146101d057610093565b8063093d060214610098578063173b0e10146100b457806331dfc91b146100d25780635309ea1a14610106575b600080fd5b6100b260048036038101906100ad919061169a565b610200565b005b6100bc61059c565b6040516100c99190611965565b60405180910390f35b6100ec60048036038101906100e7919061169a565b6105c0565b6040516100fd959493929190611b7c565b60405180910390f35b610120600480360381019061011b91906116c3565b6106cb565b005b61013c6004803603810190610137919061169a565b6109f2565b60405161014a92919061191a565b60405180910390f35b61016d600480360381019061016891906115f4565b610e5b565b005b6101896004803603810190610184919061161d565b611139565b6040516101969190611aa0565b60405180910390f35b6101b960048036038101906101b491906115f4565b611439565b6040516101c79291906118f1565b60405180910390f35b6101ea60048036038101906101e591906115f4565b61148a565b6040516101f7919061194a565b60405180910390f35b60008054906101000a900473ffffffffffffffffffffffffffffffffffffffff1673ffffffffffffffffffffffffffffffffffffffff1663b58d520a336040518263ffffffff1660e01b815260040161025991906118d6565b60206040518083038186803b15801561027157600080fd5b505afa158015610285573d6000803e3d6000fd5b505050506040513d601f19601f820116820180604052508101906102a99190611671565b6102e8576040517f08c379a00000000000000000000000000000000000000000000000000000000081526004016102df90611a80565b60405180910390fd5b6000600460008381526020019081526020016000209050600073ffffffffffffffffffffffffffffffffffffffff168160010160009054906101000a900473ffffffffffffffffffffffffffffffffffffffff1673ffffffffffffffffffffffffffffffffffffffff161415610393576040517f08c379a000000000000000000000000000000000000000000000000000000000815260040161038a90611a60565b60405180910390fd5b600260003373ffffffffffffffffffffffffffffffffffffffff1673ffffffffffffffffffffffffffffffffffffffff16815260200190815260200160002060000160149054906101000a900460ff16610422576040517f08c379a0000000000000000000000000000000000000000000000000000000008152600401610419906119c0565b60405180910390fd5b6000600181111561045c577f4e487b7100000000000000000000000000000000000000000000000000000000600052602160045260246000fd5b8160030160009054906101000a900460ff1660018111156104a6577f4e487b7100000000000000000000000000000000000000000000000000000000600052602160045260246000fd5b146104e6576040517f08c379a00000000000000000000000000000000000000000000000000000000081526004016104dd90611980565b60405180910390fd5b7f5d3180d33faa9b9d24cabb97d1a072d0a981e14811bfb4450f9dab27278a389082338360010160009054906101000a900473ffffffffffffffffffffffffffffffffffffffff1660405161053d93929190611abb565b60405180910390a160008160030160006101000a81548160ff02191690836001811115610593577f4e487b7100000000000000000000000000000000000000000000000000000000600052602160045260246000fd5b02179055505050565b60008054906101000a900473ffffffffffffffffffffffffffffffffffffffff1681565b60046020528060005260406000206000915090508060000154908060010160009054906101000a900473ffffffffffffffffffffffffffffffffffffffff169080600201805461060f90611d1b565b80601f016020809104026020016040519081016040528092919081815260200182805461063b90611d1b565b80156106885780601f1061065d57610100808354040283529160200191610688565b820191906000526020600020905b81548152906001019060200180831161066b57829003601f168201915b5050505050908060030160009054906101000a900460ff16908060030160019054906101000a900473ffffffffffffffffffffffffffffffffffffffff16905085565b60008054906101000a900473ffffffffffffffffffffffffffffffffffffffff1673ffffffffffffffffffffffffffffffffffffffff1663b58d520a336040518263ffffffff1660e01b815260040161072491906118d6565b60206040518083038186803b15801561073c57600080fd5b505afa158015610750573d6000803e3d6000fd5b505050506040513d601f19601f820116820180604052508101906107749190611671565b6107b3576040517f08c379a00000000000000000000000000000000000000000000000000000000081526004016107aa90611a80565b60405180910390fd5b6000600460008481526020019081526020016000209050600073ffffffffffffffffffffffffffffffffffffffff168160010160009054906101000a900473ffffffffffffffffffffffffffffffffffffffff1673ffffffffffffffffffffffffffffffffffffffff16141561085e576040517f08c379a000000000000000000000000000000000000000000000000000000000815260040161085590611a60565b60405180910390fd5b60006001811115610898577f4e487b7100000000000000000000000000000000000000000000000000000000600052602160045260246000fd5b8160030160009054906101000a900460ff1660018111156108e2577f4e487b7100000000000000000000000000000000000000000000000000000000600052602160045260246000fd5b14610922576040517f08c379a0000000000000000000000000000000000000000000000000000000008152600401610919906119e0565b60405180910390fd5b8181600201908051906020019061093a9291906114aa565b5060018160030160006101000a81548160ff02191690836001811115610989577f4e487b7100000000000000000000000000000000000000000000000000000000600052602160045260246000fd5b02179055507f2b2a64118d7a7d862843bb7f770cce09333e8d3d4974e2dfcfde0eb08d0933af838260010160009054906101000a900473ffffffffffffffffffffffffffffffffffffffff16846040516109e593929190611b3e565b60405180910390a1505050565b6000606060008054906101000a900473ffffffffffffffffffffffffffffffffffffffff1673ffffffffffffffffffffffffffffffffffffffff1663b58d520a336040518263ffffffff1660e01b8152600401610a4f91906118d6565b60206040518083038186803b158015610a6757600080fd5b505afa158015610a7b573d6000803e3d6000fd5b505050506040513d601f19601f82011682018060405250810190610a9f9190611671565b610ade576040517f08c379a0000000000000000000000000000000000000000000000000000000008152600401610ad590611a80565b60405180910390fd5b6000600260003373ffffffffffffffffffffffffffffffffffffffff1673ffffffffffffffffffffffffffffffffffffffff1681526020019081526020016000206040518060400160405290816000820160009054906101000a900473ffffffffffffffffffffffffffffffffffffffff1673ffffffffffffffffffffffffffffffffffffffff1673ffffffffffffffffffffffffffffffffffffffff1681526020016000820160149054906101000a900460ff16151515158152505090508060200151610be1576040517f08c379a0000000000000000000000000000000000000000000000000000000008152600401610bd890611a40565b60405180910390fd5b6000600460008681526020019081526020016000206040518060a0016040529081600082015481526020016001820160009054906101000a900473ffffffffffffffffffffffffffffffffffffffff1673ffffffffffffffffffffffffffffffffffffffff1673ffffffffffffffffffffffffffffffffffffffff168152602001600282018054610c7190611d1b565b80601f0160208091040260200160405190810160405280929190818152602001828054610c9d90611d1b565b8015610cea5780601f10610cbf57610100808354040283529160200191610cea565b820191906000526020600020905b815481529060010190602001808311610ccd57829003601f168201915b505050505081526020016003820160009054906101000a900460ff166001811115610d3e577f4e487b7100000000000000000000000000000000000000000000000000000000600052602160045260246000fd5b6001811115610d76577f4e487b7100000000000000000000000000000000000000000000000000000000600052602160045260246000fd5b81526020016003820160019054906101000a900473ffffffffffffffffffffffffffffffffffffffff1673ffffffffffffffffffffffffffffffffffffffff1673ffffffffffffffffffffffffffffffffffffffff16815250509050600073ffffffffffffffffffffffffffffffffffffffff16816020015173ffffffffffffffffffffffffffffffffffffffff161415610e46576040517f08c379a0000000000000000000000000000000000000000000000000000000008152600401610e3d90611a60565b60405180910390fd5b80602001518160400151935093505050915091565b600360003373ffffffffffffffffffffffffffffffffffffffff1673ffffffffffffffffffffffffffffffffffffffff16815260200190815260200160002060009054906101000a900460ff1615610ee8576040517f08c379a0000000000000000000000000000000000000000000000000000000008152600401610edf906119a0565b60405180910390fd5b60008054906101000a900473ffffffffffffffffffffffffffffffffffffffff1673ffffffffffffffffffffffffffffffffffffffff1663b58d520a826040518263ffffffff1660e01b8152600401610f4191906118d6565b60206040518083038186803b158015610f5957600080fd5b505afa158015610f6d573d6000803e3d6000fd5b505050506040513d601f19601f82011682018060405250810190610f919190611671565b610fd0576040517f08c379a0000000000000000000000000000000000000000000000000000000008152600401610fc790611a20565b60405180910390fd5b60405180604001604052808273ffffffffffffffffffffffffffffffffffffffff16815260200160011515815250600260003373ffffffffffffffffffffffffffffffffffffffff1673ffffffffffffffffffffffffffffffffffffffff16815260200190815260200160002060008201518160000160006101000a81548173ffffffffffffffffffffffffffffffffffffffff021916908373ffffffffffffffffffffffffffffffffffffffff16021790555060208201518160000160146101000a81548160ff0219169083151502179055509050506001600360003373ffffffffffffffffffffffffffffffffffffffff1673ffffffffffffffffffffffffffffffffffffffff16815260200190815260200160002060006101000a81548160ff0219169083151502179055507f98aea3a5d98dfc35b93239c319c83a1dfd6515686e1318d1c9e45bab8a471a3d8160405161112e91906118d6565b60405180910390a150565b60008060009054906101000a900473ffffffffffffffffffffffffffffffffffffffff1673ffffffffffffffffffffffffffffffffffffffff166372c8e330336040518263ffffffff1660e01b815260040161119591906118d6565b60206040518083038186803b1580156111ad57600080fd5b505afa1580156111c1573d6000803e3d6000fd5b505050506040513d601f19601f820116820180604052508101906111e59190611671565b611224576040517f08c379a000000000000000000000000000000000000000000000000000000000815260040161121b90611a00565b60405180910390fd5b60006001600081548092919061123990611d7e565b91905055905060006040518060a001604052808381526020018673ffffffffffffffffffffffffffffffffffffffff168152602001858152602001600060018111156112ae577f4e487b7100000000000000000000000000000000000000000000000000000000600052602160045260246000fd5b81526020013373ffffffffffffffffffffffffffffffffffffffff16815250905080600460008481526020019081526020016000206000820151816000015560208201518160010160006101000a81548173ffffffffffffffffffffffffffffffffffffffff021916908373ffffffffffffffffffffffffffffffffffffffff16021790555060408201518160020190805190602001906113509291906114aa565b5060608201518160030160006101000a81548160ff021916908360018111156113a2577f4e487b7100000000000000000000000000000000000000000000000000000000600052602160045260246000fd5b021790555060808201518160030160016101000a81548173ffffffffffffffffffffffffffffffffffffffff021916908373ffffffffffffffffffffffffffffffffffffffff1602179055509050507f435273682f19c830bb3fd3d1ed1aefb672214b65429f7d507afa24c6f9f18ad5823387876040516114269493929190611af2565b60405180910390a1819250505092915050565b60026020528060005260406000206000915090508060000160009054906101000a900473ffffffffffffffffffffffffffffffffffffffff16908060000160149054906101000a900460ff16905082565b60036020528060005260406000206000915054906101000a900460ff1681565b8280546114b690611d1b565b90600052602060002090601f0160209004810192826114d8576000855561151f565b82601f106114f157805160ff191683800117855561151f565b8280016001018555821561151f579182015b8281111561151e578251825591602001919060010190611503565b5b50905061152c9190611530565b5090565b5b80821115611549576000816000905550600101611531565b5090565b600061156061155b84611bfb565b611bd6565b90508281526020810184848401111561157857600080fd5b611583848285611cd9565b509392505050565b60008135905061159a81612149565b92915050565b6000815190506115af81612160565b92915050565b600082601f8301126115c657600080fd5b81356115d684826020860161154d565b91505092915050565b6000813590506115ee81612177565b92915050565b60006020828403121561160657600080fd5b60006116148482850161158b565b91505092915050565b6000806040838503121561163057600080fd5b600061163e8582860161158b565b925050602083013567ffffffffffffffff81111561165b57600080fd5b611667858286016115b5565b9150509250929050565b60006020828403121561168357600080fd5b6000611691848285016115a0565b91505092915050565b6000602082840312156116ac57600080fd5b60006116ba848285016115df565b91505092915050565b600080604083850312156116d657600080fd5b60006116e4858286016115df565b925050602083013567ffffffffffffffff81111561170157600080fd5b61170d858286016115b5565b9150509250929050565b61172081611c48565b82525050565b61172f81611c5a565b82525050565b61173e81611ca3565b82525050565b61174d81611cc7565b82525050565b600061175e82611c2c565b6117688185611c37565b9350611778818560208601611ce8565b61178181611e83565b840191505092915050565b6000611799602683611c37565b91506117a482611e94565b604082019050919050565b60006117bc602483611c37565b91506117c782611ee3565b604082019050919050565b60006117df603983611c37565b91506117ea82611f32565b604082019050919050565b6000611802602e83611c37565b915061180d82611f81565b604082019050919050565b6000611825603683611c37565b915061183082611fd0565b604082019050919050565b6000611848602a83611c37565b91506118538261201f565b604082019050919050565b600061186b603683611c37565b91506118768261206e565b604082019050919050565b600061188e601b83611c37565b9150611899826120bd565b602082019050919050565b60006118b1603083611c37565b91506118bc826120e6565b604082019050919050565b6118d081611c99565b82525050565b60006020820190506118eb6000830184611717565b92915050565b60006040820190506119066000830185611717565b6119136020830184611726565b9392505050565b600060408201905061192f6000830185611717565b81810360208301526119418184611753565b90509392505050565b600060208201905061195f6000830184611726565b92915050565b600060208201905061197a6000830184611735565b92915050565b600060208201905081810360008301526119998161178c565b9050919050565b600060208201905081810360008301526119b9816117af565b9050919050565b600060208201905081810360008301526119d9816117d2565b9050919050565b600060208201905081810360008301526119f9816117f5565b9050919050565b60006020820190508181036000830152611a1981611818565b9050919050565b60006020820190508181036000830152611a398161183b565b9050919050565b60006020820190508181036000830152611a598161185e565b9050919050565b60006020820190508181036000830152611a7981611881565b9050919050565b60006020820190508181036000830152611a99816118a4565b9050919050565b6000602082019050611ab560008301846118c7565b92915050565b6000606082019050611ad060008301866118c7565b611add6020830185611717565b611aea6040830184611717565b949350505050565b6000608082019050611b0760008301876118c7565b611b146020830186611717565b611b216040830185611717565b8181036060830152611b338184611753565b905095945050505050565b6000606082019050611b5360008301866118c7565b611b606020830185611717565b8181036040830152611b728184611753565b9050949350505050565b600060a082019050611b9160008301886118c7565b611b9e6020830187611717565b8181036040830152611bb08186611753565b9050611bbf6060830185611744565b611bcc6080830184611717565b9695505050505050565b6000611be0611bf1565b9050611bec8282611d4d565b919050565b6000604051905090565b600067ffffffffffffffff821115611c1657611c15611e54565b5b611c1f82611e83565b9050602081019050919050565b600081519050919050565b600082825260208201905092915050565b6000611c5382611c79565b9050919050565b60008115159050919050565b6000819050611c7482612135565b919050565b600073ffffffffffffffffffffffffffffffffffffffff82169050919050565b6000819050919050565b6000611cae82611cb5565b9050919050565b6000611cc082611c79565b9050919050565b6000611cd282611c66565b9050919050565b82818337600083830152505050565b60005b83811015611d06578082015181840152602081019050611ceb565b83811115611d15576000848401525b50505050565b60006002820490506001821680611d3357607f821691505b60208210811415611d4757611d46611e25565b5b50919050565b611d5682611e83565b810181811067ffffffffffffffff82111715611d7557611d74611e54565b5b80604052505050565b6000611d8982611c99565b91507fffffffffffffffffffffffffffffffffffffffffffffffffffffffffffffffff821415611dbc57611dbb611dc7565b5b600182019050919050565b7f4e487b7100000000000000000000000000000000000000000000000000000000600052601160045260246000fd5b7f4e487b7100000000000000000000000000000000000000000000000000000000600052602160045260246000fd5b7f4e487b7100000000000000000000000000000000000000000000000000000000600052602260045260246000fd5b7f4e487b7100000000000000000000000000000000000000000000000000000000600052604160045260246000fd5b6000601f19601f8301169050919050565b7f4d656469636174696f6e206973206e6f7420726561647920666f7220636f6c6c60008201527f656374696f6e0000000000000000000000000000000000000000000000000000602082015250565b7f596f75206861766520616c72656164792073656c65637465642061207068617260008201527f6d61637900000000000000000000000000000000000000000000000000000000602082015250565b7f5468697320706861726d616379206973206e6f742073656c656374656420627960008201527f207468652070617469656e74206f722070687973696369616e00000000000000602082015250565b7f43616e277420636f6c6c656374206d656469636174696f6e2073696e6365206960008201527f74206973206e6f74207265616479000000000000000000000000000000000000602082015250565b7f4f6e6c79207468652050687973696369616e20697320616c6c6f77656420746f60008201527f206578656375746520746869732066756e6374696f6e00000000000000000000602082015250565b7f4f6e6c79207265676973746572656420706861726d61636965732063616e206260008201527f652073656c656374656400000000000000000000000000000000000000000000602082015250565b7f5468697320706861726d61637920646f6573206e6f742068617665206163636560008201527f737320746f2074686520707265736372697074696f6e00000000000000000000602082015250565b7f507265736372697074696f6e20646f6573206e6f742065786973740000000000600082015250565b7f4f6e6c792061207265676973746572656420506861726d6163792063616e207260008201527f756e20746869732066756e6374696f6e00000000000000000000000000000000602082015250565b6002811061214657612145611df6565b5b50565b61215281611c48565b811461215d57600080fd5b50565b61216981611c5a565b811461217457600080fd5b50565b61218081611c99565b811461218b57600080fd5b5056fea2646970667358221220270f80ce7bdb52c42eacbb6a021124c0f7e54ccd26d778e4921c2869eaf3d9e764736f6c63430008040033",
  "immutableReferences": {},
  "source": "// SPDX-License-Identifier: MIT\npragma solidity ^0.8.4;\n\nimport \"./Registration.sol\";\n\ncontract Prescription {\n\n    Registration public reg_contract;\n    uint256 private prescriptionCounter; // Counter for generating incremental prescription IDs\n\n    struct PharmacySelect {\n        address registeredPharmacy;\n        bool isSelected;\n    }\n\n    struct PrescriptionDetail {\n        uint256 prescriptionID; // Changed to uint256 for incremental ID\n        address patient;\n        string IPFShash;\n        MedicineCollectionState medicineCollectionState;\n        address physician;\n    }\n\n    // Mapping for storing the selected pharmacy for each patient or physician\n    mapping(address => PharmacySelect) public PharmaciesSelection;\n    mapping(address => bool) public hasPharmacySelected;\n\n    // Mapping to store prescriptions with unique ID\n    mapping(uint256 => PrescriptionDetail) public prescriptions;\n\n    enum MedicineCollectionState { ReadyForCollection, Collected }\n\n    event PharmacySelected(address _pharmacy);\n    event PrescriptionCreated(\n        uint256 prescriptionID,\n        address physician,\n        address patient,\n        string IPFShash\n    );\n    event MedicationIsPrepared(uint256 prescriptionID, address _pharmacy, address patient);\n    event MedicationIsCollected(uint256 prescriptionID, address patient, string IPFShash);\n\n    modifier onlyPhysician() {\n        require(reg_contract.Physician(msg.sender), \"Only the Physician is allowed to execute this function\");\n        _;\n    }\n\n    modifier onlyPatients() {\n        require(reg_contract.Patient(msg.sender), \"Only the patient is allowed to execute this function\");\n        _;\n    }\n\n    modifier onlyRegisteredPharmacies() {\n        require(reg_contract.Pharmacy(msg.sender), \"Only a registered Pharmacy can run this function\");\n        _;\n    }\n\n    constructor(address registrationSCAddress) {\n        reg_contract = Registration(registrationSCAddress);\n        prescriptionCounter = 0; // Initialize the prescription counter\n    }\n\n    function prescriptionCreation(\n        address _patient,\n        string memory _IPFShash\n    ) public onlyPhysician returns (uint256) {\n        uint256 prescriptionID = prescriptionCounter++;\n        PrescriptionDetail memory detail = PrescriptionDetail({\n            prescriptionID: prescriptionID,\n            patient: _patient,\n            IPFShash: _IPFShash,\n            medicineCollectionState: MedicineCollectionState.ReadyForCollection,\n            physician: msg.sender\n        });\n\n        prescriptions[prescriptionID] = detail;\n\n        emit PrescriptionCreated(\n            prescriptionID,\n            msg.sender,\n            _patient,\n            _IPFShash\n        );\n\n        return prescriptionID;\n    }\n\n    function selectPharmacy(address _pharmacyAddress) public {\n        require(!hasPharmacySelected[msg.sender], \"You have already selected a pharmacy\");\n        require(reg_contract.Pharmacy(_pharmacyAddress), \"Only registered pharmacies can be selected\");\n\n        PharmaciesSelection[msg.sender] = PharmacySelect(_pharmacyAddress, true);\n        hasPharmacySelected[msg.sender] = true;\n        emit PharmacySelected(_pharmacyAddress);\n    }\n\n    function accessPrescription(uint256 _prescriptionID) public view onlyRegisteredPharmacies returns (address, string memory) {\n        PharmacySelect memory selectedPharmacy = PharmaciesSelection[msg.sender];\n        require(selectedPharmacy.isSelected, \"This pharmacy does not have access to the prescription\");\n\n        PrescriptionDetail memory detail = prescriptions[_prescriptionID];\n        require(detail.patient != address(0), \"Prescription does not exist\");\n\n        return (detail.patient, detail.IPFShash);\n    }\n\n    function medicationPreparation(uint256 _prescriptionID) public onlyRegisteredPharmacies {\n        PrescriptionDetail storage detail = prescriptions[_prescriptionID];\n        require(detail.patient != address(0), \"Prescription does not exist\");\n        require(PharmaciesSelection[msg.sender].isSelected, \"This pharmacy is not selected by the patient or physician\");\n        require(detail.medicineCollectionState == MedicineCollectionState.ReadyForCollection, \"Medication is not ready for collection\");\n\n        emit MedicationIsPrepared(_prescriptionID, msg.sender, detail.patient);\n        detail.medicineCollectionState = MedicineCollectionState.ReadyForCollection;\n    }\n\n    function medicationCollection(uint256 _prescriptionID, string memory _IPFShash) public onlyRegisteredPharmacies {\n        PrescriptionDetail storage detail = prescriptions[_prescriptionID];\n        require(detail.patient != address(0), \"Prescription does not exist\");\n        require(detail.medicineCollectionState == MedicineCollectionState.ReadyForCollection, \"Can't collect medication since it is not ready\");\n\n        detail.IPFShash = _IPFShash;\n        detail.medicineCollectionState = MedicineCollectionState.Collected;\n        emit MedicationIsCollected(_prescriptionID, detail.patient, _IPFShash);\n    }\n}\n",
  "sourcePath": "/Users/butch/MSE/Capstone/ePrescription/truffle/contracts/Prescription.sol",
  "compiler": {
    "name": "solc",
    "version": "0.8.4+commit.c7e474f2.Emscripten.clang"
  },
  "schemaVersion": "3.4.16",
  "updatedAt": "2024-09-07T02:23:28.175Z",
  "networkType": "ethereum",
  "devdoc": {
    "kind": "dev",
    "methods": {},
    "version": 1
  },
  "userdoc": {
    "kind": "user",
    "methods": {},
    "version": 1
  }
}