{
  "contractName": "Prescription",
  "abi": [
    {
      "inputs": [
        {
          "internalType": "address",
          "name": "registrationSCAddress",
          "type": "address"
        }
      ],
      "stateMutability": "nonpayable",
      "type": "constructor"
    },
    {
      "anonymous": false,
      "inputs": [
        {
          "indexed": false,
          "internalType": "string",
          "name": "prescriptionID",
          "type": "string"
        },
        {
          "indexed": false,
          "internalType": "address",
          "name": "patient",
          "type": "address"
        }
      ],
      "name": "MedicationIsCollected",
      "type": "event"
    },
    {
      "anonymous": false,
      "inputs": [
        {
          "indexed": false,
          "internalType": "string",
          "name": "prescriptionID",
          "type": "string"
        },
        {
          "indexed": false,
          "internalType": "address",
          "name": "_pharmacy",
          "type": "address"
        },
        {
          "indexed": false,
          "internalType": "address",
          "name": "patient",
          "type": "address"
        }
      ],
      "name": "MedicationIsPrepared",
      "type": "event"
    },
    {
      "anonymous": false,
      "inputs": [
        {
          "indexed": false,
          "internalType": "string",
          "name": "prescriptionID",
          "type": "string"
        },
        {
          "indexed": true,
          "internalType": "address",
          "name": "_pharmacy",
          "type": "address"
        }
      ],
      "name": "PharmacySelected",
      "type": "event"
    },
    {
      "anonymous": false,
      "inputs": [
        {
          "indexed": false,
          "internalType": "string",
          "name": "prescriptionID",
          "type": "string"
        },
        {
          "indexed": false,
          "internalType": "address",
          "name": "_pharmacy",
          "type": "address"
        }
      ],
      "name": "PrescriptionAccepted",
      "type": "event"
    },
    {
      "anonymous": false,
      "inputs": [
        {
          "indexed": false,
          "internalType": "string",
          "name": "prescriptionID",
          "type": "string"
        },
        {
          "indexed": false,
          "internalType": "address",
          "name": "patient",
          "type": "address"
        }
      ],
      "name": "PrescriptionCancelled",
      "type": "event"
    },
    {
      "anonymous": false,
      "inputs": [
        {
          "indexed": false,
          "internalType": "string",
          "name": "prescriptionID",
          "type": "string"
        },
        {
          "indexed": true,
          "internalType": "address",
          "name": "physician",
          "type": "address"
        },
        {
          "indexed": true,
          "internalType": "address",
          "name": "patient",
          "type": "address"
        },
        {
          "indexed": false,
          "internalType": "string",
          "name": "IPFShash",
          "type": "string"
        }
      ],
      "name": "PrescriptionCreated",
      "type": "event"
    },
    {
      "anonymous": false,
      "inputs": [
        {
          "indexed": false,
          "internalType": "string",
          "name": "prescriptionID",
          "type": "string"
        },
        {
          "indexed": false,
          "internalType": "address",
          "name": "_pharmacy",
          "type": "address"
        }
      ],
      "name": "PrescriptionRejected",
      "type": "event"
    },
    {
      "inputs": [
        {
          "internalType": "string",
          "name": "",
          "type": "string"
        },
        {
          "internalType": "address",
          "name": "",
          "type": "address"
        }
      ],
      "name": "hasPharmacySelected",
      "outputs": [
        {
          "internalType": "bool",
          "name": "",
          "type": "bool"
        }
      ],
      "stateMutability": "view",
      "type": "function",
      "constant": true
    },
    {
      "inputs": [
        {
          "internalType": "string",
          "name": "",
          "type": "string"
        }
      ],
      "name": "prescriptionToPharmacy",
      "outputs": [
        {
          "internalType": "address",
          "name": "",
          "type": "address"
        }
      ],
      "stateMutability": "view",
      "type": "function",
      "constant": true
    },
    {
      "inputs": [
        {
          "internalType": "string",
          "name": "",
          "type": "string"
        }
      ],
      "name": "prescriptions",
      "outputs": [
        {
          "internalType": "string",
          "name": "prescriptionID",
          "type": "string"
        },
        {
          "internalType": "address",
          "name": "patient",
          "type": "address"
        },
        {
          "internalType": "string",
          "name": "IPFShash",
          "type": "string"
        },
        {
          "internalType": "enum Prescription.PrescriptionStatus",
          "name": "status",
          "type": "uint8"
        },
        {
          "internalType": "address",
          "name": "physician",
          "type": "address"
        }
      ],
      "stateMutability": "view",
      "type": "function",
      "constant": true
    },
    {
      "inputs": [],
      "name": "reg_contract",
      "outputs": [
        {
          "internalType": "contract Registration",
          "name": "",
          "type": "address"
        }
      ],
      "stateMutability": "view",
      "type": "function",
      "constant": true
    },
    {
      "inputs": [
        {
          "internalType": "string",
          "name": "_prescriptionID",
          "type": "string"
        },
        {
          "internalType": "address",
          "name": "_patient",
          "type": "address"
        },
        {
          "internalType": "string",
          "name": "_IPFShash",
          "type": "string"
        }
      ],
      "name": "prescriptionCreation",
      "outputs": [],
      "stateMutability": "nonpayable",
      "type": "function"
    },
    {
      "inputs": [
        {
          "internalType": "string",
          "name": "_prescriptionID",
          "type": "string"
        }
      ],
      "name": "accessPrescription",
      "outputs": [
        {
          "internalType": "address",
          "name": "",
          "type": "address"
        },
        {
          "internalType": "string",
          "name": "",
          "type": "string"
        },
        {
          "internalType": "enum Prescription.PrescriptionStatus",
          "name": "",
          "type": "uint8"
        }
      ],
      "stateMutability": "view",
      "type": "function",
      "constant": true
    },
    {
      "inputs": [
        {
          "internalType": "string",
          "name": "_prescriptionID",
          "type": "string"
        },
        {
          "internalType": "address",
          "name": "_pharmacyAddress",
          "type": "address"
        }
      ],
      "name": "selectPharmacy",
      "outputs": [],
      "stateMutability": "nonpayable",
      "type": "function"
    },
    {
      "inputs": [
        {
          "internalType": "string",
          "name": "_prescriptionID",
          "type": "string"
        }
      ],
      "name": "acceptPrescription",
      "outputs": [],
      "stateMutability": "nonpayable",
      "type": "function"
    },
    {
      "inputs": [
        {
          "internalType": "string",
          "name": "_prescriptionID",
          "type": "string"
        }
      ],
      "name": "rejectPrescription",
      "outputs": [],
      "stateMutability": "nonpayable",
      "type": "function"
    },
    {
      "inputs": [
        {
          "internalType": "string",
          "name": "_prescriptionID",
          "type": "string"
        }
      ],
      "name": "medicationPreparation",
      "outputs": [],
      "stateMutability": "nonpayable",
      "type": "function"
    },
    {
      "inputs": [
        {
          "internalType": "string",
          "name": "_prescriptionID",
          "type": "string"
        }
      ],
      "name": "medicationCollection",
      "outputs": [],
      "stateMutability": "nonpayable",
      "type": "function"
    },
    {
      "inputs": [
        {
          "internalType": "string",
          "name": "_prescriptionID",
          "type": "string"
        }
      ],
      "name": "cancelPrescription",
      "outputs": [],
      "stateMutability": "nonpayable",
      "type": "function"
    },
    {
      "inputs": [
        {
          "internalType": "string",
          "name": "_prescriptionID",
          "type": "string"
        }
      ],
      "name": "getAssignedPharmacy",
      "outputs": [
        {
          "internalType": "address",
          "name": "",
          "type": "address"
        }
      ],
      "stateMutability": "view",
      "type": "function",
      "constant": true
    }
  ],
  "bytecode": "0x60806040523480156200001157600080fd5b506040516200429238038062004292833981810160405281019062000037919062000095565b806000806101000a81548173ffffffffffffffffffffffffffffffffffffffff021916908373ffffffffffffffffffffffffffffffffffffffff160217905550506200010f565b6000815190506200008f81620000f5565b92915050565b600060208284031215620000a857600080fd5b6000620000b8848285016200007e565b91505092915050565b6000620000ce82620000d5565b9050919050565b600073ffffffffffffffffffffffffffffffffffffffff82169050919050565b6200010081620000c1565b81146200010c57600080fd5b50565b614173806200011f6000396000f3fe608060405234801561001057600080fd5b50600436106100ce5760003560e01c80639276483d1161008c578063b9e7d08111610066578063b9e7d08114610223578063c4a578ab1461023f578063cf8c8e471461025b578063d85dc61d14610277576100ce565b80639276483d146101a757806394e1c9f3146101d75780639e012a5714610207576100ce565b80627a248f146100d3578063173b0e10146101035780631b710299146101215780633b1dfae51461013d57806356813d7e1461016f57806373731ed11461018b575b600080fd5b6100ed60048036038101906100e891906132a4565b6102ab565b6040516100fa91906136a5565b60405180910390f35b61010b61074c565b6040516101189190613719565b60405180910390f35b61013b60048036038101906101369190613339565b610770565b005b610157600480360381019061015291906132a4565b610b45565b604051610166939291906136c0565b60405180910390f35b610189600480360381019061018491906132a4565b6112b9565b005b6101a560048036038101906101a091906132a4565b61186c565b005b6101c160048036038101906101bc91906132a4565b611c2e565b6040516101ce91906136a5565b60405180910390f35b6101f160048036038101906101ec91906132e5565b611c77565b6040516101fe91906136fe565b60405180910390f35b610221600480360381019061021c91906132e5565b611cbc565b005b61023d600480360381019061023891906132a4565b6123e8565b005b610259600480360381019061025491906132a4565b6127ac565b005b610275600480360381019061027091906132a4565b612bff565b005b610291600480360381019061028c91906132a4565b612f9d565b6040516102a29594939291906137c4565b60405180910390f35b60008160006002826040516102c0919061368e565b90815260200160405180910390206040518060a00160405290816000820180546102e990613ba2565b80601f016020809104026020016040519081016040528092919081815260200182805461031590613ba2565b80156103625780601f1061033757610100808354040283529160200191610362565b820191906000526020600020905b81548152906001019060200180831161034557829003601f168201915b505050505081526020016001820160009054906101000a900473ffffffffffffffffffffffffffffffffffffffff1673ffffffffffffffffffffffffffffffffffffffff1673ffffffffffffffffffffffffffffffffffffffff1681526020016002820180546103d190613ba2565b80601f01602080910402602001604051908101604052809291908181526020018280546103fd90613ba2565b801561044a5780601f1061041f5761010080835404028352916020019161044a565b820191906000526020600020905b81548152906001019060200180831161042d57829003601f168201915b505050505081526020016003820160009054906101000a900460ff16600681111561049e577f4e487b7100000000000000000000000000000000000000000000000000000000600052602160045260246000fd5b60068111156104d6577f4e487b7100000000000000000000000000000000000000000000000000000000600052602160045260246000fd5b81526020016003820160019054906101000a900473ffffffffffffffffffffffffffffffffffffffff1673ffffffffffffffffffffffffffffffffffffffff1673ffffffffffffffffffffffffffffffffffffffff168152505090506000600183604051610544919061368e565b908152602001604051809103902060003373ffffffffffffffffffffffffffffffffffffffff1673ffffffffffffffffffffffffffffffffffffffff16815260200190815260200160002060009054906101000a900460ff169050816080015173ffffffffffffffffffffffffffffffffffffffff163373ffffffffffffffffffffffffffffffffffffffff16148061060c5750816020015173ffffffffffffffffffffffffffffffffffffffff163373ffffffffffffffffffffffffffffffffffffffff16145b806106145750805b806106c4575060008054906101000a900473ffffffffffffffffffffffffffffffffffffffff1673ffffffffffffffffffffffffffffffffffffffff16634c892ab9336040518263ffffffff1660e01b815260040161067391906136a5565b60206040518083038186803b15801561068b57600080fd5b505afa15801561069f573d6000803e3d6000fd5b505050506040513d601f19601f820116820180604052508101906106c3919061327b565b5b610703576040517f08c379a00000000000000000000000000000000000000000000000000000000081526004016106fa9061397c565b60405180910390fd5b600385604051610713919061368e565b908152602001604051809103902060009054906101000a900473ffffffffffffffffffffffffffffffffffffffff169350505050919050565b60008054906101000a900473ffffffffffffffffffffffffffffffffffffffff1681565b60008054906101000a900473ffffffffffffffffffffffffffffffffffffffff1673ffffffffffffffffffffffffffffffffffffffff166372c8e330336040518263ffffffff1660e01b81526004016107c991906136a5565b60206040518083038186803b1580156107e157600080fd5b505afa1580156107f5573d6000803e3d6000fd5b505050506040513d601f19601f82011682018060405250810190610819919061327b565b610858576040517f08c379a000000000000000000000000000000000000000000000000000000000815260040161084f9061395c565b60405180910390fd5b600073ffffffffffffffffffffffffffffffffffffffff16600284604051610880919061368e565b908152602001604051809103902060010160009054906101000a900473ffffffffffffffffffffffffffffffffffffffff1673ffffffffffffffffffffffffffffffffffffffff1614610908576040517f08c379a00000000000000000000000000000000000000000000000000000000081526004016108ff9061393c565b60405180910390fd5b60006040518060a001604052808581526020018473ffffffffffffffffffffffffffffffffffffffff16815260200183815260200160006006811115610977577f4e487b7100000000000000000000000000000000000000000000000000000000600052602160045260246000fd5b81526020013373ffffffffffffffffffffffffffffffffffffffff168152509050806002856040516109a9919061368e565b908152602001604051809103902060008201518160000190805190602001906109d3929190613146565b5060208201518160010160006101000a81548173ffffffffffffffffffffffffffffffffffffffff021916908373ffffffffffffffffffffffffffffffffffffffff1602179055506040820151816002019080519060200190610a37929190613146565b5060608201518160030160006101000a81548160ff02191690836006811115610a89577f4e487b7100000000000000000000000000000000000000000000000000000000600052602160045260246000fd5b021790555060808201518160030160016101000a81548173ffffffffffffffffffffffffffffffffffffffff021916908373ffffffffffffffffffffffffffffffffffffffff1602179055509050508273ffffffffffffffffffffffffffffffffffffffff163373ffffffffffffffffffffffffffffffffffffffff167f13a3620159e2b2e1792b2b9eec71292a542a7d354064ecc767e5eb700a877bbd8685604051610b37929190613825565b60405180910390a350505050565b600060606000836000600282604051610b5e919061368e565b90815260200160405180910390206040518060a0016040529081600082018054610b8790613ba2565b80601f0160208091040260200160405190810160405280929190818152602001828054610bb390613ba2565b8015610c005780601f10610bd557610100808354040283529160200191610c00565b820191906000526020600020905b815481529060010190602001808311610be357829003601f168201915b505050505081526020016001820160009054906101000a900473ffffffffffffffffffffffffffffffffffffffff1673ffffffffffffffffffffffffffffffffffffffff1673ffffffffffffffffffffffffffffffffffffffff168152602001600282018054610c6f90613ba2565b80601f0160208091040260200160405190810160405280929190818152602001828054610c9b90613ba2565b8015610ce85780601f10610cbd57610100808354040283529160200191610ce8565b820191906000526020600020905b815481529060010190602001808311610ccb57829003601f168201915b505050505081526020016003820160009054906101000a900460ff166006811115610d3c577f4e487b7100000000000000000000000000000000000000000000000000000000600052602160045260246000fd5b6006811115610d74577f4e487b7100000000000000000000000000000000000000000000000000000000600052602160045260246000fd5b81526020016003820160019054906101000a900473ffffffffffffffffffffffffffffffffffffffff1673ffffffffffffffffffffffffffffffffffffffff1673ffffffffffffffffffffffffffffffffffffffff168152505090506000600183604051610de2919061368e565b908152602001604051809103902060003373ffffffffffffffffffffffffffffffffffffffff1673ffffffffffffffffffffffffffffffffffffffff16815260200190815260200160002060009054906101000a900460ff169050816080015173ffffffffffffffffffffffffffffffffffffffff163373ffffffffffffffffffffffffffffffffffffffff161480610eaa5750816020015173ffffffffffffffffffffffffffffffffffffffff163373ffffffffffffffffffffffffffffffffffffffff16145b80610eb25750805b80610f62575060008054906101000a900473ffffffffffffffffffffffffffffffffffffffff1673ffffffffffffffffffffffffffffffffffffffff16634c892ab9336040518263ffffffff1660e01b8152600401610f1191906136a5565b60206040518083038186803b158015610f2957600080fd5b505afa158015610f3d573d6000803e3d6000fd5b505050506040513d601f19601f82011682018060405250810190610f61919061327b565b5b610fa1576040517f08c379a0000000000000000000000000000000000000000000000000000000008152600401610f989061397c565b60405180910390fd5b6000600288604051610fb3919061368e565b90815260200160405180910390206040518060a0016040529081600082018054610fdc90613ba2565b80601f016020809104026020016040519081016040528092919081815260200182805461100890613ba2565b80156110555780601f1061102a57610100808354040283529160200191611055565b820191906000526020600020905b81548152906001019060200180831161103857829003601f168201915b505050505081526020016001820160009054906101000a900473ffffffffffffffffffffffffffffffffffffffff1673ffffffffffffffffffffffffffffffffffffffff1673ffffffffffffffffffffffffffffffffffffffff1681526020016002820180546110c490613ba2565b80601f01602080910402602001604051908101604052809291908181526020018280546110f090613ba2565b801561113d5780601f106111125761010080835404028352916020019161113d565b820191906000526020600020905b81548152906001019060200180831161112057829003601f168201915b505050505081526020016003820160009054906101000a900460ff166006811115611191577f4e487b7100000000000000000000000000000000000000000000000000000000600052602160045260246000fd5b60068111156111c9577f4e487b7100000000000000000000000000000000000000000000000000000000600052602160045260246000fd5b81526020016003820160019054906101000a900473ffffffffffffffffffffffffffffffffffffffff1673ffffffffffffffffffffffffffffffffffffffff1673ffffffffffffffffffffffffffffffffffffffff16815250509050600073ffffffffffffffffffffffffffffffffffffffff16816020015173ffffffffffffffffffffffffffffffffffffffff161415611299576040517f08c379a000000000000000000000000000000000000000000000000000000000815260040161129090613a1c565b60405180910390fd5b806020015181604001518260600151965096509650505050509193909250565b8060006002826040516112cc919061368e565b90815260200160405180910390206040518060a00160405290816000820180546112f590613ba2565b80601f016020809104026020016040519081016040528092919081815260200182805461132190613ba2565b801561136e5780601f106113435761010080835404028352916020019161136e565b820191906000526020600020905b81548152906001019060200180831161135157829003601f168201915b505050505081526020016001820160009054906101000a900473ffffffffffffffffffffffffffffffffffffffff1673ffffffffffffffffffffffffffffffffffffffff1673ffffffffffffffffffffffffffffffffffffffff1681526020016002820180546113dd90613ba2565b80601f016020809104026020016040519081016040528092919081815260200182805461140990613ba2565b80156114565780601f1061142b57610100808354040283529160200191611456565b820191906000526020600020905b81548152906001019060200180831161143957829003601f168201915b505050505081526020016003820160009054906101000a900460ff1660068111156114aa577f4e487b7100000000000000000000000000000000000000000000000000000000600052602160045260246000fd5b60068111156114e2577f4e487b7100000000000000000000000000000000000000000000000000000000600052602160045260246000fd5b81526020016003820160019054906101000a900473ffffffffffffffffffffffffffffffffffffffff1673ffffffffffffffffffffffffffffffffffffffff1673ffffffffffffffffffffffffffffffffffffffff16815250509050806080015173ffffffffffffffffffffffffffffffffffffffff163373ffffffffffffffffffffffffffffffffffffffff16146115b0576040517f08c379a00000000000000000000000000000000000000000000000000000000081526004016115a79061389c565b60405180910390fd5b60006002846040516115c2919061368e565b90815260200160405180910390209050600073ffffffffffffffffffffffffffffffffffffffff168160010160009054906101000a900473ffffffffffffffffffffffffffffffffffffffff1673ffffffffffffffffffffffffffffffffffffffff161415611666576040517f08c379a000000000000000000000000000000000000000000000000000000000815260040161165d90613a1c565b60405180910390fd5b600060068111156116a0577f4e487b7100000000000000000000000000000000000000000000000000000000600052602160045260246000fd5b8160030160009054906101000a900460ff1660068111156116ea577f4e487b7100000000000000000000000000000000000000000000000000000000600052602160045260246000fd5b148061177757506001600681111561172b577f4e487b7100000000000000000000000000000000000000000000000000000000600052602160045260246000fd5b8160030160009054906101000a900460ff166006811115611775577f4e487b7100000000000000000000000000000000000000000000000000000000600052602160045260246000fd5b145b6117b6576040517f08c379a00000000000000000000000000000000000000000000000000000000081526004016117ad906138dc565b60405180910390fd5b60058160030160006101000a81548160ff02191690836006811115611804577f4e487b7100000000000000000000000000000000000000000000000000000000600052602160045260246000fd5b02179055507f981ec723f631e46e9c41b79378c7663d36dcb1a5e4f630a5c92e9f9fd946b5db848260010160009054906101000a900473ffffffffffffffffffffffffffffffffffffffff1660405161185e929190613756565b60405180910390a150505050565b60008054906101000a900473ffffffffffffffffffffffffffffffffffffffff1673ffffffffffffffffffffffffffffffffffffffff1663b58d520a336040518263ffffffff1660e01b81526004016118c591906136a5565b60206040518083038186803b1580156118dd57600080fd5b505afa1580156118f1573d6000803e3d6000fd5b505050506040513d601f19601f82011682018060405250810190611915919061327b565b611954576040517f08c379a000000000000000000000000000000000000000000000000000000000815260040161194b90613a3c565b60405180910390fd5b6000600282604051611966919061368e565b90815260200160405180910390209050600073ffffffffffffffffffffffffffffffffffffffff168160010160009054906101000a900473ffffffffffffffffffffffffffffffffffffffff1673ffffffffffffffffffffffffffffffffffffffff161415611a0a576040517f08c379a0000000000000000000000000000000000000000000000000000000008152600401611a0190613a1c565b60405180910390fd5b60036006811115611a44577f4e487b7100000000000000000000000000000000000000000000000000000000600052602160045260246000fd5b8160030160009054906101000a900460ff166006811115611a8e577f4e487b7100000000000000000000000000000000000000000000000000000000600052602160045260246000fd5b14611ace576040517f08c379a0000000000000000000000000000000000000000000000000000000008152600401611ac59061385c565b60405180910390fd5b600382604051611ade919061368e565b908152602001604051809103902060009054906101000a900473ffffffffffffffffffffffffffffffffffffffff1673ffffffffffffffffffffffffffffffffffffffff163373ffffffffffffffffffffffffffffffffffffffff1614611b7a576040517f08c379a0000000000000000000000000000000000000000000000000000000008152600401611b71906138fc565b60405180910390fd5b60048160030160006101000a81548160ff02191690836006811115611bc8577f4e487b7100000000000000000000000000000000000000000000000000000000600052602160045260246000fd5b02179055507fc771e981b2170f8ba2dd6410421a4d0a2d2dc06bbc5bdc9dbba7747da180a920828260010160009054906101000a900473ffffffffffffffffffffffffffffffffffffffff16604051611c22929190613756565b60405180910390a15050565b6003818051602081018201805184825260208301602085012081835280955050505050506000915054906101000a900473ffffffffffffffffffffffffffffffffffffffff1681565b6001828051602081018201805184825260208301602085012081835280955050505050506020528060005260406000206000915091509054906101000a900460ff1681565b60008054906101000a900473ffffffffffffffffffffffffffffffffffffffff1673ffffffffffffffffffffffffffffffffffffffff1663b58d520a826040518263ffffffff1660e01b8152600401611d1591906136a5565b60206040518083038186803b158015611d2d57600080fd5b505afa158015611d41573d6000803e3d6000fd5b505050506040513d601f19601f82011682018060405250810190611d65919061327b565b611da4576040517f08c379a0000000000000000000000000000000000000000000000000000000008152600401611d9b906139dc565b60405180910390fd5b6000600283604051611db6919061368e565b90815260200160405180910390209050600073ffffffffffffffffffffffffffffffffffffffff168160010160009054906101000a900473ffffffffffffffffffffffffffffffffffffffff1673ffffffffffffffffffffffffffffffffffffffff161415611e5a576040517f08c379a0000000000000000000000000000000000000000000000000000000008152600401611e5190613a1c565b60405180910390fd5b6000600384604051611e6c919061368e565b908152602001604051809103902060009054906101000a900473ffffffffffffffffffffffffffffffffffffffff169050600073ffffffffffffffffffffffffffffffffffffffff168173ffffffffffffffffffffffffffffffffffffffff16146121c857600060026006811115611f0d577f4e487b7100000000000000000000000000000000000000000000000000000000600052602160045260246000fd5b8360030160009054906101000a900460ff166006811115611f57577f4e487b7100000000000000000000000000000000000000000000000000000000600052602160045260246000fd5b1480611fe4575060036006811115611f98577f4e487b7100000000000000000000000000000000000000000000000000000000600052602160045260246000fd5b8360030160009054906101000a900460ff166006811115611fe2577f4e487b7100000000000000000000000000000000000000000000000000000000600052602160045260246000fd5b145b80612070575060046006811115612024577f4e487b7100000000000000000000000000000000000000000000000000000000600052602160045260246000fd5b8360030160009054906101000a900460ff16600681111561206e577f4e487b7100000000000000000000000000000000000000000000000000000000600052602160045260246000fd5b145b806120fc5750600560068111156120b0577f4e487b7100000000000000000000000000000000000000000000000000000000600052602160045260246000fd5b8360030160009054906101000a900460ff1660068111156120fa577f4e487b7100000000000000000000000000000000000000000000000000000000600052602160045260246000fd5b145b9050806121c6576000600186604051612115919061368e565b908152602001604051809103902060008473ffffffffffffffffffffffffffffffffffffffff1673ffffffffffffffffffffffffffffffffffffffff16815260200190815260200160002060006101000a81548160ff0219169083151502179055508173ffffffffffffffffffffffffffffffffffffffff167f0cdcf10b9b1b72d90e9604122416cd3f963f0e6f27e7a5389f5f00ed2d83127f866040516121bd9190613734565b60405180910390a25b505b6001846040516121d8919061368e565b908152602001604051809103902060008473ffffffffffffffffffffffffffffffffffffffff1673ffffffffffffffffffffffffffffffffffffffff16815260200190815260200160002060009054906101000a900460ff1615612271576040517f08c379a00000000000000000000000000000000000000000000000000000000081526004016122689061391c565b60405180910390fd5b60018085604051612282919061368e565b908152602001604051809103902060008573ffffffffffffffffffffffffffffffffffffffff1673ffffffffffffffffffffffffffffffffffffffff16815260200190815260200160002060006101000a81548160ff021916908315150217905550826003856040516122f5919061368e565b908152602001604051809103902060006101000a81548173ffffffffffffffffffffffffffffffffffffffff021916908373ffffffffffffffffffffffffffffffffffffffff16021790555060018260030160006101000a81548160ff0219169083600681111561238f577f4e487b7100000000000000000000000000000000000000000000000000000000600052602160045260246000fd5b02179055508273ffffffffffffffffffffffffffffffffffffffff167f0cdcf10b9b1b72d90e9604122416cd3f963f0e6f27e7a5389f5f00ed2d83127f856040516123da9190613734565b60405180910390a250505050565b60008054906101000a900473ffffffffffffffffffffffffffffffffffffffff1673ffffffffffffffffffffffffffffffffffffffff1663b58d520a336040518263ffffffff1660e01b815260040161244191906136a5565b60206040518083038186803b15801561245957600080fd5b505afa15801561246d573d6000803e3d6000fd5b505050506040513d601f19601f82011682018060405250810190612491919061327b565b6124d0576040517f08c379a00000000000000000000000000000000000000000000000000000000081526004016124c790613a3c565b60405180910390fd5b60006002826040516124e2919061368e565b90815260200160405180910390209050600073ffffffffffffffffffffffffffffffffffffffff168160010160009054906101000a900473ffffffffffffffffffffffffffffffffffffffff1673ffffffffffffffffffffffffffffffffffffffff161415612586576040517f08c379a000000000000000000000000000000000000000000000000000000000815260040161257d90613a1c565b60405180910390fd5b600260068111156125c0577f4e487b7100000000000000000000000000000000000000000000000000000000600052602160045260246000fd5b8160030160009054906101000a900460ff16600681111561260a577f4e487b7100000000000000000000000000000000000000000000000000000000600052602160045260246000fd5b1461264a576040517f08c379a0000000000000000000000000000000000000000000000000000000008152600401612641906139bc565b60405180910390fd5b60038260405161265a919061368e565b908152602001604051809103902060009054906101000a900473ffffffffffffffffffffffffffffffffffffffff1673ffffffffffffffffffffffffffffffffffffffff163373ffffffffffffffffffffffffffffffffffffffff16146126f6576040517f08c379a00000000000000000000000000000000000000000000000000000000081526004016126ed9061387c565b60405180910390fd5b60038160030160006101000a81548160ff02191690836006811115612744577f4e487b7100000000000000000000000000000000000000000000000000000000600052602160045260246000fd5b02179055507fdcb3e7e142b6b0ec21e0aa464eb1e1a79fdedc97fbde1bfc144206924f730b7c82338360010160009054906101000a900473ffffffffffffffffffffffffffffffffffffffff166040516127a093929190613786565b60405180910390a15050565b60008054906101000a900473ffffffffffffffffffffffffffffffffffffffff1673ffffffffffffffffffffffffffffffffffffffff1663b58d520a336040518263ffffffff1660e01b815260040161280591906136a5565b60206040518083038186803b15801561281d57600080fd5b505afa158015612831573d6000803e3d6000fd5b505050506040513d601f19601f82011682018060405250810190612855919061327b565b612894576040517f08c379a000000000000000000000000000000000000000000000000000000000815260040161288b90613a3c565b60405180910390fd5b60006002826040516128a6919061368e565b90815260200160405180910390209050600073ffffffffffffffffffffffffffffffffffffffff168160010160009054906101000a900473ffffffffffffffffffffffffffffffffffffffff1673ffffffffffffffffffffffffffffffffffffffff16141561294a576040517f08c379a000000000000000000000000000000000000000000000000000000000815260040161294190613a1c565b60405180910390fd5b60016006811115612984577f4e487b7100000000000000000000000000000000000000000000000000000000600052602160045260246000fd5b8160030160009054906101000a900460ff1660068111156129ce577f4e487b7100000000000000000000000000000000000000000000000000000000600052602160045260246000fd5b14612a0e576040517f08c379a0000000000000000000000000000000000000000000000000000000008152600401612a05906138bc565b60405180910390fd5b600382604051612a1e919061368e565b908152602001604051809103902060009054906101000a900473ffffffffffffffffffffffffffffffffffffffff1673ffffffffffffffffffffffffffffffffffffffff163373ffffffffffffffffffffffffffffffffffffffff1614612aba576040517f08c379a0000000000000000000000000000000000000000000000000000000008152600401612ab1906139fc565b60405180910390fd5b60068160030160006101000a81548160ff02191690836006811115612b08577f4e487b7100000000000000000000000000000000000000000000000000000000600052602160045260246000fd5b0217905550600382604051612b1d919061368e565b908152602001604051809103902060006101000a81549073ffffffffffffffffffffffffffffffffffffffff02191690556000600183604051612b60919061368e565b908152602001604051809103902060003373ffffffffffffffffffffffffffffffffffffffff1673ffffffffffffffffffffffffffffffffffffffff16815260200190815260200160002060006101000a81548160ff0219169083151502179055507f99621f5f22a507863ad904ce90b315e4c6feab6fef5dff8ffacdfaef010309c98233604051612bf3929190613756565b60405180910390a15050565b60008054906101000a900473ffffffffffffffffffffffffffffffffffffffff1673ffffffffffffffffffffffffffffffffffffffff1663b58d520a336040518263ffffffff1660e01b8152600401612c5891906136a5565b60206040518083038186803b158015612c7057600080fd5b505afa158015612c84573d6000803e3d6000fd5b505050506040513d601f19601f82011682018060405250810190612ca8919061327b565b612ce7576040517f08c379a0000000000000000000000000000000000000000000000000000000008152600401612cde90613a3c565b60405180910390fd5b6000600282604051612cf9919061368e565b90815260200160405180910390209050600073ffffffffffffffffffffffffffffffffffffffff168160010160009054906101000a900473ffffffffffffffffffffffffffffffffffffffff1673ffffffffffffffffffffffffffffffffffffffff161415612d9d576040517f08c379a0000000000000000000000000000000000000000000000000000000008152600401612d9490613a1c565b60405180910390fd5b60016006811115612dd7577f4e487b7100000000000000000000000000000000000000000000000000000000600052602160045260246000fd5b8160030160009054906101000a900460ff166006811115612e21577f4e487b7100000000000000000000000000000000000000000000000000000000600052602160045260246000fd5b14612e61576040517f08c379a0000000000000000000000000000000000000000000000000000000008152600401612e58906138bc565b60405180910390fd5b600382604051612e71919061368e565b908152602001604051809103902060009054906101000a900473ffffffffffffffffffffffffffffffffffffffff1673ffffffffffffffffffffffffffffffffffffffff163373ffffffffffffffffffffffffffffffffffffffff1614612f0d576040517f08c379a0000000000000000000000000000000000000000000000000000000008152600401612f049061399c565b60405180910390fd5b60028160030160006101000a81548160ff02191690836006811115612f5b577f4e487b7100000000000000000000000000000000000000000000000000000000600052602160045260246000fd5b02179055507feedccd0e0694530c32c875bae5b120352e89ad3a16e27b67096128806a6efddd8233604051612f91929190613756565b60405180910390a15050565b600281805160208101820180518482526020830160208501208183528095505050505050600091509050806000018054612fd690613ba2565b80601f016020809104026020016040519081016040528092919081815260200182805461300290613ba2565b801561304f5780601f106130245761010080835404028352916020019161304f565b820191906000526020600020905b81548152906001019060200180831161303257829003601f168201915b5050505050908060010160009054906101000a900473ffffffffffffffffffffffffffffffffffffffff169080600201805461308a90613ba2565b80601f01602080910402602001604051908101604052809291908181526020018280546130b690613ba2565b80156131035780601f106130d857610100808354040283529160200191613103565b820191906000526020600020905b8154815290600101906020018083116130e657829003601f168201915b5050505050908060030160009054906101000a900460ff16908060030160019054906101000a900473ffffffffffffffffffffffffffffffffffffffff16905085565b82805461315290613ba2565b90600052602060002090601f01602090048101928261317457600085556131bb565b82601f1061318d57805160ff19168380011785556131bb565b828001600101855582156131bb579182015b828111156131ba57825182559160200191906001019061319f565b5b5090506131c891906131cc565b5090565b5b808211156131e55760008160009055506001016131cd565b5090565b60006131fc6131f784613a81565b613a5c565b90508281526020810184848401111561321457600080fd5b61321f848285613b60565b509392505050565b6000813590506132368161410f565b92915050565b60008151905061324b81614126565b92915050565b600082601f83011261326257600080fd5b81356132728482602086016131e9565b91505092915050565b60006020828403121561328d57600080fd5b600061329b8482850161323c565b91505092915050565b6000602082840312156132b657600080fd5b600082013567ffffffffffffffff8111156132d057600080fd5b6132dc84828501613251565b91505092915050565b600080604083850312156132f857600080fd5b600083013567ffffffffffffffff81111561331257600080fd5b61331e85828601613251565b925050602061332f85828601613227565b9150509250929050565b60008060006060848603121561334e57600080fd5b600084013567ffffffffffffffff81111561336857600080fd5b61337486828701613251565b935050602061338586828701613227565b925050604084013567ffffffffffffffff8111156133a257600080fd5b6133ae86828701613251565b9150509250925092565b6133c181613ad9565b82525050565b6133d081613aeb565b82525050565b6133df81613b2a565b82525050565b6133ee81613b4e565b82525050565b60006133ff82613ab2565b6134098185613abd565b9350613419818560208601613b6f565b61342281613c92565b840191505092915050565b600061343882613ab2565b6134428185613ace565b9350613452818560208601613b6f565b80840191505092915050565b600061346b602683613abd565b915061347682613ca3565b604082019050919050565b600061348e603183613abd565b915061349982613cf2565b604082019050919050565b60006134b1603e83613abd565b91506134bc82613d41565b604082019050919050565b60006134d4603583613abd565b91506134df82613d90565b604082019050919050565b60006134f7602083613abd565b915061350282613ddf565b602082019050919050565b600061351a604083613abd565b915061352582613e08565b604082019050919050565b600061353d603d83613abd565b915061354882613e57565b604082019050919050565b6000613560601e83613abd565b915061356b82613ea6565b602082019050919050565b6000613583603683613abd565b915061358e82613ecf565b604082019050919050565b60006135a6601383613abd565b91506135b182613f1e565b602082019050919050565b60006135c9603783613abd565b91506135d482613f47565b604082019050919050565b60006135ec602783613abd565b91506135f782613f96565b604082019050919050565b600061360f602a83613abd565b915061361a82613fe5565b604082019050919050565b6000613632603783613abd565b915061363d82614034565b604082019050919050565b6000613655601b83613abd565b915061366082614083565b602082019050919050565b6000613678603083613abd565b9150613683826140ac565b604082019050919050565b600061369a828461342d565b915081905092915050565b60006020820190506136ba60008301846133b8565b92915050565b60006060820190506136d560008301866133b8565b81810360208301526136e781856133f4565b90506136f660408301846133e5565b949350505050565b600060208201905061371360008301846133c7565b92915050565b600060208201905061372e60008301846133d6565b92915050565b6000602082019050818103600083015261374e81846133f4565b905092915050565b6000604082019050818103600083015261377081856133f4565b905061377f60208301846133b8565b9392505050565b600060608201905081810360008301526137a081866133f4565b90506137af60208301856133b8565b6137bc60408301846133b8565b949350505050565b600060a08201905081810360008301526137de81886133f4565b90506137ed60208301876133b8565b81810360408301526137ff81866133f4565b905061380e60608301856133e5565b61381b60808301846133b8565b9695505050505050565b6000604082019050818103600083015261383f81856133f4565b9050818103602083015261385381846133f4565b90509392505050565b600060208201905081810360008301526138758161345e565b9050919050565b6000602082019050818103600083015261389581613481565b9050919050565b600060208201905081810360008301526138b5816134a4565b9050919050565b600060208201905081810360008301526138d5816134c7565b9050919050565b600060208201905081810360008301526138f5816134ea565b9050919050565b600060208201905081810360008301526139158161350d565b9050919050565b6000602082019050818103600083015261393581613530565b9050919050565b6000602082019050818103600083015261395581613553565b9050919050565b6000602082019050818103600083015261397581613576565b9050919050565b6000602082019050818103600083015261399581613599565b9050919050565b600060208201905081810360008301526139b5816135bc565b9050919050565b600060208201905081810360008301526139d5816135df565b9050919050565b600060208201905081810360008301526139f581613602565b9050919050565b60006020820190508181036000830152613a1581613625565b9050919050565b60006020820190508181036000830152613a3581613648565b9050919050565b60006020820190508181036000830152613a558161366b565b9050919050565b6000613a66613a77565b9050613a728282613bd4565b919050565b6000604051905090565b600067ffffffffffffffff821115613a9c57613a9b613c63565b5b613aa582613c92565b9050602081019050919050565b600081519050919050565b600082825260208201905092915050565b600081905092915050565b6000613ae482613b0a565b9050919050565b60008115159050919050565b6000819050613b05826140fb565b919050565b600073ffffffffffffffffffffffffffffffffffffffff82169050919050565b6000613b3582613b3c565b9050919050565b6000613b4782613b0a565b9050919050565b6000613b5982613af7565b9050919050565b82818337600083830152505050565b60005b83811015613b8d578082015181840152602081019050613b72565b83811115613b9c576000848401525b50505050565b60006002820490506001821680613bba57607f821691505b60208210811415613bce57613bcd613c34565b5b50919050565b613bdd82613c92565b810181811067ffffffffffffffff82111715613bfc57613bfb613c63565b5b80604052505050565b7f4e487b7100000000000000000000000000000000000000000000000000000000600052602160045260246000fd5b7f4e487b7100000000000000000000000000000000000000000000000000000000600052602260045260246000fd5b7f4e487b7100000000000000000000000000000000000000000000000000000000600052604160045260246000fd5b6000601f19601f8301169050919050565b7f4d656469636174696f6e206973206e6f7420726561647920666f7220636f6c6c60008201527f656374696f6e0000000000000000000000000000000000000000000000000000602082015250565b7f4f6e6c79207468652061737369676e656420706861726d6163792063616e207060008201527f726570617265206d656469636174696f6e000000000000000000000000000000602082015250565b7f4f6e6c79207468652070687973696369616e2077686f2063726561746564207460008201527f68697320707265736372697074696f6e2063616e206163636573732069740000602082015250565b7f507265736372697074696f6e206973206e6f7420696e204177616974696e674660008201527f6f72436f6e6669726d6174696f6e207374617475730000000000000000000000602082015250565b7f507265736372697074696f6e2063616e6e6f742062652063616e63656c6c6564600082015250565b7f5468697320706861726d616379206973206e6f74207468652073656c6563746560008201527f6420706861726d61637920666f72207468697320707265736372697074696f6e602082015250565b7f5468697320706861726d6163792068617320616c7265616479206265656e207360008201527f656c656374656420666f72207468697320707265736372697074696f6e000000602082015250565b7f507265736372697074696f6e20494420616c7265616479206578697374730000600082015250565b7f4f6e6c79207468652050687973696369616e20697320616c6c6f77656420746f60008201527f206578656375746520746869732066756e6374696f6e00000000000000000000602082015250565b7f556e617574686f72697a65642061636365737300000000000000000000000000600082015250565b7f4f6e6c79207468652061737369676e656420706861726d6163792063616e206160008201527f6363657074207468697320707265736372697074696f6e000000000000000000602082015250565b7f507265736372697074696f6e206973206e6f7420696e20507265706172696e6760008201527f2073746174757300000000000000000000000000000000000000000000000000602082015250565b7f4f6e6c79207265676973746572656420706861726d61636965732063616e206260008201527f652073656c656374656400000000000000000000000000000000000000000000602082015250565b7f4f6e6c79207468652061737369676e656420706861726d6163792063616e207260008201527f656a656374207468697320707265736372697074696f6e000000000000000000602082015250565b7f507265736372697074696f6e20646f6573206e6f742065786973740000000000600082015250565b7f4f6e6c792061207265676973746572656420506861726d6163792063616e207260008201527f756e20746869732066756e6374696f6e00000000000000000000000000000000602082015250565b6007811061410c5761410b613c05565b5b50565b61411881613ad9565b811461412357600080fd5b50565b61412f81613aeb565b811461413a57600080fd5b5056fea26469706673582212206f87366eed161b3ce9300f2b2674a891f8691c688d7213fb7e476f3aae842c0d64736f6c63430008040033",
  "immutableReferences": {},
  "source": "// SPDX-License-Identifier: MIT\npragma solidity ^0.8.4;\n\nimport \"./Registration.sol\";\n\ncontract Prescription {\n\n    // State Variables\n    Registration public reg_contract;\n\n    // Structs\n    struct PrescriptionDetail {\n        string prescriptionID; \n        address patient;\n        string IPFShash;\n        PrescriptionStatus status;\n        address physician;\n    }\n\n    // Mappings\n    mapping(string => mapping(address => bool)) public hasPharmacySelected; \n    mapping(string => PrescriptionDetail) public prescriptions;\n    mapping(string => address) public prescriptionToPharmacy;\n\n    // Enums\n    enum PrescriptionStatus { AwaitingPharmacyAssignment, AwaitingForConfirmation, Preparing, ReadyForCollection, Collected, Cancelled, Reassigned }\n\n    // Events\n    event PharmacySelected(string prescriptionID, address indexed _pharmacy);\n    event PrescriptionCreated(\n        string prescriptionID, \n        address indexed physician,\n        address indexed patient,\n        string IPFShash\n    );\n    event PrescriptionAccepted(string prescriptionID, address _pharmacy); \n    event PrescriptionRejected(string prescriptionID, address _pharmacy); \n    event MedicationIsPrepared(string prescriptionID, address _pharmacy, address patient); \n    event MedicationIsCollected(string prescriptionID, address patient); \n    event PrescriptionCancelled(string prescriptionID, address patient); \n\n    // Modifiers\n    modifier onlyPhysician() {\n        require(reg_contract.Physician(msg.sender), \"Only the Physician is allowed to execute this function\");\n        _;\n    }\n\n    modifier onlyPatients() {\n        require(reg_contract.Patient(msg.sender), \"Only the patient is allowed to execute this function\");\n        _;\n    }\n\n    modifier onlyRegisteredPharmacies() {\n        require(reg_contract.Pharmacy(msg.sender), \"Only a registered Pharmacy can run this function\");\n        _;\n    }\n\n    modifier onlyAuthorized(string memory _prescriptionID) {\n        PrescriptionDetail memory detail = prescriptions[_prescriptionID];\n        bool isPharmacy = hasPharmacySelected[_prescriptionID][msg.sender];\n        \n        require(\n            msg.sender == detail.physician || \n            msg.sender == detail.patient || \n            isPharmacy ||\n            reg_contract.regulatoryAuthority(msg.sender),\n            \"Unauthorized access\"\n        );\n        _;\n    }\n\n    modifier onlyCreator(string memory _prescriptionID) {\n        PrescriptionDetail memory detail = prescriptions[_prescriptionID];\n        require(msg.sender == detail.physician, \"Only the physician who created this prescription can access it\");\n        _;\n    }\n\n    // Constructor\n    constructor(address registrationSCAddress) {\n        reg_contract = Registration(registrationSCAddress);\n    }\n\n    // Functions\n    function prescriptionCreation(\n        string memory _prescriptionID,\n        address _patient,\n        string memory _IPFShash\n    ) public onlyPhysician {\n        require(prescriptions[_prescriptionID].patient == address(0), \"Prescription ID already exists\"); \n\n        PrescriptionDetail memory detail = PrescriptionDetail({\n            prescriptionID: _prescriptionID,\n            patient: _patient,\n            IPFShash: _IPFShash,\n            status: PrescriptionStatus.AwaitingPharmacyAssignment,\n            physician: msg.sender\n        });\n\n        prescriptions[_prescriptionID] = detail;\n\n        emit PrescriptionCreated(\n            _prescriptionID,\n            msg.sender,\n            _patient,\n            _IPFShash\n        );\n    }\n\n    function accessPrescription(string memory _prescriptionID) public view onlyAuthorized(_prescriptionID) returns (address, string memory, PrescriptionStatus) {\n        PrescriptionDetail memory detail = prescriptions[_prescriptionID];\n        require(detail.patient != address(0), \"Prescription does not exist\");\n\n        return (detail.patient, detail.IPFShash, detail.status);\n    }\n\n    function selectPharmacy(string memory _prescriptionID, address _pharmacyAddress) public {\n        require(reg_contract.Pharmacy(_pharmacyAddress), \"Only registered pharmacies can be selected\");\n\n        PrescriptionDetail storage detail = prescriptions[_prescriptionID];\n        require(detail.patient != address(0), \"Prescription does not exist\");\n\n        address currentPharmacy = prescriptionToPharmacy[_prescriptionID];\n        \n        if (currentPharmacy != address(0)) {\n            bool wasAccepted = detail.status == PrescriptionStatus.Preparing || \n                              detail.status == PrescriptionStatus.ReadyForCollection ||\n                              detail.status == PrescriptionStatus.Collected || \n                              detail.status == PrescriptionStatus.Cancelled;\n\n            if (!wasAccepted) {\n                hasPharmacySelected[_prescriptionID][currentPharmacy] = false;\n                emit PharmacySelected(_prescriptionID, currentPharmacy);\n            }\n        }\n\n        require(!hasPharmacySelected[_prescriptionID][_pharmacyAddress], \"This pharmacy has already been selected for this prescription\");\n\n        hasPharmacySelected[_prescriptionID][_pharmacyAddress] = true;\n        prescriptionToPharmacy[_prescriptionID] = _pharmacyAddress;\n\n        detail.status = PrescriptionStatus.AwaitingForConfirmation;\n\n        emit PharmacySelected(_prescriptionID, _pharmacyAddress);\n    }\n\n    function acceptPrescription(string memory _prescriptionID) public onlyRegisteredPharmacies {\n        PrescriptionDetail storage detail = prescriptions[_prescriptionID];\n        require(detail.patient != address(0), \"Prescription does not exist\");\n        require(detail.status == PrescriptionStatus.AwaitingForConfirmation, \"Prescription is not in AwaitingForConfirmation status\");\n        require(msg.sender == prescriptionToPharmacy[_prescriptionID], \"Only the assigned pharmacy can accept this prescription\");\n\n        detail.status = PrescriptionStatus.Preparing;\n\n        emit PrescriptionAccepted(_prescriptionID, msg.sender);\n    }\n\n    function rejectPrescription(string memory _prescriptionID) public onlyRegisteredPharmacies {\n        PrescriptionDetail storage detail = prescriptions[_prescriptionID];\n        require(detail.patient != address(0), \"Prescription does not exist\");\n        require(detail.status == PrescriptionStatus.AwaitingForConfirmation, \"Prescription is not in AwaitingForConfirmation status\");\n        require(msg.sender == prescriptionToPharmacy[_prescriptionID], \"Only the assigned pharmacy can reject this prescription\");\n\n        detail.status = PrescriptionStatus.Reassigned;\n        delete prescriptionToPharmacy[_prescriptionID];\n        hasPharmacySelected[_prescriptionID][msg.sender] = false;\n\n        emit PrescriptionRejected(_prescriptionID, msg.sender);\n    }\n\n    function medicationPreparation(string memory _prescriptionID) public onlyRegisteredPharmacies {\n        PrescriptionDetail storage detail = prescriptions[_prescriptionID];\n        require(detail.patient != address(0), \"Prescription does not exist\");\n        require(detail.status == PrescriptionStatus.Preparing, \"Prescription is not in Preparing status\");\n        require(msg.sender == prescriptionToPharmacy[_prescriptionID], \"Only the assigned pharmacy can prepare medication\");\n\n        detail.status = PrescriptionStatus.ReadyForCollection;\n\n        emit MedicationIsPrepared(_prescriptionID, msg.sender, detail.patient);\n    }\n\n    function medicationCollection(string memory _prescriptionID) public onlyRegisteredPharmacies {\n        PrescriptionDetail storage detail = prescriptions[_prescriptionID];\n        require(detail.patient != address(0), \"Prescription does not exist\");\n        require(detail.status == PrescriptionStatus.ReadyForCollection, \"Medication is not ready for collection\");\n        require(msg.sender == prescriptionToPharmacy[_prescriptionID], \"This pharmacy is not the selected pharmacy for this prescription\");\n\n        detail.status = PrescriptionStatus.Collected;\n\n        emit MedicationIsCollected(_prescriptionID, detail.patient);\n    }\n\n    function cancelPrescription(string memory _prescriptionID) public onlyCreator(_prescriptionID) {\n        PrescriptionDetail storage detail = prescriptions[_prescriptionID];\n        require(detail.patient != address(0), \"Prescription does not exist\");\n        require(detail.status == PrescriptionStatus.AwaitingPharmacyAssignment || detail.status == PrescriptionStatus.AwaitingForConfirmation, \"Prescription cannot be cancelled\");\n\n        detail.status = PrescriptionStatus.Cancelled;\n        emit PrescriptionCancelled(_prescriptionID, detail.patient);\n    }\n\n    function getAssignedPharmacy(string memory _prescriptionID) public view onlyAuthorized(_prescriptionID) returns (address) {\n        return prescriptionToPharmacy[_prescriptionID];\n    }\n}\n",
  "sourcePath": "/Users/butch/MSE/Capstone/ePrescription/truffle/contracts/Prescription.sol",
  "compiler": {
    "name": "solc",
    "version": "0.8.4+commit.c7e474f2.Emscripten.clang"
  },
  "schemaVersion": "3.4.16",
  "updatedAt": "2024-09-20T11:05:22.226Z",
  "networkType": "ethereum",
  "devdoc": {
    "kind": "dev",
    "methods": {},
    "version": 1
  },
  "userdoc": {
    "kind": "user",
    "methods": {},
    "version": 1
  }
}