{
  "contractName": "Prescription",
  "abi": [
    {
      "inputs": [
        {
          "internalType": "address",
          "name": "registrationSCAddress",
          "type": "address"
        }
      ],
      "stateMutability": "nonpayable",
      "type": "constructor"
    },
    {
      "anonymous": false,
      "inputs": [
        {
          "indexed": false,
          "internalType": "address",
          "name": "patient",
          "type": "address"
        },
        {
          "indexed": false,
          "internalType": "uint256",
          "name": "patientID",
          "type": "uint256"
        },
        {
          "indexed": false,
          "internalType": "string",
          "name": "IPFShash",
          "type": "string"
        }
      ],
      "name": "MedicationIsCollected",
      "type": "event"
    },
    {
      "anonymous": false,
      "inputs": [
        {
          "indexed": false,
          "internalType": "address",
          "name": "_pharmacy",
          "type": "address"
        },
        {
          "indexed": false,
          "internalType": "uint256",
          "name": "patientID",
          "type": "uint256"
        }
      ],
      "name": "MedicationIsPrepared",
      "type": "event"
    },
    {
      "anonymous": false,
      "inputs": [
        {
          "indexed": false,
          "internalType": "address",
          "name": "_pharmacy",
          "type": "address"
        }
      ],
      "name": "PharmacySelected",
      "type": "event"
    },
    {
      "anonymous": false,
      "inputs": [
        {
          "indexed": false,
          "internalType": "address",
          "name": "physician",
          "type": "address"
        },
        {
          "indexed": false,
          "internalType": "uint256",
          "name": "patientID",
          "type": "uint256"
        },
        {
          "indexed": false,
          "internalType": "string",
          "name": "IPFShash",
          "type": "string"
        }
      ],
      "name": "PrescriptionCreated",
      "type": "event"
    },
    {
      "inputs": [],
      "name": "IPFShash",
      "outputs": [
        {
          "internalType": "string",
          "name": "",
          "type": "string"
        }
      ],
      "stateMutability": "view",
      "type": "function",
      "constant": true
    },
    {
      "inputs": [
        {
          "internalType": "address",
          "name": "",
          "type": "address"
        }
      ],
      "name": "PharmaciesSelection",
      "outputs": [
        {
          "internalType": "address",
          "name": "registeredPharmacy",
          "type": "address"
        },
        {
          "internalType": "bool",
          "name": "isSelected",
          "type": "bool"
        }
      ],
      "stateMutability": "view",
      "type": "function",
      "constant": true
    },
    {
      "inputs": [
        {
          "internalType": "address",
          "name": "",
          "type": "address"
        }
      ],
      "name": "hasPharmacySelected",
      "outputs": [
        {
          "internalType": "bool",
          "name": "",
          "type": "bool"
        }
      ],
      "stateMutability": "view",
      "type": "function",
      "constant": true
    },
    {
      "inputs": [],
      "name": "medicineCollectionState",
      "outputs": [
        {
          "internalType": "enum Prescription.MedicineCollectionState",
          "name": "",
          "type": "uint8"
        }
      ],
      "stateMutability": "view",
      "type": "function",
      "constant": true
    },
    {
      "inputs": [],
      "name": "patientID",
      "outputs": [
        {
          "internalType": "uint256",
          "name": "",
          "type": "uint256"
        }
      ],
      "stateMutability": "view",
      "type": "function",
      "constant": true
    },
    {
      "inputs": [],
      "name": "reg_contract",
      "outputs": [
        {
          "internalType": "contract Registration",
          "name": "",
          "type": "address"
        }
      ],
      "stateMutability": "view",
      "type": "function",
      "constant": true
    },
    {
      "inputs": [
        {
          "internalType": "uint256",
          "name": "_patientID",
          "type": "uint256"
        },
        {
          "internalType": "string",
          "name": "_IPFShash",
          "type": "string"
        }
      ],
      "name": "prescriptionCreation",
      "outputs": [],
      "stateMutability": "nonpayable",
      "type": "function"
    },
    {
      "inputs": [
        {
          "internalType": "address",
          "name": "_pharmacyAddress",
          "type": "address"
        }
      ],
      "name": "selectPharmacy",
      "outputs": [],
      "stateMutability": "nonpayable",
      "type": "function"
    },
    {
      "inputs": [],
      "name": "accessPrescription",
      "outputs": [
        {
          "internalType": "uint256",
          "name": "",
          "type": "uint256"
        },
        {
          "internalType": "string",
          "name": "",
          "type": "string"
        }
      ],
      "stateMutability": "view",
      "type": "function",
      "constant": true
    },
    {
      "inputs": [
        {
          "internalType": "uint256",
          "name": "_patientID",
          "type": "uint256"
        }
      ],
      "name": "medicationPreparation",
      "outputs": [],
      "stateMutability": "nonpayable",
      "type": "function"
    },
    {
      "inputs": [
        {
          "internalType": "uint256",
          "name": "_patientID",
          "type": "uint256"
        },
        {
          "internalType": "string",
          "name": "_IPFShash",
          "type": "string"
        }
      ],
      "name": "medicationCollection",
      "outputs": [],
      "stateMutability": "nonpayable",
      "type": "function"
    }
  ],
  "bytecode": "0x60806040523480156200001157600080fd5b5060405162001b3338038062001b33833981810160405281019062000037919062000095565b806000806101000a81548173ffffffffffffffffffffffffffffffffffffffff021916908373ffffffffffffffffffffffffffffffffffffffff160217905550506200010f565b6000815190506200008f81620000f5565b92915050565b600060208284031215620000a857600080fd5b6000620000b8848285016200007e565b91505092915050565b6000620000ce82620000d5565b9050919050565b600073ffffffffffffffffffffffffffffffffffffffff82169050919050565b6200010081620000c1565b81146200010c57600080fd5b50565b611a14806200011f6000396000f3fe608060405234801561001057600080fd5b50600436106100a95760003560e01c80635309ea1a116100715780635309ea1a146101415780635d9c26091461015d5780637ad3337f14610179578063c1a30a5814610197578063c9ae723e146101c8578063f680a7bd146101f8576100a9565b8063093d0602146100ae578063173b0e10146100ca5780631b341fdf146100e85780634e710e2e146101045780634f37772014610123575b600080fd5b6100c860048036038101906100c39190611004565b610216565b005b6100d2610423565b6040516100df919061137e565b60405180910390f35b61010260048036038101906100fd919061102d565b610447565b005b61010c61058f565b60405161011a9291906114d1565b60405180910390f35b61012b610818565b60405161013891906113b4565b60405180910390f35b61015b6004803603810190610156919061102d565b6108a6565b005b61017760048036038101906101729190610fb2565b610b00565b005b610181610dde565b60405161018e9190611399565b60405180910390f35b6101b160048036038101906101ac9190610fb2565b610df1565b6040516101bf929190611295565b60405180910390f35b6101e260048036038101906101dd9190610fb2565b610e42565b6040516101ef9190611363565b60405180910390f35b610200610e62565b60405161020d91906114b6565b60405180910390f35b60008054906101000a900473ffffffffffffffffffffffffffffffffffffffff1673ffffffffffffffffffffffffffffffffffffffff1663b58d520a336040518263ffffffff1660e01b815260040161026f919061127a565b60206040518083038186803b15801561028757600080fd5b505afa15801561029b573d6000803e3d6000fd5b505050506040513d601f19601f820116820180604052508101906102bf9190610fdb565b6102fe576040517f08c379a00000000000000000000000000000000000000000000000000000000081526004016102f590611496565b60405180910390fd5b600160003373ffffffffffffffffffffffffffffffffffffffff1673ffffffffffffffffffffffffffffffffffffffff16815260200190815260200160002060000160149054906101000a900460ff1661038d576040517f08c379a0000000000000000000000000000000000000000000000000000000008152600401610384906113f6565b60405180910390fd5b806004819055507f0db3ab42cb85bab43288b33bc309bda5d9b5819115f15f32ce1772ed5b6c0253336004546040516103c79291906112be565b60405180910390a16000600360006101000a81548160ff0219169083600181111561041b577f4e487b7100000000000000000000000000000000000000000000000000000000600052602160045260246000fd5b021790555050565b60008054906101000a900473ffffffffffffffffffffffffffffffffffffffff1681565b60008054906101000a900473ffffffffffffffffffffffffffffffffffffffff1673ffffffffffffffffffffffffffffffffffffffff166372c8e330336040518263ffffffff1660e01b81526004016104a0919061127a565b60206040518083038186803b1580156104b857600080fd5b505afa1580156104cc573d6000803e3d6000fd5b505050506040513d601f19601f820116820180604052508101906104f09190610fdb565b61052f576040517f08c379a000000000000000000000000000000000000000000000000000000000815260040161052690611436565b60405180910390fd5b81600481905550806005908051906020019061054c929190610e68565b507f82b096f5e1511176f50a4cf537036f7115537c8dae1417f4434ab7ae6e64fe9d33600454600560405161058393929190611325565b60405180910390a15050565b6000606060008054906101000a900473ffffffffffffffffffffffffffffffffffffffff1673ffffffffffffffffffffffffffffffffffffffff1663b58d520a336040518263ffffffff1660e01b81526004016105ec919061127a565b60206040518083038186803b15801561060457600080fd5b505afa158015610618573d6000803e3d6000fd5b505050506040513d601f19601f8201168201806040525081019061063c9190610fdb565b61067b576040517f08c379a000000000000000000000000000000000000000000000000000000000815260040161067290611496565b60405180910390fd5b6000600160003373ffffffffffffffffffffffffffffffffffffffff1673ffffffffffffffffffffffffffffffffffffffff1681526020019081526020016000206040518060400160405290816000820160009054906101000a900473ffffffffffffffffffffffffffffffffffffffff1673ffffffffffffffffffffffffffffffffffffffff1673ffffffffffffffffffffffffffffffffffffffff1681526020016000820160149054906101000a900460ff1615151515815250509050806020015161077e576040517f08c379a000000000000000000000000000000000000000000000000000000000815260040161077590611476565b60405180910390fd5b600454600580805461078f9061165b565b80601f01602080910402602001604051908101604052809291908181526020018280546107bb9061165b565b80156108085780601f106107dd57610100808354040283529160200191610808565b820191906000526020600020905b8154815290600101906020018083116107eb57829003601f168201915b5050505050905092509250509091565b600580546108259061165b565b80601f01602080910402602001604051908101604052809291908181526020018280546108519061165b565b801561089e5780601f106108735761010080835404028352916020019161089e565b820191906000526020600020905b81548152906001019060200180831161088157829003601f168201915b505050505081565b60008054906101000a900473ffffffffffffffffffffffffffffffffffffffff1673ffffffffffffffffffffffffffffffffffffffff1663b58d520a336040518263ffffffff1660e01b81526004016108ff919061127a565b60206040518083038186803b15801561091757600080fd5b505afa15801561092b573d6000803e3d6000fd5b505050506040513d601f19601f8201168201806040525081019061094f9190610fdb565b61098e576040517f08c379a000000000000000000000000000000000000000000000000000000000815260040161098590611496565b60405180910390fd5b600060018111156109c8577f4e487b7100000000000000000000000000000000000000000000000000000000600052602160045260246000fd5b600360009054906101000a900460ff166001811115610a10577f4e487b7100000000000000000000000000000000000000000000000000000000600052602160045260246000fd5b14610a50576040517f08c379a0000000000000000000000000000000000000000000000000000000008152600401610a4790611416565b60405180910390fd5b816004819055508060059080519060200190610a6d929190610e68565b506001600360006101000a81548160ff02191690836001811115610aba577f4e487b7100000000000000000000000000000000000000000000000000000000600052602160045260246000fd5b02179055507f935a6ef2d37a18e9abb605ff95fb555d405a0174bf75435413b0aa64d283739c3360045483604051610af4939291906112e7565b60405180910390a15050565b600260003373ffffffffffffffffffffffffffffffffffffffff1673ffffffffffffffffffffffffffffffffffffffff16815260200190815260200160002060009054906101000a900460ff1615610b8d576040517f08c379a0000000000000000000000000000000000000000000000000000000008152600401610b84906113d6565b60405180910390fd5b60008054906101000a900473ffffffffffffffffffffffffffffffffffffffff1673ffffffffffffffffffffffffffffffffffffffff1663b58d520a826040518263ffffffff1660e01b8152600401610be6919061127a565b60206040518083038186803b158015610bfe57600080fd5b505afa158015610c12573d6000803e3d6000fd5b505050506040513d601f19601f82011682018060405250810190610c369190610fdb565b610c75576040517f08c379a0000000000000000000000000000000000000000000000000000000008152600401610c6c90611456565b60405180910390fd5b60405180604001604052808273ffffffffffffffffffffffffffffffffffffffff16815260200160011515815250600160003373ffffffffffffffffffffffffffffffffffffffff1673ffffffffffffffffffffffffffffffffffffffff16815260200190815260200160002060008201518160000160006101000a81548173ffffffffffffffffffffffffffffffffffffffff021916908373ffffffffffffffffffffffffffffffffffffffff16021790555060208201518160000160146101000a81548160ff0219169083151502179055509050506001600260003373ffffffffffffffffffffffffffffffffffffffff1673ffffffffffffffffffffffffffffffffffffffff16815260200190815260200160002060006101000a81548160ff0219169083151502179055507f98aea3a5d98dfc35b93239c319c83a1dfd6515686e1318d1c9e45bab8a471a3d81604051610dd3919061127a565b60405180910390a150565b600360009054906101000a900460ff1681565b60016020528060005260406000206000915090508060000160009054906101000a900473ffffffffffffffffffffffffffffffffffffffff16908060000160149054906101000a900460ff16905082565b60026020528060005260406000206000915054906101000a900460ff1681565b60045481565b828054610e749061165b565b90600052602060002090601f016020900481019282610e965760008555610edd565b82601f10610eaf57805160ff1916838001178555610edd565b82800160010185558215610edd579182015b82811115610edc578251825591602001919060010190610ec1565b5b509050610eea9190610eee565b5090565b5b80821115610f07576000816000905550600101610eef565b5090565b6000610f1e610f1984611526565b611501565b905082815260208101848484011115610f3657600080fd5b610f41848285611619565b509392505050565b600081359050610f5881611999565b92915050565b600081519050610f6d816119b0565b92915050565b600082601f830112610f8457600080fd5b8135610f94848260208601610f0b565b91505092915050565b600081359050610fac816119c7565b92915050565b600060208284031215610fc457600080fd5b6000610fd284828501610f49565b91505092915050565b600060208284031215610fed57600080fd5b6000610ffb84828501610f5e565b91505092915050565b60006020828403121561101657600080fd5b600061102484828501610f9d565b91505092915050565b6000806040838503121561104057600080fd5b600061104e85828601610f9d565b925050602083013567ffffffffffffffff81111561106b57600080fd5b61107785828601610f73565b9150509250929050565b61108a81611588565b82525050565b6110998161159a565b82525050565b6110a8816115e3565b82525050565b6110b781611607565b82525050565b60006110c88261156c565b6110d28185611577565b93506110e2818560208601611628565b6110eb8161174b565b840191505092915050565b600081546111038161165b565b61110d8186611577565b94506001821660008114611128576001811461113a5761116d565b60ff198316865260208601935061116d565b61114385611557565b60005b8381101561116557815481890152600182019150602081019050611146565b808801955050505b50505092915050565b6000611183602483611577565b915061118e8261175c565b604082019050919050565b60006111a6603983611577565b91506111b1826117ab565b604082019050919050565b60006111c9602e83611577565b91506111d4826117fa565b604082019050919050565b60006111ec603683611577565b91506111f782611849565b604082019050919050565b600061120f602a83611577565b915061121a82611898565b604082019050919050565b6000611232603683611577565b915061123d826118e7565b604082019050919050565b6000611255603083611577565b915061126082611936565b604082019050919050565b611274816115d9565b82525050565b600060208201905061128f6000830184611081565b92915050565b60006040820190506112aa6000830185611081565b6112b76020830184611090565b9392505050565b60006040820190506112d36000830185611081565b6112e0602083018461126b565b9392505050565b60006060820190506112fc6000830186611081565b611309602083018561126b565b818103604083015261131b81846110bd565b9050949350505050565b600060608201905061133a6000830186611081565b611347602083018561126b565b818103604083015261135981846110f6565b9050949350505050565b60006020820190506113786000830184611090565b92915050565b6000602082019050611393600083018461109f565b92915050565b60006020820190506113ae60008301846110ae565b92915050565b600060208201905081810360008301526113ce81846110bd565b905092915050565b600060208201905081810360008301526113ef81611176565b9050919050565b6000602082019050818103600083015261140f81611199565b9050919050565b6000602082019050818103600083015261142f816111bc565b9050919050565b6000602082019050818103600083015261144f816111df565b9050919050565b6000602082019050818103600083015261146f81611202565b9050919050565b6000602082019050818103600083015261148f81611225565b9050919050565b600060208201905081810360008301526114af81611248565b9050919050565b60006020820190506114cb600083018461126b565b92915050565b60006040820190506114e6600083018561126b565b81810360208301526114f881846110bd565b90509392505050565b600061150b61151c565b9050611517828261168d565b919050565b6000604051905090565b600067ffffffffffffffff8211156115415761154061171c565b5b61154a8261174b565b9050602081019050919050565b60008190508160005260206000209050919050565b600081519050919050565b600082825260208201905092915050565b6000611593826115b9565b9050919050565b60008115159050919050565b60008190506115b482611985565b919050565b600073ffffffffffffffffffffffffffffffffffffffff82169050919050565b6000819050919050565b60006115ee826115f5565b9050919050565b6000611600826115b9565b9050919050565b6000611612826115a6565b9050919050565b82818337600083830152505050565b60005b8381101561164657808201518184015260208101905061162b565b83811115611655576000848401525b50505050565b6000600282049050600182168061167357607f821691505b60208210811415611687576116866116ed565b5b50919050565b6116968261174b565b810181811067ffffffffffffffff821117156116b5576116b461171c565b5b80604052505050565b7f4e487b7100000000000000000000000000000000000000000000000000000000600052602160045260246000fd5b7f4e487b7100000000000000000000000000000000000000000000000000000000600052602260045260246000fd5b7f4e487b7100000000000000000000000000000000000000000000000000000000600052604160045260246000fd5b6000601f19601f8301169050919050565b7f596f75206861766520616c72656164792073656c65637465642061207068617260008201527f6d61637900000000000000000000000000000000000000000000000000000000602082015250565b7f5468697320706861726d616379206973206e6f742073656c656374656420627960008201527f207468652070617469656e74206f722070687973696369616e00000000000000602082015250565b7f43616e277420636f6c6c656374206d656469636174696f6e2073696e6365206960008201527f74206973206e6f74207265616479000000000000000000000000000000000000602082015250565b7f4f6e6c79207468652050687973696369616e20697320616c6c6f77656420746f60008201527f206578656375746520746869732066756e6374696f6e00000000000000000000602082015250565b7f4f6e6c79207265676973746572656420706861726d61636965732063616e206260008201527f652073656c656374656400000000000000000000000000000000000000000000602082015250565b7f5468697320706861726d61637920646f6573206e6f742068617665206163636560008201527f737320746f2074686520707265736372697074696f6e00000000000000000000602082015250565b7f4f6e6c792061207265676973746572656420506861726d6163792063616e207260008201527f756e20746869732066756e6374696f6e00000000000000000000000000000000602082015250565b60028110611996576119956116be565b5b50565b6119a281611588565b81146119ad57600080fd5b50565b6119b98161159a565b81146119c457600080fd5b50565b6119d0816115d9565b81146119db57600080fd5b5056fea2646970667358221220ab9cff6d6c0999c192f751556bc6b3a598e97a8c29f1a1410a6940ca8c2079c764736f6c63430008040033",
  "immutableReferences": {},
  "source": "// SPDX-License-Identifier: MIT\npragma solidity ^0.8.4;\n\nimport \"./Registration.sol\";\n\ncontract Prescription {\n\n    Registration public reg_contract;\n\n    struct PharmacySelect {\n        address registeredPharmacy;\n        bool isSelected;\n    }\n\n    // Mapping for storing the selected pharmacy for each patient or physician\n    mapping(address => PharmacySelect) public PharmaciesSelection;\n    mapping(address => bool) public hasPharmacySelected;  // Tracks whether a patient or physician has already selected a pharmacy\n\n    enum MedicineCollectionState { ReadyForCollection, Collected }\n    MedicineCollectionState public medicineCollectionState;\n\n    uint public patientID;\n    string public IPFShash;  // Store IPFS hash as string\n\n    event PharmacySelected(address _pharmacy);\n    event PrescriptionCreated(\n        address physician,\n        uint patientID,\n        string IPFShash\n    );\n    event MedicationIsPrepared(address _pharmacy, uint patientID);\n    event MedicationIsCollected(address patient, uint patientID, string IPFShash);\n\n    modifier onlyPhysician() {\n        require(reg_contract.Physician(msg.sender), \"Only the Physician is allowed to execute this function\");\n        _;\n    }\n\n    modifier onlyPatients() {\n        require(reg_contract.Patient(msg.sender), \"Only the patient is allowed to execute this function\");\n        _;\n    }\n\n    modifier onlyRegisteredPharmacies() {\n        require(reg_contract.Pharmacy(msg.sender), \"Only a registered Pharmacy can run this function\");\n        _;\n    }\n\n    constructor(address registrationSCAddress) {\n        reg_contract = Registration(registrationSCAddress);\n    }\n\n    function prescriptionCreation(\n        uint _patientID,\n        string memory _IPFShash\n    ) public onlyPhysician {\n        patientID = _patientID;\n        IPFShash = _IPFShash;\n        emit PrescriptionCreated(\n            msg.sender,\n            patientID,\n            IPFShash\n        );\n    }\n\n    function selectPharmacy(address _pharmacyAddress) public {\n        require(!hasPharmacySelected[msg.sender], \"You have already selected a pharmacy\");\n        require(reg_contract.Pharmacy(_pharmacyAddress), \"Only registered pharmacies can be selected\");\n\n        PharmaciesSelection[msg.sender] = PharmacySelect(_pharmacyAddress, true);\n        hasPharmacySelected[msg.sender] = true;\n        emit PharmacySelected(_pharmacyAddress);\n    }\n\n    function accessPrescription() public view onlyRegisteredPharmacies returns (uint, string memory) {\n        PharmacySelect memory selectedPharmacy = PharmaciesSelection[msg.sender];\n        require(selectedPharmacy.isSelected, \"This pharmacy does not have access to the prescription\");\n\n        return (patientID, IPFShash);\n    }\n\n    function medicationPreparation(uint _patientID) public onlyRegisteredPharmacies {\n        require(PharmaciesSelection[msg.sender].isSelected, \"This pharmacy is not selected by the patient or physician\");\n        patientID = _patientID;\n        emit MedicationIsPrepared(msg.sender, patientID);\n        medicineCollectionState = MedicineCollectionState.ReadyForCollection;\n    }\n\n    function medicationCollection(uint _patientID, string memory _IPFShash) public onlyRegisteredPharmacies {\n        require(medicineCollectionState == MedicineCollectionState.ReadyForCollection, \"Can't collect medication since it is not ready\");\n        patientID = _patientID;\n        IPFShash = _IPFShash;\n        medicineCollectionState = MedicineCollectionState.Collected;\n        emit MedicationIsCollected(msg.sender, patientID, _IPFShash);\n    }\n}\n",
  "sourcePath": "/Users/butch/MSE/Capstone/ePrescription/truffle/contracts/Prescription.sol",
  "compiler": {
    "name": "solc",
    "version": "0.8.4+commit.c7e474f2.Emscripten.clang"
  },
  "schemaVersion": "3.4.16",
  "updatedAt": "2024-09-01T10:06:46.730Z",
  "networkType": "ethereum",
  "devdoc": {
    "kind": "dev",
    "methods": {},
    "version": 1
  },
  "userdoc": {
    "kind": "user",
    "methods": {},
    "version": 1
  }
}