{
  "contractName": "Prescription",
  "abi": [
    {
      "inputs": [
        {
          "internalType": "address",
          "name": "registrationSCAddress",
          "type": "address"
        }
      ],
      "stateMutability": "nonpayable",
      "type": "constructor"
    },
    {
      "anonymous": false,
      "inputs": [
        {
          "indexed": true,
          "internalType": "uint256",
          "name": "prescriptionID",
          "type": "uint256"
        },
        {
          "indexed": false,
          "internalType": "address",
          "name": "patient",
          "type": "address"
        }
      ],
      "name": "MedicationIsCollected",
      "type": "event"
    },
    {
      "anonymous": false,
      "inputs": [
        {
          "indexed": true,
          "internalType": "uint256",
          "name": "prescriptionID",
          "type": "uint256"
        },
        {
          "indexed": false,
          "internalType": "address",
          "name": "_pharmacy",
          "type": "address"
        },
        {
          "indexed": false,
          "internalType": "address",
          "name": "patient",
          "type": "address"
        }
      ],
      "name": "MedicationIsPrepared",
      "type": "event"
    },
    {
      "anonymous": false,
      "inputs": [
        {
          "indexed": true,
          "internalType": "address",
          "name": "_pharmacy",
          "type": "address"
        }
      ],
      "name": "PharmacySelected",
      "type": "event"
    },
    {
      "anonymous": false,
      "inputs": [
        {
          "indexed": true,
          "internalType": "uint256",
          "name": "prescriptionID",
          "type": "uint256"
        },
        {
          "indexed": false,
          "internalType": "address",
          "name": "patient",
          "type": "address"
        }
      ],
      "name": "PrescriptionCancelled",
      "type": "event"
    },
    {
      "anonymous": false,
      "inputs": [
        {
          "indexed": true,
          "internalType": "uint256",
          "name": "prescriptionID",
          "type": "uint256"
        },
        {
          "indexed": true,
          "internalType": "address",
          "name": "physician",
          "type": "address"
        },
        {
          "indexed": true,
          "internalType": "address",
          "name": "patient",
          "type": "address"
        },
        {
          "indexed": false,
          "internalType": "string",
          "name": "IPFShash",
          "type": "string"
        }
      ],
      "name": "PrescriptionCreated",
      "type": "event"
    },
    {
      "anonymous": false,
      "inputs": [
        {
          "indexed": true,
          "internalType": "uint256",
          "name": "prescriptionID",
          "type": "uint256"
        },
        {
          "indexed": false,
          "internalType": "enum Prescription.PrescriptionStatus",
          "name": "newStatus",
          "type": "uint8"
        }
      ],
      "name": "PrescriptionStatusUpdated",
      "type": "event"
    },
    {
      "inputs": [
        {
          "internalType": "address",
          "name": "",
          "type": "address"
        }
      ],
      "name": "PharmaciesSelection",
      "outputs": [
        {
          "internalType": "address",
          "name": "registeredPharmacy",
          "type": "address"
        },
        {
          "internalType": "bool",
          "name": "isSelected",
          "type": "bool"
        }
      ],
      "stateMutability": "view",
      "type": "function",
      "constant": true
    },
    {
      "inputs": [
        {
          "internalType": "uint256",
          "name": "",
          "type": "uint256"
        },
        {
          "internalType": "address",
          "name": "",
          "type": "address"
        }
      ],
      "name": "hasPharmacySelected",
      "outputs": [
        {
          "internalType": "bool",
          "name": "",
          "type": "bool"
        }
      ],
      "stateMutability": "view",
      "type": "function",
      "constant": true
    },
    {
      "inputs": [
        {
          "internalType": "uint256",
          "name": "",
          "type": "uint256"
        }
      ],
      "name": "prescriptionToPharmacy",
      "outputs": [
        {
          "internalType": "address",
          "name": "",
          "type": "address"
        }
      ],
      "stateMutability": "view",
      "type": "function",
      "constant": true
    },
    {
      "inputs": [
        {
          "internalType": "uint256",
          "name": "",
          "type": "uint256"
        }
      ],
      "name": "prescriptions",
      "outputs": [
        {
          "internalType": "uint256",
          "name": "prescriptionID",
          "type": "uint256"
        },
        {
          "internalType": "address",
          "name": "patient",
          "type": "address"
        },
        {
          "internalType": "string",
          "name": "IPFShash",
          "type": "string"
        },
        {
          "internalType": "enum Prescription.PrescriptionStatus",
          "name": "status",
          "type": "uint8"
        },
        {
          "internalType": "address",
          "name": "physician",
          "type": "address"
        }
      ],
      "stateMutability": "view",
      "type": "function",
      "constant": true
    },
    {
      "inputs": [],
      "name": "reg_contract",
      "outputs": [
        {
          "internalType": "contract Registration",
          "name": "",
          "type": "address"
        }
      ],
      "stateMutability": "view",
      "type": "function",
      "constant": true
    },
    {
      "inputs": [
        {
          "internalType": "address",
          "name": "_patient",
          "type": "address"
        },
        {
          "internalType": "string",
          "name": "_IPFShash",
          "type": "string"
        }
      ],
      "name": "prescriptionCreation",
      "outputs": [
        {
          "internalType": "uint256",
          "name": "",
          "type": "uint256"
        }
      ],
      "stateMutability": "nonpayable",
      "type": "function"
    },
    {
      "inputs": [
        {
          "internalType": "uint256",
          "name": "_prescriptionID",
          "type": "uint256"
        },
        {
          "internalType": "address",
          "name": "_pharmacyAddress",
          "type": "address"
        }
      ],
      "name": "selectPharmacy",
      "outputs": [],
      "stateMutability": "nonpayable",
      "type": "function"
    },
    {
      "inputs": [
        {
          "internalType": "uint256",
          "name": "_prescriptionID",
          "type": "uint256"
        }
      ],
      "name": "accessPrescription",
      "outputs": [
        {
          "internalType": "address",
          "name": "",
          "type": "address"
        },
        {
          "internalType": "string",
          "name": "",
          "type": "string"
        },
        {
          "internalType": "enum Prescription.PrescriptionStatus",
          "name": "",
          "type": "uint8"
        }
      ],
      "stateMutability": "view",
      "type": "function",
      "constant": true
    },
    {
      "inputs": [
        {
          "internalType": "uint256",
          "name": "_prescriptionID",
          "type": "uint256"
        }
      ],
      "name": "medicationPreparation",
      "outputs": [],
      "stateMutability": "nonpayable",
      "type": "function"
    },
    {
      "inputs": [
        {
          "internalType": "uint256",
          "name": "_prescriptionID",
          "type": "uint256"
        }
      ],
      "name": "medicationCollection",
      "outputs": [],
      "stateMutability": "nonpayable",
      "type": "function"
    },
    {
      "inputs": [
        {
          "internalType": "uint256",
          "name": "_prescriptionID",
          "type": "uint256"
        }
      ],
      "name": "cancelPrescription",
      "outputs": [],
      "stateMutability": "nonpayable",
      "type": "function"
    },
    {
      "inputs": [
        {
          "internalType": "uint256",
          "name": "_prescriptionID",
          "type": "uint256"
        }
      ],
      "name": "getAssignedPharmacy",
      "outputs": [
        {
          "internalType": "address",
          "name": "",
          "type": "address"
        }
      ],
      "stateMutability": "view",
      "type": "function",
      "constant": true
    }
  ],
  "bytecode": "0x60806040523480156200001157600080fd5b506040516200324d3803806200324d83398181016040528101906200003791906200009c565b806000806101000a81548173ffffffffffffffffffffffffffffffffffffffff021916908373ffffffffffffffffffffffffffffffffffffffff160217905550600180819055505062000116565b6000815190506200009681620000fc565b92915050565b600060208284031215620000af57600080fd5b6000620000bf8482850162000085565b91505092915050565b6000620000d582620000dc565b9050919050565b600073ffffffffffffffffffffffffffffffffffffffff82169050919050565b6200010781620000c8565b81146200011357600080fd5b50565b61312780620001266000396000f3fe608060405234801561001057600080fd5b50600436106100b45760003560e01c806373162d5b1161007157806373162d5b146101915780639591f45b146101c1578063bc9d2f8b146101f1578063c1a30a581461020d578063c21bcb9d1461023e578063e442e68a1461026e576100b4565b8063093d0602146100b9578063173b0e10146100d557806331dfc91b146100f35780634de7b41414610127578063530c62fe14610143578063585d089e14610175575b600080fd5b6100d360048036038101906100ce9190612466565b61029e565b005b6100dd6106fd565b6040516100ea91906127dc565b60405180910390f35b61010d60048036038101906101089190612466565b610721565b60405161011e9594939291906129ef565b60405180910390f35b610141600480360381019061013c9190612466565b61082c565b005b61015d60048036038101906101589190612466565b610bc2565b60405161016c93929190612783565b60405180910390f35b61018f600480360381019061018a9190612466565b611141565b005b6101ab60048036038101906101a691906123e9565b61150f565b6040516101b891906129d4565b60405180910390f35b6101db60048036038101906101d69190612466565b611838565b6040516101e89190612716565b60405180910390f35b61020b6004803603810190610206919061248f565b611b6c565b005b610227600480360381019061022291906123c0565b6121c3565b60405161023592919061275a565b60405180910390f35b6102586004803603810190610253919061248f565b612214565b60405161026591906127c1565b60405180910390f35b61028860048036038101906102839190612466565b612243565b6040516102959190612716565b60405180910390f35b60008054906101000a900473ffffffffffffffffffffffffffffffffffffffff1673ffffffffffffffffffffffffffffffffffffffff1663b58d520a336040518263ffffffff1660e01b81526004016102f79190612716565b60206040518083038186803b15801561030f57600080fd5b505afa158015610323573d6000803e3d6000fd5b505050506040513d601f19601f82011682018060405250810190610347919061243d565b610386576040517f08c379a000000000000000000000000000000000000000000000000000000000815260040161037d90612994565b60405180910390fd5b6000600460008381526020019081526020016000209050600073ffffffffffffffffffffffffffffffffffffffff168160010160009054906101000a900473ffffffffffffffffffffffffffffffffffffffff1673ffffffffffffffffffffffffffffffffffffffff161415610431576040517f08c379a000000000000000000000000000000000000000000000000000000000815260040161042890612954565b60405180910390fd5b60048081111561046a577f4e487b7100000000000000000000000000000000000000000000000000000000600052602160045260246000fd5b8160030160009054906101000a900460ff1660048111156104b4577f4e487b7100000000000000000000000000000000000000000000000000000000600052602160045260246000fd5b14156104f5576040517f08c379a00000000000000000000000000000000000000000000000000000000081526004016104ec90612854565b60405180910390fd5b600260003373ffffffffffffffffffffffffffffffffffffffff1673ffffffffffffffffffffffffffffffffffffffff16815260200190815260200160002060000160149054906101000a900460ff16610584576040517f08c379a000000000000000000000000000000000000000000000000000000000815260040161057b90612894565b60405180910390fd5b600160048111156105be577f4e487b7100000000000000000000000000000000000000000000000000000000600052602160045260246000fd5b8160030160009054906101000a900460ff166004811115610608577f4e487b7100000000000000000000000000000000000000000000000000000000600052602160045260246000fd5b14610648576040517f08c379a000000000000000000000000000000000000000000000000000000000815260040161063f90612834565b60405180910390fd5b817f5d3180d33faa9b9d24cabb97d1a072d0a981e14811bfb4450f9dab27278a3890338360010160009054906101000a900473ffffffffffffffffffffffffffffffffffffffff1660405161069e929190612731565b60405180910390a260028160030160006101000a81548160ff021916908360048111156106f4577f4e487b7100000000000000000000000000000000000000000000000000000000600052602160045260246000fd5b02179055505050565b60008054906101000a900473ffffffffffffffffffffffffffffffffffffffff1681565b60046020528060005260406000206000915090508060000154908060010160009054906101000a900473ffffffffffffffffffffffffffffffffffffffff169080600201805461077090612b8e565b80601f016020809104026020016040519081016040528092919081815260200182805461079c90612b8e565b80156107e95780601f106107be576101008083540402835291602001916107e9565b820191906000526020600020905b8154815290600101906020018083116107cc57829003601f168201915b5050505050908060030160009054906101000a900460ff16908060030160019054906101000a900473ffffffffffffffffffffffffffffffffffffffff16905085565b60008054906101000a900473ffffffffffffffffffffffffffffffffffffffff1673ffffffffffffffffffffffffffffffffffffffff166372c8e330336040518263ffffffff1660e01b81526004016108859190612716565b60206040518083038186803b15801561089d57600080fd5b505afa1580156108b1573d6000803e3d6000fd5b505050506040513d601f19601f820116820180604052508101906108d5919061243d565b610914576040517f08c379a000000000000000000000000000000000000000000000000000000000815260040161090b906128f4565b60405180910390fd5b6000600460008381526020019081526020016000209050600073ffffffffffffffffffffffffffffffffffffffff168160010160009054906101000a900473ffffffffffffffffffffffffffffffffffffffff1673ffffffffffffffffffffffffffffffffffffffff1614156109bf576040517f08c379a00000000000000000000000000000000000000000000000000000000081526004016109b690612954565b60405180910390fd5b600060048111156109f9577f4e487b7100000000000000000000000000000000000000000000000000000000600052602160045260246000fd5b8160030160009054906101000a900460ff166004811115610a43577f4e487b7100000000000000000000000000000000000000000000000000000000600052602160045260246000fd5b1480610ad0575060016004811115610a84577f4e487b7100000000000000000000000000000000000000000000000000000000600052602160045260246000fd5b8160030160009054906101000a900460ff166004811115610ace577f4e487b7100000000000000000000000000000000000000000000000000000000600052602160045260246000fd5b145b610b0f576040517f08c379a0000000000000000000000000000000000000000000000000000000008152600401610b06906128b4565b60405180910390fd5b60048160030160006101000a81548160ff02191690836004811115610b5d577f4e487b7100000000000000000000000000000000000000000000000000000000600052602160045260246000fd5b0217905550817f17abc66cc2306acecee0dfe95895d2f7dca801ee3d89c6cbf0caf27ba34788a58260010160009054906101000a900473ffffffffffffffffffffffffffffffffffffffff16604051610bb69190612716565b60405180910390a25050565b600060606000836000600460008381526020019081526020016000206040518060a0016040529081600082015481526020016001820160009054906101000a900473ffffffffffffffffffffffffffffffffffffffff1673ffffffffffffffffffffffffffffffffffffffff1673ffffffffffffffffffffffffffffffffffffffff168152602001600282018054610c5990612b8e565b80601f0160208091040260200160405190810160405280929190818152602001828054610c8590612b8e565b8015610cd25780601f10610ca757610100808354040283529160200191610cd2565b820191906000526020600020905b815481529060010190602001808311610cb557829003601f168201915b505050505081526020016003820160009054906101000a900460ff166004811115610d26577f4e487b7100000000000000000000000000000000000000000000000000000000600052602160045260246000fd5b6004811115610d5e577f4e487b7100000000000000000000000000000000000000000000000000000000600052602160045260246000fd5b81526020016003820160019054906101000a900473ffffffffffffffffffffffffffffffffffffffff1673ffffffffffffffffffffffffffffffffffffffff1673ffffffffffffffffffffffffffffffffffffffff16815250509050806080015173ffffffffffffffffffffffffffffffffffffffff163373ffffffffffffffffffffffffffffffffffffffff161480610e275750806020015173ffffffffffffffffffffffffffffffffffffffff163373ffffffffffffffffffffffffffffffffffffffff16145b80610e7e5750600260003373ffffffffffffffffffffffffffffffffffffffff1673ffffffffffffffffffffffffffffffffffffffff16815260200190815260200160002060000160149054906101000a900460ff165b610ebd576040517f08c379a0000000000000000000000000000000000000000000000000000000008152600401610eb490612914565b60405180910390fd5b6000600460008881526020019081526020016000206040518060a0016040529081600082015481526020016001820160009054906101000a900473ffffffffffffffffffffffffffffffffffffffff1673ffffffffffffffffffffffffffffffffffffffff1673ffffffffffffffffffffffffffffffffffffffff168152602001600282018054610f4d90612b8e565b80601f0160208091040260200160405190810160405280929190818152602001828054610f7990612b8e565b8015610fc65780601f10610f9b57610100808354040283529160200191610fc6565b820191906000526020600020905b815481529060010190602001808311610fa957829003601f168201915b505050505081526020016003820160009054906101000a900460ff16600481111561101a577f4e487b7100000000000000000000000000000000000000000000000000000000600052602160045260246000fd5b6004811115611052577f4e487b7100000000000000000000000000000000000000000000000000000000600052602160045260246000fd5b81526020016003820160019054906101000a900473ffffffffffffffffffffffffffffffffffffffff1673ffffffffffffffffffffffffffffffffffffffff1673ffffffffffffffffffffffffffffffffffffffff16815250509050600073ffffffffffffffffffffffffffffffffffffffff16816020015173ffffffffffffffffffffffffffffffffffffffff161415611122576040517f08c379a000000000000000000000000000000000000000000000000000000000815260040161111990612954565b60405180910390fd5b8060200151816040015182606001519550955095505050509193909250565b60008054906101000a900473ffffffffffffffffffffffffffffffffffffffff1673ffffffffffffffffffffffffffffffffffffffff1663b58d520a336040518263ffffffff1660e01b815260040161119a9190612716565b60206040518083038186803b1580156111b257600080fd5b505afa1580156111c6573d6000803e3d6000fd5b505050506040513d601f19601f820116820180604052508101906111ea919061243d565b611229576040517f08c379a000000000000000000000000000000000000000000000000000000000815260040161122090612994565b60405180910390fd5b6000600460008381526020019081526020016000209050600073ffffffffffffffffffffffffffffffffffffffff168160010160009054906101000a900473ffffffffffffffffffffffffffffffffffffffff1673ffffffffffffffffffffffffffffffffffffffff1614156112d4576040517f08c379a00000000000000000000000000000000000000000000000000000000081526004016112cb90612954565b60405180910390fd5b60048081111561130d577f4e487b7100000000000000000000000000000000000000000000000000000000600052602160045260246000fd5b8160030160009054906101000a900460ff166004811115611357577f4e487b7100000000000000000000000000000000000000000000000000000000600052602160045260246000fd5b1415611398576040517f08c379a000000000000000000000000000000000000000000000000000000000815260040161138f90612854565b60405180910390fd5b600260048111156113d2577f4e487b7100000000000000000000000000000000000000000000000000000000600052602160045260246000fd5b8160030160009054906101000a900460ff16600481111561141c577f4e487b7100000000000000000000000000000000000000000000000000000000600052602160045260246000fd5b1461145c576040517f08c379a0000000000000000000000000000000000000000000000000000000008152600401611453906128d4565b60405180910390fd5b60038160030160006101000a81548160ff021916908360048111156114aa577f4e487b7100000000000000000000000000000000000000000000000000000000600052602160045260246000fd5b0217905550817f21e79ec9d652764dedc8425dfe9208cc3f2e2cc9b98df2b3f6ff201c2af1d5938260010160009054906101000a900473ffffffffffffffffffffffffffffffffffffffff166040516115039190612716565b60405180910390a25050565b60008060009054906101000a900473ffffffffffffffffffffffffffffffffffffffff1673ffffffffffffffffffffffffffffffffffffffff166372c8e330336040518263ffffffff1660e01b815260040161156b9190612716565b60206040518083038186803b15801561158357600080fd5b505afa158015611597573d6000803e3d6000fd5b505050506040513d601f19601f820116820180604052508101906115bb919061243d565b6115fa576040517f08c379a00000000000000000000000000000000000000000000000000000000081526004016115f1906128f4565b60405180910390fd5b60006001600081548092919061160f90612bf1565b91905055905060006040518060a001604052808381526020018673ffffffffffffffffffffffffffffffffffffffff16815260200185815260200160006004811115611684577f4e487b7100000000000000000000000000000000000000000000000000000000600052602160045260246000fd5b81526020013373ffffffffffffffffffffffffffffffffffffffff16815250905080600460008481526020019081526020016000206000820151816000015560208201518160010160006101000a81548173ffffffffffffffffffffffffffffffffffffffff021916908373ffffffffffffffffffffffffffffffffffffffff1602179055506040820151816002019080519060200190611726929190612276565b5060608201518160030160006101000a81548160ff02191690836004811115611778577f4e487b7100000000000000000000000000000000000000000000000000000000600052602160045260246000fd5b021790555060808201518160030160016101000a81548173ffffffffffffffffffffffffffffffffffffffff021916908373ffffffffffffffffffffffffffffffffffffffff1602179055509050508473ffffffffffffffffffffffffffffffffffffffff163373ffffffffffffffffffffffffffffffffffffffff16837f435273682f19c830bb3fd3d1ed1aefb672214b65429f7d507afa24c6f9f18ad5876040516118259190612812565b60405180910390a4819250505092915050565b6000816000600460008381526020019081526020016000206040518060a0016040529081600082015481526020016001820160009054906101000a900473ffffffffffffffffffffffffffffffffffffffff1673ffffffffffffffffffffffffffffffffffffffff1673ffffffffffffffffffffffffffffffffffffffff1681526020016002820180546118cb90612b8e565b80601f01602080910402602001604051908101604052809291908181526020018280546118f790612b8e565b80156119445780601f1061191957610100808354040283529160200191611944565b820191906000526020600020905b81548152906001019060200180831161192757829003601f168201915b505050505081526020016003820160009054906101000a900460ff166004811115611998577f4e487b7100000000000000000000000000000000000000000000000000000000600052602160045260246000fd5b60048111156119d0577f4e487b7100000000000000000000000000000000000000000000000000000000600052602160045260246000fd5b81526020016003820160019054906101000a900473ffffffffffffffffffffffffffffffffffffffff1673ffffffffffffffffffffffffffffffffffffffff1673ffffffffffffffffffffffffffffffffffffffff16815250509050806080015173ffffffffffffffffffffffffffffffffffffffff163373ffffffffffffffffffffffffffffffffffffffff161480611a995750806020015173ffffffffffffffffffffffffffffffffffffffff163373ffffffffffffffffffffffffffffffffffffffff16145b80611af05750600260003373ffffffffffffffffffffffffffffffffffffffff1673ffffffffffffffffffffffffffffffffffffffff16815260200190815260200160002060000160149054906101000a900460ff165b611b2f576040517f08c379a0000000000000000000000000000000000000000000000000000000008152600401611b2690612914565b60405180910390fd5b6005600085815260200190815260200160002060009054906101000a900473ffffffffffffffffffffffffffffffffffffffff1692505050919050565b60008054906101000a900473ffffffffffffffffffffffffffffffffffffffff1673ffffffffffffffffffffffffffffffffffffffff1663b58d520a826040518263ffffffff1660e01b8152600401611bc59190612716565b60206040518083038186803b158015611bdd57600080fd5b505afa158015611bf1573d6000803e3d6000fd5b505050506040513d601f19601f82011682018060405250810190611c15919061243d565b611c54576040517f08c379a0000000000000000000000000000000000000000000000000000000008152600401611c4b90612934565b60405180910390fd5b6000600460008481526020019081526020016000209050600073ffffffffffffffffffffffffffffffffffffffff168160010160009054906101000a900473ffffffffffffffffffffffffffffffffffffffff1673ffffffffffffffffffffffffffffffffffffffff161415611cff576040517f08c379a0000000000000000000000000000000000000000000000000000000008152600401611cf690612954565b60405180910390fd5b60006004811115611d39577f4e487b7100000000000000000000000000000000000000000000000000000000600052602160045260246000fd5b8160030160009054906101000a900460ff166004811115611d83577f4e487b7100000000000000000000000000000000000000000000000000000000600052602160045260246000fd5b14611dc3576040517f08c379a0000000000000000000000000000000000000000000000000000000008152600401611dba906129b4565b60405180910390fd5b8060010160009054906101000a900473ffffffffffffffffffffffffffffffffffffffff1673ffffffffffffffffffffffffffffffffffffffff163373ffffffffffffffffffffffffffffffffffffffff161480611e7057508060030160019054906101000a900473ffffffffffffffffffffffffffffffffffffffff1673ffffffffffffffffffffffffffffffffffffffff163373ffffffffffffffffffffffffffffffffffffffff16145b611eaf576040517f08c379a0000000000000000000000000000000000000000000000000000000008152600401611ea690612974565b60405180910390fd5b6003600084815260200190815260200160002060003373ffffffffffffffffffffffffffffffffffffffff1673ffffffffffffffffffffffffffffffffffffffff16815260200190815260200160002060009054906101000a900460ff1615611f4d576040517f08c379a0000000000000000000000000000000000000000000000000000000008152600401611f4490612874565b60405180910390fd5b60405180604001604052808373ffffffffffffffffffffffffffffffffffffffff16815260200160011515815250600260003373ffffffffffffffffffffffffffffffffffffffff1673ffffffffffffffffffffffffffffffffffffffff16815260200190815260200160002060008201518160000160006101000a81548173ffffffffffffffffffffffffffffffffffffffff021916908373ffffffffffffffffffffffffffffffffffffffff16021790555060208201518160000160146101000a81548160ff02191690831515021790555090505060016003600085815260200190815260200160002060003373ffffffffffffffffffffffffffffffffffffffff1673ffffffffffffffffffffffffffffffffffffffff16815260200190815260200160002060006101000a81548160ff02191690831515021790555060018160030160006101000a81548160ff021916908360048111156120db577f4e487b7100000000000000000000000000000000000000000000000000000000600052602160045260246000fd5b0217905550816005600085815260200190815260200160002060006101000a81548173ffffffffffffffffffffffffffffffffffffffff021916908373ffffffffffffffffffffffffffffffffffffffff1602179055508173ffffffffffffffffffffffffffffffffffffffff167f98aea3a5d98dfc35b93239c319c83a1dfd6515686e1318d1c9e45bab8a471a3d60405160405180910390a2827fd48b77015fb03969c3185a01dab29f6df2c4a95942f3a0620358464589e357b98260030160009054906101000a900460ff166040516121b691906127f7565b60405180910390a2505050565b60026020528060005260406000206000915090508060000160009054906101000a900473ffffffffffffffffffffffffffffffffffffffff16908060000160149054906101000a900460ff16905082565b60036020528160005260406000206020528060005260406000206000915091509054906101000a900460ff1681565b60056020528060005260406000206000915054906101000a900473ffffffffffffffffffffffffffffffffffffffff1681565b82805461228290612b8e565b90600052602060002090601f0160209004810192826122a457600085556122eb565b82601f106122bd57805160ff19168380011785556122eb565b828001600101855582156122eb579182015b828111156122ea5782518255916020019190600101906122cf565b5b5090506122f891906122fc565b5090565b5b808211156123155760008160009055506001016122fd565b5090565b600061232c61232784612a6e565b612a49565b90508281526020810184848401111561234457600080fd5b61234f848285612b4c565b509392505050565b600081359050612366816130ac565b92915050565b60008151905061237b816130c3565b92915050565b600082601f83011261239257600080fd5b81356123a2848260208601612319565b91505092915050565b6000813590506123ba816130da565b92915050565b6000602082840312156123d257600080fd5b60006123e084828501612357565b91505092915050565b600080604083850312156123fc57600080fd5b600061240a85828601612357565b925050602083013567ffffffffffffffff81111561242757600080fd5b61243385828601612381565b9150509250929050565b60006020828403121561244f57600080fd5b600061245d8482850161236c565b91505092915050565b60006020828403121561247857600080fd5b6000612486848285016123ab565b91505092915050565b600080604083850312156124a257600080fd5b60006124b0858286016123ab565b92505060206124c185828601612357565b9150509250929050565b6124d481612abb565b82525050565b6124e381612acd565b82525050565b6124f281612b16565b82525050565b61250181612b3a565b82525050565b600061251282612a9f565b61251c8185612aaa565b935061252c818560208601612b5b565b61253581612cf6565b840191505092915050565b600061254d602683612aaa565b915061255882612d07565b604082019050919050565b6000612570601983612aaa565b915061257b82612d56565b602082019050919050565b6000612593603a83612aaa565b915061259e82612d7f565b604082019050919050565b60006125b6603983612aaa565b91506125c182612dce565b604082019050919050565b60006125d9602083612aaa565b91506125e482612e1d565b602082019050919050565b60006125fc602e83612aaa565b915061260782612e46565b604082019050919050565b600061261f603683612aaa565b915061262a82612e95565b604082019050919050565b6000612642601383612aaa565b915061264d82612ee4565b602082019050919050565b6000612665602a83612aaa565b915061267082612f0d565b604082019050919050565b6000612688601b83612aaa565b915061269382612f5c565b602082019050919050565b60006126ab604383612aaa565b91506126b682612f85565b606082019050919050565b60006126ce603083612aaa565b91506126d982612ffa565b604082019050919050565b60006126f1603d83612aaa565b91506126fc82613049565b604082019050919050565b61271081612b0c565b82525050565b600060208201905061272b60008301846124cb565b92915050565b600060408201905061274660008301856124cb565b61275360208301846124cb565b9392505050565b600060408201905061276f60008301856124cb565b61277c60208301846124da565b9392505050565b600060608201905061279860008301866124cb565b81810360208301526127aa8185612507565b90506127b960408301846124f8565b949350505050565b60006020820190506127d660008301846124da565b92915050565b60006020820190506127f160008301846124e9565b92915050565b600060208201905061280c60008301846124f8565b92915050565b6000602082019050818103600083015261282c8184612507565b905092915050565b6000602082019050818103600083015261284d81612540565b9050919050565b6000602082019050818103600083015261286d81612563565b9050919050565b6000602082019050818103600083015261288d81612586565b9050919050565b600060208201905081810360008301526128ad816125a9565b9050919050565b600060208201905081810360008301526128cd816125cc565b9050919050565b600060208201905081810360008301526128ed816125ef565b9050919050565b6000602082019050818103600083015261290d81612612565b9050919050565b6000602082019050818103600083015261292d81612635565b9050919050565b6000602082019050818103600083015261294d81612658565b9050919050565b6000602082019050818103600083015261296d8161267b565b9050919050565b6000602082019050818103600083015261298d8161269e565b9050919050565b600060208201905081810360008301526129ad816126c1565b9050919050565b600060208201905081810360008301526129cd816126e4565b9050919050565b60006020820190506129e96000830184612707565b92915050565b600060a082019050612a046000830188612707565b612a1160208301876124cb565b8181036040830152612a238186612507565b9050612a3260608301856124f8565b612a3f60808301846124cb565b9695505050505050565b6000612a53612a64565b9050612a5f8282612bc0565b919050565b6000604051905090565b600067ffffffffffffffff821115612a8957612a88612cc7565b5b612a9282612cf6565b9050602081019050919050565b600081519050919050565b600082825260208201905092915050565b6000612ac682612aec565b9050919050565b60008115159050919050565b6000819050612ae782613098565b919050565b600073ffffffffffffffffffffffffffffffffffffffff82169050919050565b6000819050919050565b6000612b2182612b28565b9050919050565b6000612b3382612aec565b9050919050565b6000612b4582612ad9565b9050919050565b82818337600083830152505050565b60005b83811015612b79578082015181840152602081019050612b5e565b83811115612b88576000848401525b50505050565b60006002820490506001821680612ba657607f821691505b60208210811415612bba57612bb9612c98565b5b50919050565b612bc982612cf6565b810181811067ffffffffffffffff82111715612be857612be7612cc7565b5b80604052505050565b6000612bfc82612b0c565b91507fffffffffffffffffffffffffffffffffffffffffffffffffffffffffffffffff821415612c2f57612c2e612c3a565b5b600182019050919050565b7f4e487b7100000000000000000000000000000000000000000000000000000000600052601160045260246000fd5b7f4e487b7100000000000000000000000000000000000000000000000000000000600052602160045260246000fd5b7f4e487b7100000000000000000000000000000000000000000000000000000000600052602260045260246000fd5b7f4e487b7100000000000000000000000000000000000000000000000000000000600052604160045260246000fd5b6000601f19601f8301169050919050565b7f4d656469636174696f6e206973206e6f7420726561647920666f7220636f6c6c60008201527f656374696f6e0000000000000000000000000000000000000000000000000000602082015250565b7f507265736372697074696f6e2069732063616e63656c6c656400000000000000600082015250565b7f596f75206861766520616c72656164792073656c65637465642061207068617260008201527f6d61637920666f72207468697320707265736372697074696f6e000000000000602082015250565b7f5468697320706861726d616379206973206e6f742073656c656374656420627960008201527f207468652070617469656e74206f722070687973696369616e00000000000000602082015250565b7f507265736372697074696f6e2063616e6e6f742062652063616e63656c6c6564600082015250565b7f43616e277420636f6c6c656374206d656469636174696f6e2073696e6365206960008201527f74206973206e6f74207265616479000000000000000000000000000000000000602082015250565b7f4f6e6c79207468652050687973696369616e20697320616c6c6f77656420746f60008201527f206578656375746520746869732066756e6374696f6e00000000000000000000602082015250565b7f556e617574686f72697a65642061636365737300000000000000000000000000600082015250565b7f4f6e6c79207265676973746572656420706861726d61636965732063616e206260008201527f652073656c656374656400000000000000000000000000000000000000000000602082015250565b7f507265736372697074696f6e20646f6573206e6f742065786973740000000000600082015250565b7f4f6e6c79207468652070617469656e74206f722074686520707265736372696260008201527f696e672070687973696369616e2063616e2073656c656374206120706861726d60208201527f6163790000000000000000000000000000000000000000000000000000000000604082015250565b7f4f6e6c792061207265676973746572656420506861726d6163792063616e207260008201527f756e20746869732066756e6374696f6e00000000000000000000000000000000602082015250565b7f507265736372697074696f6e206973206e6f7420696e2061207374617465207460008201527f68617420616c6c6f777320706861726d6163792073656c656374696f6e000000602082015250565b600581106130a9576130a8612c69565b5b50565b6130b581612abb565b81146130c057600080fd5b50565b6130cc81612acd565b81146130d757600080fd5b50565b6130e381612b0c565b81146130ee57600080fd5b5056fea2646970667358221220068d7d7d94ee9a696dc15ac3dd79dff0d00591286b87f51e2f648bea885d3d7264736f6c63430008040033",
  "immutableReferences": {},
  "source": "// SPDX-License-Identifier: MIT\npragma solidity ^0.8.4;\n\nimport \"./Registration.sol\";\n\ncontract Prescription {\n\n    // State Variables\n    Registration public reg_contract;\n    uint256 private prescriptionCounter; \n\n    // Structs\n    struct PharmacySelect {\n        address registeredPharmacy;\n        bool isSelected;\n    }\n\n    struct PrescriptionDetail {\n        uint256 prescriptionID;\n        address patient;\n        string IPFShash;\n        PrescriptionStatus status;\n        address physician;\n    }\n\n    // Mappings\n    mapping(address => PharmacySelect) public PharmaciesSelection;\n    mapping(uint256 => mapping(address => bool)) public hasPharmacySelected; // Mapping prescription ID to address to boolean\n    mapping(uint256 => PrescriptionDetail) public prescriptions;\n    mapping(uint256 => address) public prescriptionToPharmacy;\n\n    // Enums\n    enum PrescriptionStatus { Created, PharmacyAssigned, ReadyForCollection, Collected, Cancelled }\n\n    // Events\n    event PharmacySelected(address indexed _pharmacy);\n    event PrescriptionCreated(\n        uint256 indexed prescriptionID,\n        address indexed physician,\n        address indexed patient,\n        string IPFShash\n    );\n    event MedicationIsPrepared(uint256 indexed prescriptionID, address _pharmacy, address patient);\n    event MedicationIsCollected(uint256 indexed prescriptionID, address patient);\n    event PrescriptionCancelled(uint256 indexed prescriptionID, address patient);\n    event PrescriptionStatusUpdated(uint256 indexed prescriptionID, PrescriptionStatus newStatus);\n\n    // Modifiers\n    modifier onlyPhysician() {\n        require(reg_contract.Physician(msg.sender), \"Only the Physician is allowed to execute this function\");\n        _;\n    }\n\n    modifier onlyPatients() {\n        require(reg_contract.Patient(msg.sender), \"Only the patient is allowed to execute this function\");\n        _;\n    }\n\n    modifier onlyRegisteredPharmacies() {\n        require(reg_contract.Pharmacy(msg.sender), \"Only a registered Pharmacy can run this function\");\n        _;\n    }\n\n    modifier onlyAuthorized(uint256 _prescriptionID) {\n        PrescriptionDetail memory detail = prescriptions[_prescriptionID];\n        require(\n            msg.sender == detail.physician || \n            msg.sender == detail.patient || \n            PharmaciesSelection[msg.sender].isSelected,\n            \"Unauthorized access\"\n        );\n        _;\n    }\n\n    // Constructor\n    constructor(address registrationSCAddress) {\n        reg_contract = Registration(registrationSCAddress);\n        prescriptionCounter = 1;\n    }\n\n    // Functions\n    function prescriptionCreation(\n        address _patient,\n        string memory _IPFShash\n    ) public onlyPhysician returns (uint256) {\n        uint256 prescriptionID = prescriptionCounter++;\n        PrescriptionDetail memory detail = PrescriptionDetail({\n            prescriptionID: prescriptionID,\n            patient: _patient,\n            IPFShash: _IPFShash,\n            status: PrescriptionStatus.Created,\n            physician: msg.sender\n        });\n\n        prescriptions[prescriptionID] = detail;\n\n        emit PrescriptionCreated(\n            prescriptionID,\n            msg.sender,\n            _patient,\n            _IPFShash\n        );\n\n        return prescriptionID;\n    }\n\n    function selectPharmacy(uint256 _prescriptionID, address _pharmacyAddress) public {\n        require(reg_contract.Pharmacy(_pharmacyAddress), \"Only registered pharmacies can be selected\");\n\n        PrescriptionDetail storage detail = prescriptions[_prescriptionID];\n        require(detail.patient != address(0), \"Prescription does not exist\");\n        require(detail.status == PrescriptionStatus.Created, \"Prescription is not in a state that allows pharmacy selection\");\n\n        // Ensure only the patient or the physician who created the prescription can select a pharmacy\n        require(msg.sender == detail.patient || msg.sender == detail.physician, \"Only the patient or the prescribing physician can select a pharmacy\");\n\n        // Check if the user has already selected a pharmacy for this specific prescription\n        require(!hasPharmacySelected[_prescriptionID][msg.sender], \"You have already selected a pharmacy for this prescription\");\n\n        PharmaciesSelection[msg.sender] = PharmacySelect(_pharmacyAddress, true);\n        hasPharmacySelected[_prescriptionID][msg.sender] = true;  \n\n        detail.status = PrescriptionStatus.PharmacyAssigned;\n        prescriptionToPharmacy[_prescriptionID] = _pharmacyAddress;  \n\n        emit PharmacySelected(_pharmacyAddress);\n        emit PrescriptionStatusUpdated(_prescriptionID, detail.status);\n    }\n\n    function accessPrescription(uint256 _prescriptionID) public view onlyAuthorized(_prescriptionID) returns (address, string memory, PrescriptionStatus) {\n        PrescriptionDetail memory detail = prescriptions[_prescriptionID];\n        require(detail.patient != address(0), \"Prescription does not exist\");\n\n        return (detail.patient, detail.IPFShash, detail.status);\n    }\n\n    function medicationPreparation(uint256 _prescriptionID) public onlyRegisteredPharmacies {\n        PrescriptionDetail storage detail = prescriptions[_prescriptionID];\n        require(detail.patient != address(0), \"Prescription does not exist\");\n        require(detail.status != PrescriptionStatus.Cancelled, \"Prescription is cancelled\");\n        require(PharmaciesSelection[msg.sender].isSelected, \"This pharmacy is not selected by the patient or physician\");\n        require(detail.status == PrescriptionStatus.PharmacyAssigned, \"Medication is not ready for collection\");\n\n        emit MedicationIsPrepared(_prescriptionID, msg.sender, detail.patient);\n        detail.status = PrescriptionStatus.ReadyForCollection;\n    }\n\n    function medicationCollection(uint256 _prescriptionID) public onlyRegisteredPharmacies {\n        PrescriptionDetail storage detail = prescriptions[_prescriptionID];\n        require(detail.patient != address(0), \"Prescription does not exist\");\n        require(detail.status != PrescriptionStatus.Cancelled, \"Prescription is cancelled\");\n        require(detail.status == PrescriptionStatus.ReadyForCollection, \"Can't collect medication since it is not ready\");\n\n        detail.status = PrescriptionStatus.Collected;\n        emit MedicationIsCollected(_prescriptionID, detail.patient);\n    }\n\n    function cancelPrescription(uint256 _prescriptionID) public onlyPhysician {\n        PrescriptionDetail storage detail = prescriptions[_prescriptionID];\n        require(detail.patient != address(0), \"Prescription does not exist\");\n        require(detail.status == PrescriptionStatus.Created || detail.status == PrescriptionStatus.PharmacyAssigned, \"Prescription cannot be cancelled\");\n\n        detail.status = PrescriptionStatus.Cancelled;\n        emit PrescriptionCancelled(_prescriptionID, detail.patient);\n    }\n\n    function getAssignedPharmacy(uint256 _prescriptionID) public view onlyAuthorized(_prescriptionID) returns (address) {\n        return prescriptionToPharmacy[_prescriptionID];\n    }\n}\n",
  "sourcePath": "/Users/butch/MSE/Capstone/ePrescription/truffle/contracts/Prescription.sol",
  "compiler": {
    "name": "solc",
    "version": "0.8.4+commit.c7e474f2.Emscripten.clang"
  },
  "schemaVersion": "3.4.16",
  "updatedAt": "2024-09-11T03:30:48.322Z",
  "networkType": "ethereum",
  "devdoc": {
    "kind": "dev",
    "methods": {},
    "version": 1
  },
  "userdoc": {
    "kind": "user",
    "methods": {},
    "version": 1
  }
}