{
  "contractName": "Registration",
  "abi": [
    {
      "inputs": [],
      "stateMutability": "nonpayable",
      "type": "constructor"
    },
    {
      "anonymous": false,
      "inputs": [
        {
          "indexed": false,
          "internalType": "address",
          "name": "administrator",
          "type": "address"
        }
      ],
      "name": "ContractDeployed",
      "type": "event"
    },
    {
      "anonymous": false,
      "inputs": [
        {
          "indexed": true,
          "internalType": "address",
          "name": "regulatory_authority",
          "type": "address"
        },
        {
          "indexed": true,
          "internalType": "address",
          "name": "patient",
          "type": "address"
        },
        {
          "indexed": false,
          "internalType": "string",
          "name": "ipfsHash",
          "type": "string"
        }
      ],
      "name": "PatientRegistered",
      "type": "event"
    },
    {
      "anonymous": false,
      "inputs": [
        {
          "indexed": true,
          "internalType": "address",
          "name": "regulatory_authority",
          "type": "address"
        },
        {
          "indexed": true,
          "internalType": "address",
          "name": "pharmacy",
          "type": "address"
        },
        {
          "indexed": false,
          "internalType": "string",
          "name": "ipfsHash",
          "type": "string"
        }
      ],
      "name": "PharmacyRegistered",
      "type": "event"
    },
    {
      "anonymous": false,
      "inputs": [
        {
          "indexed": true,
          "internalType": "address",
          "name": "regulatory_authority",
          "type": "address"
        },
        {
          "indexed": true,
          "internalType": "address",
          "name": "physician",
          "type": "address"
        },
        {
          "indexed": false,
          "internalType": "string",
          "name": "ipfsHash",
          "type": "string"
        }
      ],
      "name": "PhysicianRegistered",
      "type": "event"
    },
    {
      "anonymous": false,
      "inputs": [
        {
          "indexed": true,
          "internalType": "address",
          "name": "administrator",
          "type": "address"
        },
        {
          "indexed": true,
          "internalType": "address",
          "name": "regulatory_authority",
          "type": "address"
        },
        {
          "indexed": false,
          "internalType": "string",
          "name": "ipfsHash",
          "type": "string"
        }
      ],
      "name": "RegulatoryAuthorityRegistered",
      "type": "event"
    },
    {
      "inputs": [
        {
          "internalType": "address",
          "name": "",
          "type": "address"
        }
      ],
      "name": "Patient",
      "outputs": [
        {
          "internalType": "bool",
          "name": "",
          "type": "bool"
        }
      ],
      "stateMutability": "view",
      "type": "function",
      "constant": true
    },
    {
      "inputs": [
        {
          "internalType": "address",
          "name": "",
          "type": "address"
        }
      ],
      "name": "Pharmacy",
      "outputs": [
        {
          "internalType": "bool",
          "name": "",
          "type": "bool"
        }
      ],
      "stateMutability": "view",
      "type": "function",
      "constant": true
    },
    {
      "inputs": [
        {
          "internalType": "address",
          "name": "",
          "type": "address"
        }
      ],
      "name": "Physician",
      "outputs": [
        {
          "internalType": "bool",
          "name": "",
          "type": "bool"
        }
      ],
      "stateMutability": "view",
      "type": "function",
      "constant": true
    },
    {
      "inputs": [],
      "name": "administrator",
      "outputs": [
        {
          "internalType": "address",
          "name": "",
          "type": "address"
        }
      ],
      "stateMutability": "view",
      "type": "function",
      "constant": true
    },
    {
      "inputs": [
        {
          "internalType": "address",
          "name": "",
          "type": "address"
        }
      ],
      "name": "patientIPFSHash",
      "outputs": [
        {
          "internalType": "string",
          "name": "",
          "type": "string"
        }
      ],
      "stateMutability": "view",
      "type": "function",
      "constant": true
    },
    {
      "inputs": [
        {
          "internalType": "address",
          "name": "",
          "type": "address"
        }
      ],
      "name": "pharmacyIPFSHash",
      "outputs": [
        {
          "internalType": "string",
          "name": "",
          "type": "string"
        }
      ],
      "stateMutability": "view",
      "type": "function",
      "constant": true
    },
    {
      "inputs": [
        {
          "internalType": "address",
          "name": "",
          "type": "address"
        }
      ],
      "name": "physicianIPFSHash",
      "outputs": [
        {
          "internalType": "string",
          "name": "",
          "type": "string"
        }
      ],
      "stateMutability": "view",
      "type": "function",
      "constant": true
    },
    {
      "inputs": [
        {
          "internalType": "address",
          "name": "",
          "type": "address"
        }
      ],
      "name": "regulatoryAuthority",
      "outputs": [
        {
          "internalType": "bool",
          "name": "",
          "type": "bool"
        }
      ],
      "stateMutability": "view",
      "type": "function",
      "constant": true
    },
    {
      "inputs": [
        {
          "internalType": "address",
          "name": "",
          "type": "address"
        }
      ],
      "name": "regulatoryAuthorityIPFSHash",
      "outputs": [
        {
          "internalType": "string",
          "name": "",
          "type": "string"
        }
      ],
      "stateMutability": "view",
      "type": "function",
      "constant": true
    },
    {
      "inputs": [
        {
          "internalType": "address",
          "name": "user",
          "type": "address"
        },
        {
          "internalType": "string",
          "name": "_ipfsHash",
          "type": "string"
        }
      ],
      "name": "registerRegulatoryAuthority",
      "outputs": [],
      "stateMutability": "nonpayable",
      "type": "function"
    },
    {
      "inputs": [
        {
          "internalType": "address",
          "name": "user",
          "type": "address"
        },
        {
          "internalType": "string",
          "name": "_ipfsHash",
          "type": "string"
        }
      ],
      "name": "PhysicianRegistration",
      "outputs": [],
      "stateMutability": "nonpayable",
      "type": "function"
    },
    {
      "inputs": [
        {
          "internalType": "address",
          "name": "user",
          "type": "address"
        },
        {
          "internalType": "string",
          "name": "_ipfsHash",
          "type": "string"
        }
      ],
      "name": "PharmacyRegistration",
      "outputs": [],
      "stateMutability": "nonpayable",
      "type": "function"
    },
    {
      "inputs": [
        {
          "internalType": "address",
          "name": "user",
          "type": "address"
        },
        {
          "internalType": "string",
          "name": "_ipfsHash",
          "type": "string"
        }
      ],
      "name": "PatientRegistration",
      "outputs": [],
      "stateMutability": "nonpayable",
      "type": "function"
    },
    {
      "inputs": [
        {
          "internalType": "address",
          "name": "user",
          "type": "address"
        }
      ],
      "name": "getPhysicianIPFSHash",
      "outputs": [
        {
          "internalType": "string",
          "name": "",
          "type": "string"
        }
      ],
      "stateMutability": "view",
      "type": "function",
      "constant": true
    },
    {
      "inputs": [
        {
          "internalType": "address",
          "name": "user",
          "type": "address"
        }
      ],
      "name": "getPatientIPFSHash",
      "outputs": [
        {
          "internalType": "string",
          "name": "",
          "type": "string"
        }
      ],
      "stateMutability": "view",
      "type": "function",
      "constant": true
    },
    {
      "inputs": [
        {
          "internalType": "address",
          "name": "user",
          "type": "address"
        }
      ],
      "name": "getPharmacyIPFSHash",
      "outputs": [
        {
          "internalType": "string",
          "name": "",
          "type": "string"
        }
      ],
      "stateMutability": "view",
      "type": "function",
      "constant": true
    },
    {
      "inputs": [
        {
          "internalType": "address",
          "name": "user",
          "type": "address"
        }
      ],
      "name": "getRegulatoryAuthorityIPFSHash",
      "outputs": [
        {
          "internalType": "string",
          "name": "",
          "type": "string"
        }
      ],
      "stateMutability": "view",
      "type": "function",
      "constant": true
    }
  ],
  "bytecode": "0x60806040523480156200001157600080fd5b50336000806101000a81548173ffffffffffffffffffffffffffffffffffffffff021916908373ffffffffffffffffffffffffffffffffffffffff1602179055507f8ffcdc15a283d706d38281f500270d8b5a656918f555de0913d7455e3e6bc1bf60008054906101000a900473ffffffffffffffffffffffffffffffffffffffff16604051620000a39190620000c2565b60405180910390a162000113565b620000bc81620000df565b82525050565b6000602082019050620000d96000830184620000b1565b92915050565b6000620000ec82620000f3565b9050919050565b600073ffffffffffffffffffffffffffffffffffffffff82169050919050565b611cf480620001236000396000f3fe608060405234801561001057600080fd5b506004361061010b5760003560e01c80636e3062b6116100a2578063b58d520a11610071578063b58d520a14610314578063ca61d36a14610344578063ce5cc51914610360578063dd8bd8cb14610390578063f53d0a8e146103c05761010b565b80636e3062b61461027c57806372c8e33014610298578063979b4fae146102c8578063b0b104b2146102f85761010b565b80634c892ab9116100de5780634c892ab9146101bc57806351b77375146101ec578063546903a81461021c5780636a6342801461024c5761010b565b80630d3308c2146101105780631c7ef1d514610140578063467717061461017057806346e9f96d1461018c575b600080fd5b61012a600480360381019061012591906115df565b6103de565b60405161013791906117de565b60405180910390f35b61015a600480360381019061015591906115df565b61047e565b60405161016791906117de565b60405180910390f35b61018a60048036038101906101859190611608565b61054f565b005b6101a660048036038101906101a191906115df565b6107ef565b6040516101b391906117de565b60405180910390f35b6101d660048036038101906101d191906115df565b61088f565b6040516101e391906117c3565b60405180910390f35b610206600480360381019061020191906115df565b6108af565b60405161021391906117de565b60405180910390f35b610236600480360381019061023191906115df565b610980565b60405161024391906117de565b60405180910390f35b610266600480360381019061026191906115df565b610a51565b60405161027391906117de565b60405180910390f35b61029660048036038101906102919190611608565b610b22565b005b6102b260048036038101906102ad91906115df565b610dc0565b6040516102bf91906117c3565b60405180910390f35b6102e260048036038101906102dd91906115df565b610de0565b6040516102ef91906117de565b60405180910390f35b610312600480360381019061030d9190611608565b610e80565b005b61032e600480360381019061032991906115df565b61111d565b60405161033b91906117c3565b60405180910390f35b61035e60048036038101906103599190611608565b61113d565b005b61037a600480360381019061037591906115df565b6113db565b60405161038791906117de565b60405180910390f35b6103aa60048036038101906103a591906115df565b61147b565b6040516103b791906117c3565b60405180910390f35b6103c861149b565b6040516103d591906117a8565b60405180910390f35b600660205280600052604060002060009150905080546103fd906119d2565b80601f0160208091040260200160405190810160405280929190818152602001828054610429906119d2565b80156104765780601f1061044b57610100808354040283529160200191610476565b820191906000526020600020905b81548152906001019060200180831161045957829003601f168201915b505050505081565b6060600760008373ffffffffffffffffffffffffffffffffffffffff1673ffffffffffffffffffffffffffffffffffffffff16815260200190815260200160002080546104ca906119d2565b80601f01602080910402602001604051908101604052809291908181526020018280546104f6906119d2565b80156105435780601f1061051857610100808354040283529160200191610543565b820191906000526020600020905b81548152906001019060200180831161052657829003601f168201915b50505050509050919050565b3373ffffffffffffffffffffffffffffffffffffffff1660008054906101000a900473ffffffffffffffffffffffffffffffffffffffff1673ffffffffffffffffffffffffffffffffffffffff16146105dd576040517f08c379a00000000000000000000000000000000000000000000000000000000081526004016105d490611860565b60405180910390fd5b600073ffffffffffffffffffffffffffffffffffffffff168273ffffffffffffffffffffffffffffffffffffffff16141561064d576040517f08c379a000000000000000000000000000000000000000000000000000000000815260040161064490611820565b60405180910390fd5b600460008373ffffffffffffffffffffffffffffffffffffffff1673ffffffffffffffffffffffffffffffffffffffff16815260200190815260200160002060009054906101000a900460ff16156106da576040517f08c379a00000000000000000000000000000000000000000000000000000000081526004016106d190611800565b60405180910390fd5b6001600460008473ffffffffffffffffffffffffffffffffffffffff1673ffffffffffffffffffffffffffffffffffffffff16815260200190815260200160002060006101000a81548160ff02191690831515021790555080600860008473ffffffffffffffffffffffffffffffffffffffff1673ffffffffffffffffffffffffffffffffffffffff16815260200190815260200160002090805190602001906107859291906114bf565b508173ffffffffffffffffffffffffffffffffffffffff163373ffffffffffffffffffffffffffffffffffffffff167f2a26528042915053d3c81c3c4360977cadaaee795cf4619b51b5684b5f9a7814836040516107e391906117de565b60405180910390a35050565b6007602052806000526040600020600091509050805461080e906119d2565b80601f016020809104026020016040519081016040528092919081815260200182805461083a906119d2565b80156108875780601f1061085c57610100808354040283529160200191610887565b820191906000526020600020905b81548152906001019060200180831161086a57829003601f168201915b505050505081565b60046020528060005260406000206000915054906101000a900460ff1681565b6060600560008373ffffffffffffffffffffffffffffffffffffffff1673ffffffffffffffffffffffffffffffffffffffff16815260200190815260200160002080546108fb906119d2565b80601f0160208091040260200160405190810160405280929190818152602001828054610927906119d2565b80156109745780601f1061094957610100808354040283529160200191610974565b820191906000526020600020905b81548152906001019060200180831161095757829003601f168201915b50505050509050919050565b6060600660008373ffffffffffffffffffffffffffffffffffffffff1673ffffffffffffffffffffffffffffffffffffffff16815260200190815260200160002080546109cc906119d2565b80601f01602080910402602001604051908101604052809291908181526020018280546109f8906119d2565b8015610a455780601f10610a1a57610100808354040283529160200191610a45565b820191906000526020600020905b815481529060010190602001808311610a2857829003601f168201915b50505050509050919050565b6060600860008373ffffffffffffffffffffffffffffffffffffffff1673ffffffffffffffffffffffffffffffffffffffff1681526020019081526020016000208054610a9d906119d2565b80601f0160208091040260200160405190810160405280929190818152602001828054610ac9906119d2565b8015610b165780601f10610aeb57610100808354040283529160200191610b16565b820191906000526020600020905b815481529060010190602001808311610af957829003601f168201915b50505050509050919050565b600460003373ffffffffffffffffffffffffffffffffffffffff1673ffffffffffffffffffffffffffffffffffffffff16815260200190815260200160002060009054906101000a900460ff16610bae576040517f08c379a0000000000000000000000000000000000000000000000000000000008152600401610ba5906118c0565b60405180910390fd5b600073ffffffffffffffffffffffffffffffffffffffff168273ffffffffffffffffffffffffffffffffffffffff161415610c1e576040517f08c379a0000000000000000000000000000000000000000000000000000000008152600401610c1590611820565b60405180910390fd5b600360008373ffffffffffffffffffffffffffffffffffffffff1673ffffffffffffffffffffffffffffffffffffffff16815260200190815260200160002060009054906101000a900460ff1615610cab576040517f08c379a0000000000000000000000000000000000000000000000000000000008152600401610ca290611880565b60405180910390fd5b6001600360008473ffffffffffffffffffffffffffffffffffffffff1673ffffffffffffffffffffffffffffffffffffffff16815260200190815260200160002060006101000a81548160ff02191690831515021790555080600760008473ffffffffffffffffffffffffffffffffffffffff1673ffffffffffffffffffffffffffffffffffffffff1681526020019081526020016000209080519060200190610d569291906114bf565b508173ffffffffffffffffffffffffffffffffffffffff163373ffffffffffffffffffffffffffffffffffffffff167f41d38284bb430ad2a7103a3ff5d9cb8b4e57b5e3feed6b8a52880cce609a47c183604051610db491906117de565b60405180910390a35050565b60016020528060005260406000206000915054906101000a900460ff1681565b60056020528060005260406000206000915090508054610dff906119d2565b80601f0160208091040260200160405190810160405280929190818152602001828054610e2b906119d2565b8015610e785780601f10610e4d57610100808354040283529160200191610e78565b820191906000526020600020905b815481529060010190602001808311610e5b57829003601f168201915b505050505081565b600460003373ffffffffffffffffffffffffffffffffffffffff1673ffffffffffffffffffffffffffffffffffffffff16815260200190815260200160002060009054906101000a900460ff16610f0c576040517f08c379a0000000000000000000000000000000000000000000000000000000008152600401610f03906118c0565b60405180910390fd5b600073ffffffffffffffffffffffffffffffffffffffff168273ffffffffffffffffffffffffffffffffffffffff161415610f7c576040517f08c379a0000000000000000000000000000000000000000000000000000000008152600401610f7390611820565b60405180910390fd5b600160008373ffffffffffffffffffffffffffffffffffffffff1673ffffffffffffffffffffffffffffffffffffffff16815260200190815260200160002060009054906101000a900460ff1615611009576040517f08c379a000000000000000000000000000000000000000000000000000000000815260040161100090611840565b60405180910390fd5b60018060008473ffffffffffffffffffffffffffffffffffffffff1673ffffffffffffffffffffffffffffffffffffffff16815260200190815260200160002060006101000a81548160ff02191690831515021790555080600560008473ffffffffffffffffffffffffffffffffffffffff1673ffffffffffffffffffffffffffffffffffffffff16815260200190815260200160002090805190602001906110b39291906114bf565b508173ffffffffffffffffffffffffffffffffffffffff163373ffffffffffffffffffffffffffffffffffffffff167f1d103a0b744a55faccce85656057d5af451eb8db85891aa07fa6a42054a11dfb8360405161111191906117de565b60405180910390a35050565b60036020528060005260406000206000915054906101000a900460ff1681565b600460003373ffffffffffffffffffffffffffffffffffffffff1673ffffffffffffffffffffffffffffffffffffffff16815260200190815260200160002060009054906101000a900460ff166111c9576040517f08c379a00000000000000000000000000000000000000000000000000000000081526004016111c0906118c0565b60405180910390fd5b600073ffffffffffffffffffffffffffffffffffffffff168273ffffffffffffffffffffffffffffffffffffffff161415611239576040517f08c379a000000000000000000000000000000000000000000000000000000000815260040161123090611820565b60405180910390fd5b600260008373ffffffffffffffffffffffffffffffffffffffff1673ffffffffffffffffffffffffffffffffffffffff16815260200190815260200160002060009054906101000a900460ff16156112c6576040517f08c379a00000000000000000000000000000000000000000000000000000000081526004016112bd906118a0565b60405180910390fd5b6001600260008473ffffffffffffffffffffffffffffffffffffffff1673ffffffffffffffffffffffffffffffffffffffff16815260200190815260200160002060006101000a81548160ff02191690831515021790555080600660008473ffffffffffffffffffffffffffffffffffffffff1673ffffffffffffffffffffffffffffffffffffffff16815260200190815260200160002090805190602001906113719291906114bf565b508173ffffffffffffffffffffffffffffffffffffffff163373ffffffffffffffffffffffffffffffffffffffff167fd56ca6eba2063df9c582989c86b1caa15d2794eb6a0026735173991661816cd0836040516113cf91906117de565b60405180910390a35050565b600860205280600052604060002060009150905080546113fa906119d2565b80601f0160208091040260200160405190810160405280929190818152602001828054611426906119d2565b80156114735780601f1061144857610100808354040283529160200191611473565b820191906000526020600020905b81548152906001019060200180831161145657829003601f168201915b505050505081565b60026020528060005260406000206000915054906101000a900460ff1681565b60008054906101000a900473ffffffffffffffffffffffffffffffffffffffff1681565b8280546114cb906119d2565b90600052602060002090601f0160209004810192826114ed5760008555611534565b82601f1061150657805160ff1916838001178555611534565b82800160010185558215611534579182015b82811115611533578251825591602001919060010190611518565b5b5090506115419190611545565b5090565b5b8082111561155e576000816000905550600101611546565b5090565b600061157561157084611905565b6118e0565b90508281526020810184848401111561158d57600080fd5b611598848285611990565b509392505050565b6000813590506115af81611ca7565b92915050565b600082601f8301126115c657600080fd5b81356115d6848260208601611562565b91505092915050565b6000602082840312156115f157600080fd5b60006115ff848285016115a0565b91505092915050565b6000806040838503121561161b57600080fd5b6000611629858286016115a0565b925050602083013567ffffffffffffffff81111561164657600080fd5b611652858286016115b5565b9150509250929050565b61166581611952565b82525050565b61167481611964565b82525050565b600061168582611936565b61168f8185611941565b935061169f81856020860161199f565b6116a881611a93565b840191505092915050565b60006116c0602783611941565b91506116cb82611aa4565b604082019050919050565b60006116e3600f83611941565b91506116ee82611af3565b602082019050919050565b6000611706602383611941565b915061171182611b1c565b604082019050919050565b6000611729603883611941565b915061173482611b6b565b604082019050919050565b600061174c602283611941565b915061175782611bba565b604082019050919050565b600061176f602183611941565b915061177a82611c09565b604082019050919050565b6000611792603c83611941565b915061179d82611c58565b604082019050919050565b60006020820190506117bd600083018461165c565b92915050565b60006020820190506117d8600083018461166b565b92915050565b600060208201905081810360008301526117f8818461167a565b905092915050565b60006020820190508181036000830152611819816116b3565b9050919050565b60006020820190508181036000830152611839816116d6565b9050919050565b60006020820190508181036000830152611859816116f9565b9050919050565b600060208201905081810360008301526118798161171c565b9050919050565b600060208201905081810360008301526118998161173f565b9050919050565b600060208201905081810360008301526118b981611762565b9050919050565b600060208201905081810360008301526118d981611785565b9050919050565b60006118ea6118fb565b90506118f68282611a04565b919050565b6000604051905090565b600067ffffffffffffffff8211156119205761191f611a64565b5b61192982611a93565b9050602081019050919050565b600081519050919050565b600082825260208201905092915050565b600061195d82611970565b9050919050565b60008115159050919050565b600073ffffffffffffffffffffffffffffffffffffffff82169050919050565b82818337600083830152505050565b60005b838110156119bd5780820151818401526020810190506119a2565b838111156119cc576000848401525b50505050565b600060028204905060018216806119ea57607f821691505b602082108114156119fe576119fd611a35565b5b50919050565b611a0d82611a93565b810181811067ffffffffffffffff82111715611a2c57611a2b611a64565b5b80604052505050565b7f4e487b7100000000000000000000000000000000000000000000000000000000600052602260045260246000fd5b7f4e487b7100000000000000000000000000000000000000000000000000000000600052604160045260246000fd5b6000601f19601f8301169050919050565b7f526567756c61746f727920617574686f7269747920616c72656164792072656760008201527f6973746572656400000000000000000000000000000000000000000000000000602082015250565b7f496e76616c696420616464726573730000000000000000000000000000000000600082015250565b7f5468652070687973696369616e20697320616c7265616479207265676973746560008201527f7265640000000000000000000000000000000000000000000000000000000000602082015250565b7f4f6e6c79207468652061646d696e6973747261746f72206973207065726d697460008201527f74656420746f2072756e20746869732066756e6374696f6e0000000000000000602082015250565b7f54686520706861726d61637920697320616c726561647920726567697374657260008201527f6564000000000000000000000000000000000000000000000000000000000000602082015250565b7f5468652070617469656e7420697320616c72656164792072656769737465726560008201527f6400000000000000000000000000000000000000000000000000000000000000602082015250565b7f4f6e6c792061207265676973746572656420726567756c61746f72792061757460008201527f686f726974792063616e2072756e20746869732066756e6374696f6e00000000602082015250565b611cb081611952565b8114611cbb57600080fd5b5056fea26469706673582212204b70c21d2d389225d25f5aa38cd65a2b57edc433822cee5a58c3e65867892fa064736f6c63430008040033",
  "immutableReferences": {},
  "source": "// SPDX-License-Identifier: MIT\npragma solidity ^0.8.4;\n\ncontract Registration {\n\n    address public administrator;\n    \n    // Mappings to check if an address is registered as an entity\n    mapping(address => bool) public Physician;\n    mapping(address => bool) public Patient;\n    mapping(address => bool) public Pharmacy;\n    mapping(address => bool) public regulatoryAuthority;\n\n    // Mappings to store IPFS hashes\n    mapping(address => string) public physicianIPFSHash;\n    mapping(address => string) public patientIPFSHash;\n    mapping(address => string) public pharmacyIPFSHash;\n    mapping(address => string) public regulatoryAuthorityIPFSHash;\n\n    event ContractDeployed(address administrator);\n    event RegulatoryAuthorityRegistered(address indexed administrator, address indexed regulatory_authority, string ipfsHash);\n    event PhysicianRegistered(address indexed regulatory_authority, address indexed physician, string ipfsHash);\n    event PharmacyRegistered(address indexed regulatory_authority, address indexed pharmacy, string ipfsHash);\n    event PatientRegistered(address indexed regulatory_authority, address indexed patient, string ipfsHash);\n\n    modifier onlyAdministrator() {\n        require(administrator == msg.sender, \"Only the administrator is permitted to run this function\");\n        _;\n    }\n\n    modifier onlyRegulatoryAuthority() {\n        require(regulatoryAuthority[msg.sender], \"Only a registered regulatory authority can run this function\"); // Updated variable name\n        _;\n    }\n\n    constructor() {\n        // Set the deployer as the administrator\n        administrator = msg.sender;\n        emit ContractDeployed(administrator);\n    }\n\n    function registerRegulatoryAuthority(address user, string memory _ipfsHash) public onlyAdministrator { // Renamed parameter to 'user'\n        require(user != address(0), \"Invalid address\");\n        require(!regulatoryAuthority[user], \"Regulatory authority already registered\"); // Updated variable name\n        \n        regulatoryAuthority[user] = true; // Updated variable name\n        regulatoryAuthorityIPFSHash[user] = _ipfsHash;\n        \n        emit RegulatoryAuthorityRegistered(msg.sender, user, _ipfsHash);\n    }\n\n    function PhysicianRegistration(address user, string memory _ipfsHash) public onlyRegulatoryAuthority {\n        require(user != address(0), \"Invalid address\");\n        require(!Physician[user], \"The physician is already registered\");\n        \n        Physician[user] = true;\n        physicianIPFSHash[user] = _ipfsHash;\n        \n        emit PhysicianRegistered(msg.sender, user, _ipfsHash);\n    }\n\n    function PharmacyRegistration(address user, string memory _ipfsHash) public onlyRegulatoryAuthority { // Renamed parameter to 'user'\n        require(user != address(0), \"Invalid address\");\n        require(!Pharmacy[user], \"The pharmacy is already registered\");\n        \n        Pharmacy[user] = true;\n        pharmacyIPFSHash[user] = _ipfsHash;\n        \n        emit PharmacyRegistered(msg.sender, user, _ipfsHash);\n    }\n\n    function PatientRegistration(address user, string memory _ipfsHash) public onlyRegulatoryAuthority {\n        require(user != address(0), \"Invalid address\");\n        require(!Patient[user], \"The patient is already registered\");\n        \n        Patient[user] = true;\n        patientIPFSHash[user] = _ipfsHash;\n        \n        emit PatientRegistered(msg.sender, user, _ipfsHash);\n    }\n    \n    // Getter functions for IPFS hashes\n    function getPhysicianIPFSHash(address user) public view returns (string memory) {\n        return physicianIPFSHash[user];\n    }\n\n    function getPatientIPFSHash(address user) public view returns (string memory) {\n        return patientIPFSHash[user];\n    }\n\n    function getPharmacyIPFSHash(address user) public view returns (string memory) {\n        return pharmacyIPFSHash[user];\n    }\n\n    function getRegulatoryAuthorityIPFSHash(address user) public view returns (string memory) { // Renamed parameter to 'user'\n        return regulatoryAuthorityIPFSHash[user];\n    }\n}\n",
  "sourcePath": "/Users/butch/MSE/Capstone/ePrescription/truffle/contracts/Registration.sol",
  "compiler": {
    "name": "solc",
    "version": "0.8.4+commit.c7e474f2.Emscripten.clang"
  },
  "schemaVersion": "3.4.16",
  "updatedAt": "2024-09-03T01:42:09.314Z",
  "networkType": "ethereum",
  "devdoc": {
    "kind": "dev",
    "methods": {},
    "version": 1
  },
  "userdoc": {
    "kind": "user",
    "methods": {},
    "version": 1
  }
}