{
  "contractName": "Registration",
  "abi": [
    {
      "inputs": [],
      "stateMutability": "nonpayable",
      "type": "constructor"
    },
    {
      "anonymous": false,
      "inputs": [
        {
          "indexed": false,
          "internalType": "address",
          "name": "administrator",
          "type": "address"
        }
      ],
      "name": "ContractDeployed",
      "type": "event"
    },
    {
      "anonymous": false,
      "inputs": [
        {
          "indexed": true,
          "internalType": "address",
          "name": "regulatory_authority",
          "type": "address"
        },
        {
          "indexed": true,
          "internalType": "address",
          "name": "Patient",
          "type": "address"
        }
      ],
      "name": "PatientRegistered",
      "type": "event"
    },
    {
      "anonymous": false,
      "inputs": [
        {
          "indexed": true,
          "internalType": "address",
          "name": "regulatory_authority",
          "type": "address"
        },
        {
          "indexed": true,
          "internalType": "address",
          "name": "Pharmacy",
          "type": "address"
        }
      ],
      "name": "PharmacyRegistered",
      "type": "event"
    },
    {
      "anonymous": false,
      "inputs": [
        {
          "indexed": true,
          "internalType": "address",
          "name": "regulatory_authority",
          "type": "address"
        },
        {
          "indexed": true,
          "internalType": "address",
          "name": "Physician",
          "type": "address"
        }
      ],
      "name": "PhysicianRegistered",
      "type": "event"
    },
    {
      "anonymous": false,
      "inputs": [
        {
          "indexed": true,
          "internalType": "address",
          "name": "administrator",
          "type": "address"
        },
        {
          "indexed": true,
          "internalType": "address",
          "name": "regulatory_authority",
          "type": "address"
        }
      ],
      "name": "RegulatoryAuthorityRegistered",
      "type": "event"
    },
    {
      "inputs": [
        {
          "internalType": "address",
          "name": "",
          "type": "address"
        }
      ],
      "name": "Patient",
      "outputs": [
        {
          "internalType": "bool",
          "name": "",
          "type": "bool"
        }
      ],
      "stateMutability": "view",
      "type": "function",
      "constant": true
    },
    {
      "inputs": [
        {
          "internalType": "address",
          "name": "",
          "type": "address"
        }
      ],
      "name": "Pharmacy",
      "outputs": [
        {
          "internalType": "bool",
          "name": "",
          "type": "bool"
        }
      ],
      "stateMutability": "view",
      "type": "function",
      "constant": true
    },
    {
      "inputs": [
        {
          "internalType": "address",
          "name": "",
          "type": "address"
        }
      ],
      "name": "Physician",
      "outputs": [
        {
          "internalType": "bool",
          "name": "",
          "type": "bool"
        }
      ],
      "stateMutability": "view",
      "type": "function",
      "constant": true
    },
    {
      "inputs": [],
      "name": "administrator",
      "outputs": [
        {
          "internalType": "address",
          "name": "",
          "type": "address"
        }
      ],
      "stateMutability": "view",
      "type": "function",
      "constant": true
    },
    {
      "inputs": [
        {
          "internalType": "address",
          "name": "",
          "type": "address"
        }
      ],
      "name": "isRegulatoryAuthority",
      "outputs": [
        {
          "internalType": "bool",
          "name": "",
          "type": "bool"
        }
      ],
      "stateMutability": "view",
      "type": "function",
      "constant": true
    },
    {
      "inputs": [
        {
          "internalType": "address",
          "name": "_regulatoryAuthority",
          "type": "address"
        }
      ],
      "name": "registerRegulatoryAuthority",
      "outputs": [],
      "stateMutability": "nonpayable",
      "type": "function"
    },
    {
      "inputs": [
        {
          "internalType": "address",
          "name": "user",
          "type": "address"
        }
      ],
      "name": "PhysicianRegistration",
      "outputs": [],
      "stateMutability": "nonpayable",
      "type": "function"
    },
    {
      "inputs": [
        {
          "internalType": "address",
          "name": "_Pharmacy",
          "type": "address"
        }
      ],
      "name": "PharmacyRegistration",
      "outputs": [],
      "stateMutability": "nonpayable",
      "type": "function"
    },
    {
      "inputs": [
        {
          "internalType": "address",
          "name": "user",
          "type": "address"
        }
      ],
      "name": "PatientRegistration",
      "outputs": [],
      "stateMutability": "nonpayable",
      "type": "function"
    }
  ],
  "bytecode": "0x608060405234801561001057600080fd5b50336000806101000a81548173ffffffffffffffffffffffffffffffffffffffff021916908373ffffffffffffffffffffffffffffffffffffffff1602179055507f8ffcdc15a283d706d38281f500270d8b5a656918f555de0913d7455e3e6bc1bf60008054906101000a900473ffffffffffffffffffffffffffffffffffffffff166040516100a091906100bc565b60405180910390a1610109565b6100b6816100d7565b82525050565b60006020820190506100d160008301846100ad565b92915050565b60006100e2826100e9565b9050919050565b600073ffffffffffffffffffffffffffffffffffffffff82169050919050565b610f6a806101186000396000f3fe608060405234801561001057600080fd5b50600436106100935760003560e01c80637e3332af116100665780637e3332af146101305780638ff18b6d1461014c578063b58d520a14610168578063dd8bd8cb14610198578063f53d0a8e146101c857610093565b806304f3e3b1146100985780630af448ae146100c85780632aae28b8146100e457806372c8e33014610100575b600080fd5b6100b260048036038101906100ad9190610b0b565b6101e6565b6040516100bf9190610c3f565b60405180910390f35b6100e260048036038101906100dd9190610b0b565b610206565b005b6100fe60048036038101906100f99190610b0b565b610446565b005b61011a60048036038101906101159190610b0b565b6105f7565b6040516101279190610c3f565b60405180910390f35b61014a60048036038101906101459190610b0b565b610617565b005b61016660048036038101906101619190610b0b565b610854565b005b610182600480360381019061017d9190610b0b565b610a92565b60405161018f9190610c3f565b60405180910390f35b6101b260048036038101906101ad9190610b0b565b610ab2565b6040516101bf9190610c3f565b60405180910390f35b6101d0610ad2565b6040516101dd9190610c24565b60405180910390f35b60046020528060005260406000206000915054906101000a900460ff1681565b3373ffffffffffffffffffffffffffffffffffffffff1660008054906101000a900473ffffffffffffffffffffffffffffffffffffffff1673ffffffffffffffffffffffffffffffffffffffff1614610294576040517f08c379a000000000000000000000000000000000000000000000000000000000815260040161028b90610cba565b60405180910390fd5b600073ffffffffffffffffffffffffffffffffffffffff168173ffffffffffffffffffffffffffffffffffffffff161415610304576040517f08c379a00000000000000000000000000000000000000000000000000000000081526004016102fb90610c7a565b60405180910390fd5b600460008273ffffffffffffffffffffffffffffffffffffffff1673ffffffffffffffffffffffffffffffffffffffff16815260200190815260200160002060009054906101000a900460ff1615610391576040517f08c379a000000000000000000000000000000000000000000000000000000000815260040161038890610c5a565b60405180910390fd5b6001600460008373ffffffffffffffffffffffffffffffffffffffff1673ffffffffffffffffffffffffffffffffffffffff16815260200190815260200160002060006101000a81548160ff0219169083151502179055508073ffffffffffffffffffffffffffffffffffffffff163373ffffffffffffffffffffffffffffffffffffffff167fdb93d414f34392d34991a674ea42750191f863c182e94f013f57af5e0bb5531460405160405180910390a350565b600460003373ffffffffffffffffffffffffffffffffffffffff1673ffffffffffffffffffffffffffffffffffffffff16815260200190815260200160002060009054906101000a900460ff166104d2576040517f08c379a00000000000000000000000000000000000000000000000000000000081526004016104c990610cfa565b60405180910390fd5b600073ffffffffffffffffffffffffffffffffffffffff168173ffffffffffffffffffffffffffffffffffffffff161415610542576040517f08c379a000000000000000000000000000000000000000000000000000000000815260040161053990610c7a565b60405180910390fd5b6001600360008373ffffffffffffffffffffffffffffffffffffffff1673ffffffffffffffffffffffffffffffffffffffff16815260200190815260200160002060006101000a81548160ff0219169083151502179055508073ffffffffffffffffffffffffffffffffffffffff163373ffffffffffffffffffffffffffffffffffffffff167fe861bec86b2bbb127a3d4cb58ab025703f23898dc171da278785919d109ceaa560405160405180910390a350565b60016020528060005260406000206000915054906101000a900460ff1681565b600460003373ffffffffffffffffffffffffffffffffffffffff1673ffffffffffffffffffffffffffffffffffffffff16815260200190815260200160002060009054906101000a900460ff166106a3576040517f08c379a000000000000000000000000000000000000000000000000000000000815260040161069a90610cfa565b60405180910390fd5b600073ffffffffffffffffffffffffffffffffffffffff168173ffffffffffffffffffffffffffffffffffffffff161415610713576040517f08c379a000000000000000000000000000000000000000000000000000000000815260040161070a90610c7a565b60405180910390fd5b600160008273ffffffffffffffffffffffffffffffffffffffff1673ffffffffffffffffffffffffffffffffffffffff16815260200190815260200160002060009054906101000a900460ff16156107a0576040517f08c379a000000000000000000000000000000000000000000000000000000000815260040161079790610c9a565b60405180910390fd5b60018060008373ffffffffffffffffffffffffffffffffffffffff1673ffffffffffffffffffffffffffffffffffffffff16815260200190815260200160002060006101000a81548160ff0219169083151502179055508073ffffffffffffffffffffffffffffffffffffffff163373ffffffffffffffffffffffffffffffffffffffff167f58d41f267421baa52587d8f42951b20352b316fe0ee6f1c545771e6789652a6b60405160405180910390a350565b600460003373ffffffffffffffffffffffffffffffffffffffff1673ffffffffffffffffffffffffffffffffffffffff16815260200190815260200160002060009054906101000a900460ff166108e0576040517f08c379a00000000000000000000000000000000000000000000000000000000081526004016108d790610cfa565b60405180910390fd5b600073ffffffffffffffffffffffffffffffffffffffff168173ffffffffffffffffffffffffffffffffffffffff161415610950576040517f08c379a000000000000000000000000000000000000000000000000000000000815260040161094790610c7a565b60405180910390fd5b600260008273ffffffffffffffffffffffffffffffffffffffff1673ffffffffffffffffffffffffffffffffffffffff16815260200190815260200160002060009054906101000a900460ff16156109dd576040517f08c379a00000000000000000000000000000000000000000000000000000000081526004016109d490610cda565b60405180910390fd5b6001600260008373ffffffffffffffffffffffffffffffffffffffff1673ffffffffffffffffffffffffffffffffffffffff16815260200190815260200160002060006101000a81548160ff0219169083151502179055508073ffffffffffffffffffffffffffffffffffffffff163373ffffffffffffffffffffffffffffffffffffffff167fd9c832986bb955c0db83dc9f099b47feca6da2be0a3ae3e14b64c3a0a2f1e29160405160405180910390a350565b60036020528060005260406000206000915054906101000a900460ff1681565b60026020528060005260406000206000915054906101000a900460ff1681565b60008054906101000a900473ffffffffffffffffffffffffffffffffffffffff1681565b600081359050610b0581610f1d565b92915050565b600060208284031215610b1d57600080fd5b6000610b2b84828501610af6565b91505092915050565b610b3d81610d2b565b82525050565b610b4c81610d3d565b82525050565b6000610b5f602783610d1a565b9150610b6a82610d69565b604082019050919050565b6000610b82600f83610d1a565b9150610b8d82610db8565b602082019050919050565b6000610ba5602383610d1a565b9150610bb082610de1565b604082019050919050565b6000610bc8603883610d1a565b9150610bd382610e30565b604082019050919050565b6000610beb602183610d1a565b9150610bf682610e7f565b604082019050919050565b6000610c0e603c83610d1a565b9150610c1982610ece565b604082019050919050565b6000602082019050610c396000830184610b34565b92915050565b6000602082019050610c546000830184610b43565b92915050565b60006020820190508181036000830152610c7381610b52565b9050919050565b60006020820190508181036000830152610c9381610b75565b9050919050565b60006020820190508181036000830152610cb381610b98565b9050919050565b60006020820190508181036000830152610cd381610bbb565b9050919050565b60006020820190508181036000830152610cf381610bde565b9050919050565b60006020820190508181036000830152610d1381610c01565b9050919050565b600082825260208201905092915050565b6000610d3682610d49565b9050919050565b60008115159050919050565b600073ffffffffffffffffffffffffffffffffffffffff82169050919050565b7f526567756c61746f727920617574686f7269747920616c72656164792072656760008201527f6973746572656400000000000000000000000000000000000000000000000000602082015250565b7f496e76616c696420616464726573730000000000000000000000000000000000600082015250565b7f5468652070687973696369616e20697320616c7265616479207265676973746560008201527f7265640000000000000000000000000000000000000000000000000000000000602082015250565b7f4f6e6c79207468652061646d696e6973747261746f72206973207065726d697460008201527f74656420746f2072756e20746869732066756e6374696f6e0000000000000000602082015250565b7f5468652070617469656e7420697320616c72656164792072656769737465726560008201527f6400000000000000000000000000000000000000000000000000000000000000602082015250565b7f4f6e6c792061207265676973746572656420726567756c61746f72792061757460008201527f686f726974792063616e2072756e20746869732066756e6374696f6e00000000602082015250565b610f2681610d2b565b8114610f3157600080fd5b5056fea26469706673582212204cba4e5b5f7703ea0d03f80dd489b981091058316f2cc61cbc8b2bbd8c504f9b64736f6c63430008040033",
  "immutableReferences": {},
  "source": "// SPDX-License-Identifier: MIT\npragma solidity ^0.8.4;\n\ncontract Registration {\n\n    address public administrator;\n    \n    // Mappings to check if an address is registered as an entity\n    mapping(address => bool) public Physician;\n    mapping(address => bool) public Patient;\n    mapping(address => bool) public Pharmacy;\n    mapping(address => bool) public isRegulatoryAuthority;\n\n    event ContractDeployed(address administrator);\n    event RegulatoryAuthorityRegistered(address indexed administrator, address indexed regulatory_authority);\n    event PhysicianRegistered(address indexed regulatory_authority, address indexed Physician);\n    event PharmacyRegistered(address indexed regulatory_authority, address indexed Pharmacy);\n    event PatientRegistered(address indexed regulatory_authority, address indexed Patient);\n\n    modifier onlyAdministrator() {\n        require(administrator == msg.sender, \"Only the administrator is permitted to run this function\");\n        _;\n    }\n\n    modifier onlyRegulatoryAuthority() {\n        require(isRegulatoryAuthority[msg.sender], \"Only a registered regulatory authority can run this function\");\n        _;\n    }\n\n    constructor() {\n        // Set the deployer as the administrator\n        administrator = msg.sender;\n        emit ContractDeployed(administrator);\n    }\n\n    function registerRegulatoryAuthority(address _regulatoryAuthority) public onlyAdministrator {\n        require(_regulatoryAuthority != address(0), \"Invalid address\");\n        require(!isRegulatoryAuthority[_regulatoryAuthority], \"Regulatory authority already registered\");\n        \n        isRegulatoryAuthority[_regulatoryAuthority] = true;\n        \n        emit RegulatoryAuthorityRegistered(msg.sender, _regulatoryAuthority);\n    }\n\n    function PhysicianRegistration(address user) public onlyRegulatoryAuthority {\n        require(user != address(0), \"Invalid address\");\n        require(!Physician[user], \"The physician is already registered\");\n        Physician[user] = true;\n        emit PhysicianRegistered(msg.sender, user);\n    }\n\n    function PharmacyRegistration(address _Pharmacy) public onlyRegulatoryAuthority {\n        require(_Pharmacy != address(0), \"Invalid address\");\n        Pharmacy[_Pharmacy] = true;\n        emit PharmacyRegistered(msg.sender, _Pharmacy);\n    }\n\n    function PatientRegistration(address user) public onlyRegulatoryAuthority {\n        require(user != address(0), \"Invalid address\");\n        require(!Patient[user], \"The patient is already registered\");\n        Patient[user] = true;\n        emit PatientRegistered(msg.sender, user);\n    }\n}\n",
  "sourcePath": "/Users/butch/MSE/Capstone/ePrescription/truffle/contracts/Registration.sol",
  "compiler": {
    "name": "solc",
    "version": "0.8.4+commit.c7e474f2.Emscripten.clang"
  },
  "schemaVersion": "3.4.16",
  "updatedAt": "2024-08-30T06:06:54.201Z",
  "networkType": "ethereum",
  "devdoc": {
    "kind": "dev",
    "methods": {},
    "version": 1
  },
  "userdoc": {
    "kind": "user",
    "methods": {},
    "version": 1
  }
}